{
  "address": "0xF7A721990DC807A74607Bd9DDfD51416B5b0eCea",
  "abi": [
    {
      "inputs": [],
      "stateMutability": "nonpayable",
      "type": "constructor"
    },
    {
      "anonymous": false,
      "inputs": [
        {
          "indexed": true,
          "internalType": "address",
          "name": "owner",
          "type": "address"
        },
        {
          "indexed": true,
          "internalType": "address",
          "name": "approved",
          "type": "address"
        },
        {
          "indexed": true,
          "internalType": "uint256",
          "name": "tokenId",
          "type": "uint256"
        }
      ],
      "name": "Approval",
      "type": "event"
    },
    {
      "anonymous": false,
      "inputs": [
        {
          "indexed": true,
          "internalType": "address",
          "name": "owner",
          "type": "address"
        },
        {
          "indexed": true,
          "internalType": "address",
          "name": "operator",
          "type": "address"
        },
        {
          "indexed": false,
          "internalType": "bool",
          "name": "approved",
          "type": "bool"
        }
      ],
      "name": "ApprovalForAll",
      "type": "event"
    },
    {
      "anonymous": false,
      "inputs": [
        {
          "indexed": true,
          "internalType": "uint256",
          "name": "index",
          "type": "uint256"
        },
        {
          "indexed": false,
          "internalType": "string",
          "name": "newName",
          "type": "string"
        }
      ],
      "name": "NameChange",
      "type": "event"
    },
    {
      "anonymous": false,
      "inputs": [
        {
          "indexed": true,
          "internalType": "bytes32",
          "name": "role",
          "type": "bytes32"
        },
        {
          "indexed": true,
          "internalType": "bytes32",
          "name": "previousAdminRole",
          "type": "bytes32"
        },
        {
          "indexed": true,
          "internalType": "bytes32",
          "name": "newAdminRole",
          "type": "bytes32"
        }
      ],
      "name": "RoleAdminChanged",
      "type": "event"
    },
    {
      "anonymous": false,
      "inputs": [
        {
          "indexed": true,
          "internalType": "bytes32",
          "name": "role",
          "type": "bytes32"
        },
        {
          "indexed": true,
          "internalType": "address",
          "name": "account",
          "type": "address"
        },
        {
          "indexed": true,
          "internalType": "address",
          "name": "sender",
          "type": "address"
        }
      ],
      "name": "RoleGranted",
      "type": "event"
    },
    {
      "anonymous": false,
      "inputs": [
        {
          "indexed": true,
          "internalType": "bytes32",
          "name": "role",
          "type": "bytes32"
        },
        {
          "indexed": true,
          "internalType": "address",
          "name": "account",
          "type": "address"
        },
        {
          "indexed": true,
          "internalType": "address",
          "name": "sender",
          "type": "address"
        }
      ],
      "name": "RoleRevoked",
      "type": "event"
    },
    {
      "anonymous": false,
      "inputs": [
        {
          "indexed": true,
          "internalType": "uint256",
          "name": "index",
          "type": "uint256"
        },
        {
          "indexed": false,
          "internalType": "uint256",
          "name": "newSkill",
          "type": "uint256"
        }
      ],
      "name": "SkillChange",
      "type": "event"
    },
    {
      "anonymous": false,
      "inputs": [
        {
          "indexed": true,
          "internalType": "address",
          "name": "from",
          "type": "address"
        },
        {
          "indexed": true,
          "internalType": "address",
          "name": "to",
          "type": "address"
        },
        {
          "indexed": true,
          "internalType": "uint256",
          "name": "tokenId",
          "type": "uint256"
        }
      ],
      "name": "Transfer",
      "type": "event"
    },
    {
      "inputs": [],
      "name": "BATCH_MANAGER_ROLE",
      "outputs": [
        {
          "internalType": "bytes32",
          "name": "",
          "type": "bytes32"
        }
      ],
      "stateMutability": "view",
      "type": "function"
    },
    {
      "inputs": [],
      "name": "DEFAULT_ADMIN_ROLE",
      "outputs": [
        {
          "internalType": "bytes32",
          "name": "",
          "type": "bytes32"
        }
      ],
      "stateMutability": "view",
      "type": "function"
    },
    {
      "inputs": [],
      "name": "DEFAULT_RARITY_SETTER_ROLE",
      "outputs": [
        {
          "internalType": "bytes32",
          "name": "",
          "type": "bytes32"
        }
      ],
      "stateMutability": "view",
      "type": "function"
    },
    {
      "inputs": [],
      "name": "DEFAULT_URI_SETTER_ROLE",
      "outputs": [
        {
          "internalType": "bytes32",
          "name": "",
          "type": "bytes32"
        }
      ],
      "stateMutability": "view",
      "type": "function"
    },
    {
      "inputs": [],
      "name": "MAX_PURCHASE_SIZE_SETTER_ROLE",
      "outputs": [
        {
          "internalType": "bytes32",
          "name": "",
          "type": "bytes32"
        }
      ],
      "stateMutability": "view",
      "type": "function"
    },
    {
      "inputs": [],
      "name": "MINTER_ROLE",
      "outputs": [
        {
          "internalType": "bytes32",
          "name": "",
          "type": "bytes32"
        }
      ],
      "stateMutability": "view",
      "type": "function"
    },
    {
      "inputs": [],
      "name": "NAME_SETTER_ROLE",
      "outputs": [
        {
          "internalType": "bytes32",
          "name": "",
          "type": "bytes32"
        }
      ],
      "stateMutability": "view",
      "type": "function"
    },
    {
      "inputs": [],
      "name": "SALE_ADMIN_ROLE",
      "outputs": [
        {
          "internalType": "bytes32",
          "name": "",
          "type": "bytes32"
        }
      ],
      "stateMutability": "view",
      "type": "function"
    },
    {
      "inputs": [],
      "name": "SALE_STAGES_MANAGER_ROLE",
      "outputs": [
        {
          "internalType": "bytes32",
          "name": "",
          "type": "bytes32"
        }
      ],
      "stateMutability": "view",
      "type": "function"
    },
    {
      "inputs": [],
      "name": "SKILL_SETTER_ROLE",
      "outputs": [
        {
          "internalType": "bytes32",
          "name": "",
          "type": "bytes32"
        }
      ],
      "stateMutability": "view",
      "type": "function"
    },
    {
      "inputs": [],
      "name": "VAULT_SETTER_ROLE",
      "outputs": [
        {
          "internalType": "bytes32",
          "name": "",
          "type": "bytes32"
        }
      ],
      "stateMutability": "view",
      "type": "function"
    },
    {
      "inputs": [
        {
          "internalType": "uint256",
          "name": "batchEndId",
          "type": "uint256"
        },
        {
          "internalType": "string",
          "name": "baseURI",
          "type": "string"
        },
        {
          "internalType": "uint256",
          "name": "rarity",
          "type": "uint256"
        }
      ],
      "name": "addBatch",
      "outputs": [],
      "stateMutability": "nonpayable",
      "type": "function"
    },
    {
      "inputs": [
        {
          "internalType": "uint256",
          "name": "endTokens",
          "type": "uint256"
        },
        {
          "internalType": "uint256",
          "name": "weiPerToken",
          "type": "uint256"
        }
      ],
      "name": "addSaleStage",
      "outputs": [],
      "stateMutability": "nonpayable",
      "type": "function"
    },
    {
      "inputs": [
        {
          "internalType": "address",
          "name": "to",
          "type": "address"
        },
        {
          "internalType": "uint256",
          "name": "tokenId",
          "type": "uint256"
        }
      ],
      "name": "approve",
      "outputs": [],
      "stateMutability": "nonpayable",
      "type": "function"
    },
    {
      "inputs": [
        {
          "internalType": "address",
          "name": "owner",
          "type": "address"
        }
      ],
      "name": "balanceOf",
      "outputs": [
        {
          "internalType": "uint256",
          "name": "",
          "type": "uint256"
        }
      ],
      "stateMutability": "view",
      "type": "function"
    },
    {
      "inputs": [
        {
          "internalType": "uint256",
          "name": "nfts",
          "type": "uint256"
        }
      ],
      "name": "buy",
      "outputs": [],
      "stateMutability": "payable",
      "type": "function"
    },
    {
      "inputs": [
        {
          "internalType": "uint256",
          "name": "batchIndex",
          "type": "uint256"
        }
      ],
      "name": "deleteBatch",
      "outputs": [],
      "stateMutability": "nonpayable",
      "type": "function"
    },
    {
      "inputs": [
        {
          "internalType": "uint256",
          "name": "tokenId",
          "type": "uint256"
        }
      ],
      "name": "getApproved",
      "outputs": [
        {
          "internalType": "address",
          "name": "",
          "type": "address"
        }
      ],
      "stateMutability": "view",
      "type": "function"
    },
    {
      "inputs": [
        {
          "internalType": "uint256",
          "name": "tokenId",
          "type": "uint256"
        }
      ],
      "name": "getBatch",
      "outputs": [
        {
          "components": [
            {
              "internalType": "uint256",
              "name": "endId",
              "type": "uint256"
            },
            {
              "internalType": "string",
              "name": "baseURI",
              "type": "string"
            },
            {
              "internalType": "uint256",
              "name": "rarity",
              "type": "uint256"
            }
          ],
          "internalType": "struct Collection.Batch",
          "name": "",
          "type": "tuple"
        }
      ],
      "stateMutability": "view",
      "type": "function"
    },
    {
      "inputs": [
        {
          "internalType": "uint256",
          "name": "index",
          "type": "uint256"
        }
      ],
      "name": "getName",
      "outputs": [
        {
          "internalType": "string",
          "name": "",
          "type": "string"
        }
      ],
      "stateMutability": "view",
      "type": "function"
    },
    {
      "inputs": [
        {
          "internalType": "uint256",
          "name": "tokenId",
          "type": "uint256"
        }
      ],
      "name": "getRarity",
      "outputs": [
        {
          "internalType": "uint256",
          "name": "",
          "type": "uint256"
        }
      ],
      "stateMutability": "view",
      "type": "function"
    },
    {
      "inputs": [
        {
          "internalType": "bytes32",
          "name": "role",
          "type": "bytes32"
        }
      ],
      "name": "getRoleAdmin",
      "outputs": [
        {
          "internalType": "bytes32",
          "name": "",
          "type": "bytes32"
        }
      ],
      "stateMutability": "view",
      "type": "function"
    },
    {
      "inputs": [
        {
          "internalType": "uint256",
          "name": "saleStageIndex",
          "type": "uint256"
        }
      ],
      "name": "getSaleStage",
      "outputs": [
        {
          "internalType": "uint256",
          "name": "startTokens",
          "type": "uint256"
        },
        {
          "internalType": "uint256",
          "name": "endTokens",
          "type": "uint256"
        },
        {
          "internalType": "uint256",
          "name": "weiPerToken",
          "type": "uint256"
        }
      ],
      "stateMutability": "view",
      "type": "function"
    },
    {
      "inputs": [
        {
          "internalType": "uint256",
          "name": "index",
          "type": "uint256"
        }
      ],
      "name": "getSkill",
      "outputs": [
        {
          "internalType": "uint256",
          "name": "",
          "type": "uint256"
        }
      ],
      "stateMutability": "view",
      "type": "function"
    },
    {
      "inputs": [
        {
          "internalType": "uint256",
          "name": "tokens",
          "type": "uint256"
        }
      ],
      "name": "getTotalPriceFor",
      "outputs": [
        {
          "internalType": "uint256",
          "name": "",
          "type": "uint256"
        }
      ],
      "stateMutability": "view",
      "type": "function"
    },
    {
      "inputs": [
        {
          "internalType": "bytes32",
          "name": "role",
          "type": "bytes32"
        },
        {
          "internalType": "address",
          "name": "account",
          "type": "address"
        }
      ],
      "name": "grantRole",
      "outputs": [],
      "stateMutability": "nonpayable",
      "type": "function"
    },
    {
      "inputs": [
        {
          "internalType": "bytes32",
          "name": "role",
          "type": "bytes32"
        },
        {
          "internalType": "address",
          "name": "account",
          "type": "address"
        }
      ],
      "name": "hasRole",
      "outputs": [
        {
          "internalType": "bool",
          "name": "",
          "type": "bool"
        }
      ],
      "stateMutability": "view",
      "type": "function"
    },
    {
      "inputs": [
        {
          "internalType": "address",
          "name": "owner",
          "type": "address"
        },
        {
          "internalType": "address",
          "name": "operator",
          "type": "address"
        }
      ],
      "name": "isApprovedForAll",
      "outputs": [
        {
          "internalType": "bool",
          "name": "",
          "type": "bool"
        }
      ],
      "stateMutability": "view",
      "type": "function"
    },
    {
      "inputs": [],
      "name": "maxPurchaseSize",
      "outputs": [
        {
          "internalType": "uint256",
          "name": "",
          "type": "uint256"
        }
      ],
      "stateMutability": "view",
      "type": "function"
    },
    {
      "inputs": [],
      "name": "maxTotalSupply",
      "outputs": [
        {
          "internalType": "uint256",
          "name": "",
          "type": "uint256"
        }
      ],
      "stateMutability": "view",
      "type": "function"
    },
    {
      "inputs": [
        {
          "internalType": "address",
          "name": "to",
          "type": "address"
        },
        {
          "internalType": "uint256",
          "name": "nfts",
          "type": "uint256"
        }
      ],
      "name": "mintMultiple",
      "outputs": [],
      "stateMutability": "nonpayable",
      "type": "function"
    },
    {
      "inputs": [],
      "name": "name",
      "outputs": [
        {
          "internalType": "string",
          "name": "",
          "type": "string"
        }
      ],
      "stateMutability": "view",
      "type": "function"
    },
    {
      "inputs": [
        {
          "internalType": "uint256",
          "name": "tokenId",
          "type": "uint256"
        }
      ],
      "name": "ownerOf",
      "outputs": [
        {
          "internalType": "address",
          "name": "",
          "type": "address"
        }
      ],
      "stateMutability": "view",
      "type": "function"
    },
    {
      "inputs": [
        {
          "internalType": "bytes32",
          "name": "role",
          "type": "bytes32"
        },
        {
          "internalType": "address",
          "name": "account",
          "type": "address"
        }
      ],
      "name": "renounceRole",
      "outputs": [],
      "stateMutability": "nonpayable",
      "type": "function"
    },
    {
      "inputs": [
        {
          "internalType": "bytes32",
          "name": "role",
          "type": "bytes32"
        },
        {
          "internalType": "address",
          "name": "account",
          "type": "address"
        }
      ],
      "name": "revokeRole",
      "outputs": [],
      "stateMutability": "nonpayable",
      "type": "function"
    },
    {
      "inputs": [
        {
          "internalType": "address",
          "name": "from",
          "type": "address"
        },
        {
          "internalType": "address",
          "name": "to",
          "type": "address"
        },
        {
          "internalType": "uint256",
          "name": "tokenId",
          "type": "uint256"
        }
      ],
      "name": "safeTransferFrom",
      "outputs": [],
      "stateMutability": "nonpayable",
      "type": "function"
    },
    {
      "inputs": [
        {
          "internalType": "address",
          "name": "from",
          "type": "address"
        },
        {
          "internalType": "address",
          "name": "to",
          "type": "address"
        },
        {
          "internalType": "uint256",
          "name": "tokenId",
          "type": "uint256"
        },
        {
          "internalType": "bytes",
          "name": "_data",
          "type": "bytes"
        }
      ],
      "name": "safeTransferFrom",
      "outputs": [],
      "stateMutability": "nonpayable",
      "type": "function"
    },
    {
      "inputs": [],
      "name": "saleActive",
      "outputs": [
        {
          "internalType": "bool",
          "name": "",
          "type": "bool"
        }
      ],
      "stateMutability": "view",
      "type": "function"
    },
    {
      "inputs": [],
      "name": "saleStagesLength",
      "outputs": [
        {
          "internalType": "uint256",
          "name": "",
          "type": "uint256"
        }
      ],
      "stateMutability": "view",
      "type": "function"
    },
    {
      "inputs": [
        {
          "internalType": "address",
          "name": "operator",
          "type": "address"
        },
        {
          "internalType": "bool",
          "name": "approved",
          "type": "bool"
        }
      ],
      "name": "setApprovalForAll",
      "outputs": [],
      "stateMutability": "nonpayable",
      "type": "function"
    },
    {
      "inputs": [
        {
          "internalType": "uint256",
          "name": "rarity",
          "type": "uint256"
        }
      ],
      "name": "setDefaultRarity",
      "outputs": [],
      "stateMutability": "nonpayable",
      "type": "function"
    },
    {
      "inputs": [
        {
          "internalType": "string",
          "name": "uri",
          "type": "string"
        }
      ],
      "name": "setDefaultUri",
      "outputs": [],
      "stateMutability": "nonpayable",
      "type": "function"
    },
    {
      "inputs": [
        {
          "internalType": "uint256",
          "name": "newPurchaseSize",
          "type": "uint256"
        }
      ],
      "name": "setMaxPurchaseSize",
      "outputs": [],
      "stateMutability": "nonpayable",
      "type": "function"
    },
    {
      "inputs": [
        {
          "internalType": "uint256",
          "name": "id",
          "type": "uint256"
        },
        {
          "internalType": "string",
          "name": "newName",
          "type": "string"
        }
      ],
      "name": "setName",
      "outputs": [],
      "stateMutability": "nonpayable",
      "type": "function"
    },
    {
      "inputs": [
        {
          "internalType": "uint256",
          "name": "saleStageIndex",
          "type": "uint256"
        },
        {
          "internalType": "uint256",
          "name": "endTokens",
          "type": "uint256"
        },
        {
          "internalType": "uint256",
          "name": "weiPerToken",
          "type": "uint256"
        }
      ],
      "name": "setSaleStage",
      "outputs": [],
      "stateMutability": "nonpayable",
      "type": "function"
    },
    {
      "inputs": [
        {
          "internalType": "uint256",
          "name": "id",
          "type": "uint256"
        },
        {
          "internalType": "uint256",
          "name": "newSkill",
          "type": "uint256"
        }
      ],
      "name": "setSkill",
      "outputs": [],
      "stateMutability": "nonpayable",
      "type": "function"
    },
    {
      "inputs": [
        {
          "internalType": "address payable",
          "name": "newVault",
          "type": "address"
        }
      ],
      "name": "setVault",
      "outputs": [],
      "stateMutability": "nonpayable",
      "type": "function"
    },
    {
      "inputs": [],
      "name": "start",
      "outputs": [],
      "stateMutability": "nonpayable",
      "type": "function"
    },
    {
      "inputs": [],
      "name": "stop",
      "outputs": [],
      "stateMutability": "nonpayable",
      "type": "function"
    },
    {
      "inputs": [
        {
          "internalType": "bytes4",
          "name": "interfaceId",
          "type": "bytes4"
        }
      ],
      "name": "supportsInterface",
      "outputs": [
        {
          "internalType": "bool",
          "name": "",
          "type": "bool"
        }
      ],
      "stateMutability": "view",
      "type": "function"
    },
    {
      "inputs": [],
      "name": "symbol",
      "outputs": [
        {
          "internalType": "string",
          "name": "",
          "type": "string"
        }
      ],
      "stateMutability": "view",
      "type": "function"
    },
    {
      "inputs": [
        {
          "internalType": "uint256",
          "name": "index",
          "type": "uint256"
        }
      ],
      "name": "tokenByIndex",
      "outputs": [
        {
          "internalType": "uint256",
          "name": "",
          "type": "uint256"
        }
      ],
      "stateMutability": "view",
      "type": "function"
    },
    {
      "inputs": [
        {
          "internalType": "address",
          "name": "owner",
          "type": "address"
        },
        {
          "internalType": "uint256",
          "name": "index",
          "type": "uint256"
        }
      ],
      "name": "tokenOfOwnerByIndex",
      "outputs": [
        {
          "internalType": "uint256",
          "name": "",
          "type": "uint256"
        }
      ],
      "stateMutability": "view",
      "type": "function"
    },
    {
      "inputs": [
        {
          "internalType": "uint256",
          "name": "tokenId",
          "type": "uint256"
        }
      ],
      "name": "tokenURI",
      "outputs": [
        {
          "internalType": "string",
          "name": "",
          "type": "string"
        }
      ],
      "stateMutability": "view",
      "type": "function"
    },
    {
      "inputs": [],
      "name": "totalSupply",
      "outputs": [
        {
          "internalType": "uint256",
          "name": "",
          "type": "uint256"
        }
      ],
      "stateMutability": "view",
      "type": "function"
    },
    {
      "inputs": [
        {
          "internalType": "address",
          "name": "from",
          "type": "address"
        },
        {
          "internalType": "address",
          "name": "to",
          "type": "address"
        },
        {
          "internalType": "uint256",
          "name": "tokenId",
          "type": "uint256"
        }
      ],
      "name": "transferFrom",
      "outputs": [],
      "stateMutability": "nonpayable",
      "type": "function"
    },
    {
      "inputs": [],
      "name": "vault",
      "outputs": [
        {
          "internalType": "address payable",
          "name": "",
          "type": "address"
        }
      ],
      "stateMutability": "view",
      "type": "function"
    }
  ],
  "transactionHash": "0xe9c2c6b6123318523fa1237bab1b46a8e89504fdda917826a395deed05ae6d83",
  "args": [],
  "solcInputHash": "84e7c635783a0c19614f72f9c0d3cd83",
  "bytecode": "0x6080604052600d805460ff19169055600060105560146011553480156200002557600080fd5b506040805180820182526009815268437962657250756e6b60b81b60208083019182528351808501909452600384526221a82760e91b90840152815191929162000072916000916200030c565b508051620000889060019060208401906200030c565b506200009a9150600090503362000258565b620000c67f9aa164dc2052fa9a9eebee383f6617f557e14a8d068430567e50f1ac8348fdaa3362000258565b620000f27f28eb28c26cbbd48a6bfad016505ccf4a189452995f59d16217af8920961ed25c3362000258565b6200011e7f27a0624e64a794e52337524177801654db9a21fcd4c18d902036cf6ff01b01593362000258565b6200014a7fadb1f90fb043c84ed13cea91e76d7bc7af0bfa59ad8c7e6c623c30a52b8f20a63362000258565b620001767fde99de62ff13877bfb32892f85138aa338f091ce421c1d80a3ed7cbd389e80903362000258565b620001a27f0ed873f8f88e98a22713f460360c003876e6ccc2d975a1273a13ab57840b3ead3362000258565b620001ce7f9f2df0fed2c77648de5860a4cc508cd0818c85b8b8a1ab4ceeef8d981c8956a63362000258565b620001fa7f578801949f7fba7e10bb7de5b8b7390e8e7caf5866dab96df4a59b95497bfc0e3362000258565b620002267f353a39a17d3cf207ae9d7c37f85542d46b7264eb2c304b0943e66a7b54de5b273362000258565b620002527f39cd503a0b2eaee938f7f4ad3dbbc18b726de35cc452a7d4ad616cf09de523dd3362000258565b620003ef565b62000264828262000268565b5050565b6000828152600a602090815260408083206001600160a01b038516845290915290205460ff1662000264576000828152600a602090815260408083206001600160a01b03851684529091529020805460ff19166001179055620002c83390565b6001600160a01b0316816001600160a01b0316837f2f8788117e7eff1d82e926ec794901d17c78024a50270940304540a733656f0d60405160405180910390a45050565b8280546200031a90620003b2565b90600052602060002090601f0160209004810192826200033e576000855562000389565b82601f106200035957805160ff191683800117855562000389565b8280016001018555821562000389579182015b82811115620003895782518255916020019190600101906200036c565b50620003979291506200039b565b5090565b5b808211156200039757600081556001016200039c565b600181811c90821680620003c757607f821691505b60208210811415620003e957634e487b7160e01b600052602260045260246000fd5b50919050565b613daf80620003ff6000396000f3fe6080604052600436106103765760003560e01c80636817031b116101d1578063bd880fae11610102578063d96a094a116100a0578063eaf882ff1161006f578063eaf882ff14610b12578063ee77a14d14610b32578063fbfa77cf14610b66578063fe55932a14610b8657600080fd5b8063d96a094a14610a6d578063dd5b5a2e14610a80578063e5ca564814610ab4578063e985e9c514610ac957600080fd5b8063d06b1da8116100dc578063d06b1da8146109c5578063d5391393146109e5578063d547741f14610a19578063d57a46f614610a3957600080fd5b8063bd880fae14610963578063be9a655514610990578063c87b56dd146109a557600080fd5b8063a203f5fd1161016f578063a5515c3311610149578063a5515c33146108e3578063b3fa4a4c14610903578063b423f0a614610923578063b88d4fde1461094357600080fd5b8063a203f5fd1461087a578063a217fddf146108ae578063a22cb465146108c357600080fd5b806370a08231116101ab57806370a082311461080557806382dd1b1a1461082557806391d148541461084557806395d89b411461086557600080fd5b80636817031b146107ab57806368428a1b146107cb5780636b8ff574146107e557600080fd5b80632ab4d052116102ab5780634f1afc4e116102495780635ac44282116102235780635ac44282146106f65780636080eb5c146107235780636352211e14610757578063651d4d231461077757600080fd5b80634f1afc4e1461067b5780634f6ccce71461069b578063573aa7d5146106bb57600080fd5b806336568abe1161028557806336568abe146105fb57806342842e0e1461061b578063466a18de1461063b578063487586971461065b57600080fd5b80632ab4d052146105a65780632f2ff15d146105bb5780632f745c59146105db57600080fd5b80630f50d813116103185780631979db31116102f25780631979db31146104ee57806323b872dd14610522578063248a9ca31461054257806328cfc3051461057257600080fd5b80630f50d8131461048557806314b710ae146104b957806318160ddd146104d957600080fd5b806307da68f51161035457806307da68f5146103f6578063081812fc1461040d578063095ea7b3146104455780630da53ffb1461046557600080fd5b806301ffc9a71461037b57806306fdde03146103b0578063076736a2146103d2575b600080fd5b34801561038757600080fd5b5061039b61039636600461389b565b610ba6565b60405190151581526020015b60405180910390f35b3480156103bc57600080fd5b506103c5610bb7565b6040516103a79190613b11565b3480156103de57600080fd5b506103e860115481565b6040519081526020016103a7565b34801561040257600080fd5b5061040b610c49565b005b34801561041957600080fd5b5061042d61042836600461385f565b610c81565b6040516001600160a01b0390911681526020016103a7565b34801561045157600080fd5b5061040b610460366004613834565b610d1b565b34801561047157600080fd5b5061040b61048036600461394b565b610e31565b34801561049157600080fd5b506103e87f28eb28c26cbbd48a6bfad016505ccf4a189452995f59d16217af8920961ed25c81565b3480156104c557600080fd5b5061040b6104d436600461385f565b61102b565b3480156104e557600080fd5b506008546103e8565b3480156104fa57600080fd5b506103e87f0ed873f8f88e98a22713f460360c003876e6ccc2d975a1273a13ab57840b3ead81565b34801561052e57600080fd5b5061040b61053d366004613746565b61105c565b34801561054e57600080fd5b506103e861055d36600461385f565b6000908152600a602052604090206001015490565b34801561057e57600080fd5b506103e87f39cd503a0b2eaee938f7f4ad3dbbc18b726de35cc452a7d4ad616cf09de523dd81565b3480156105b257600080fd5b506010546103e8565b3480156105c757600080fd5b5061040b6105d6366004613877565b61108d565b3480156105e757600080fd5b506103e86105f6366004613834565b6110b3565b34801561060757600080fd5b5061040b610616366004613877565b611149565b34801561062757600080fd5b5061040b610636366004613746565b6111c7565b34801561064757600080fd5b5061040b6106563660046138d3565b6111e2565b34801561066757600080fd5b506103e861067636600461385f565b611220565b34801561068757600080fd5b5061040b6106963660046139ba565b611286565b3480156106a757600080fd5b506103e86106b636600461385f565b611503565b3480156106c757600080fd5b506106db6106d636600461385f565b6115a4565b604080519384526020840192909252908201526060016103a7565b34801561070257600080fd5b5061071661071136600461385f565b611723565b6040516103a79190613bc7565b34801561072f57600080fd5b506103e87f9aa164dc2052fa9a9eebee383f6617f557e14a8d068430567e50f1ac8348fdaa81565b34801561076357600080fd5b5061042d61077236600461385f565b611998565b34801561078357600080fd5b506103e87f353a39a17d3cf207ae9d7c37f85542d46b7264eb2c304b0943e66a7b54de5b2781565b3480156107b757600080fd5b5061040b6107c63660046136f2565b611a0f565b3480156107d757600080fd5b50600d5461039b9060ff1681565b3480156107f157600080fd5b506103c561080036600461385f565b611a5d565b34801561081157600080fd5b506103e86108203660046136f2565b611aff565b34801561083157600080fd5b5061040b610840366004613999565b611b86565b34801561085157600080fd5b5061039b610860366004613877565b611d97565b34801561087157600080fd5b506103c5611dc2565b34801561088657600080fd5b506103e87f578801949f7fba7e10bb7de5b8b7390e8e7caf5866dab96df4a59b95497bfc0e81565b3480156108ba57600080fd5b506103e8600081565b3480156108cf57600080fd5b5061040b6108de366004613803565b611dd1565b3480156108ef57600080fd5b506103e86108fe36600461385f565b611e96565b34801561090f57600080fd5b5061040b61091e366004613834565b611fe3565b34801561092f57600080fd5b5061040b61093e366004613999565b612018565b34801561094f57600080fd5b5061040b61095e366004613786565b612095565b34801561096f57600080fd5b506103e861097e36600461385f565b6000908152600c602052604090205490565b34801561099c57600080fd5b5061040b6120cd565b3480156109b157600080fd5b506103c56109c036600461385f565b6121be565b3480156109d157600080fd5b5061040b6109e036600461385f565b612277565b3480156109f157600080fd5b506103e87f9f2df0fed2c77648de5860a4cc508cd0818c85b8b8a1ab4ceeef8d981c8956a681565b348015610a2557600080fd5b5061040b610a34366004613877565b612353565b348015610a4557600080fd5b506103e87fde99de62ff13877bfb32892f85138aa338f091ce421c1d80a3ed7cbd389e809081565b61040b610a7b36600461385f565b612379565b348015610a8c57600080fd5b506103e87f27a0624e64a794e52337524177801654db9a21fcd4c18d902036cf6ff01b015981565b348015610ac057600080fd5b50600f546103e8565b348015610ad557600080fd5b5061039b610ae436600461370e565b6001600160a01b03918216600090815260056020908152604080832093909416825291909152205460ff1690565b348015610b1e57600080fd5b5061040b610b2d36600461385f565b612545565b348015610b3e57600080fd5b506103e87fadb1f90fb043c84ed13cea91e76d7bc7af0bfa59ad8c7e6c623c30a52b8f20a681565b348015610b7257600080fd5b5060145461042d906001600160a01b031681565b348015610b9257600080fd5b5061040b610ba1366004613906565b612576565b6000610bb1826125f1565b92915050565b606060008054610bc690613ca8565b80601f0160208091040260200160405190810160405280929190818152602001828054610bf290613ca8565b8015610c3f5780601f10610c1457610100808354040283529160200191610c3f565b820191906000526020600020905b815481529060010190602001808311610c2257829003601f168201915b5050505050905090565b7f27a0624e64a794e52337524177801654db9a21fcd4c18d902036cf6ff01b0159610c748133612616565b50600d805460ff19169055565b6000818152600260205260408120546001600160a01b0316610cff5760405162461bcd60e51b815260206004820152602c60248201527f4552433732313a20617070726f76656420717565727920666f72206e6f6e657860448201526b34b9ba32b73a103a37b5b2b760a11b60648201526084015b60405180910390fd5b506000908152600460205260409020546001600160a01b031690565b6000610d2682611998565b9050806001600160a01b0316836001600160a01b03161415610d945760405162461bcd60e51b815260206004820152602160248201527f4552433732313a20617070726f76616c20746f2063757272656e74206f776e656044820152603960f91b6064820152608401610cf6565b336001600160a01b0382161480610db05750610db08133610ae4565b610e225760405162461bcd60e51b815260206004820152603860248201527f4552433732313a20617070726f76652063616c6c6572206973206e6f74206f7760448201527f6e6572206e6f7220617070726f76656420666f7220616c6c00000000000000006064820152608401610cf6565b610e2c838361267a565b505050565b7f28eb28c26cbbd48a6bfad016505ccf4a189452995f59d16217af8920961ed25c610e5c8133612616565b600e5484610ebf5760405162461bcd60e51b815260206004820152602a60248201527f61646442617463683a20626174636820656e64546f6b656e73206d757374206260448201526965206e6f6e2d7a65726f60b01b6064820152608401610cf6565b8015610f8457600e610ed2600183613c4e565b81548110610ef057634e487b7160e01b600052603260045260246000fd5b9060005260206000209060030201600001548511610f845760405162461bcd60e51b815260206004820152604560248201527f61646442617463683a206261746368456e644964206d7573742062652067726560448201527f61746572207468616e2074686520656e644964206f6620746865206c617374206064820152640c4c2e8c6d60db1b608482015260a401610cf6565b604080516060810182528681526020808201878152928201869052600e8054600181018255600091909152825160039091027fbb7b4a454dc3493923482f07822329ed19e8244eff582cc204f8554c3620c3fd81019182559351805193949193611017937fbb7b4a454dc3493923482f07822329ed19e8244eff582cc204f8554c3620c3fe90930192919091019061358e565b506040820151816002015550505050505050565b7f0ed873f8f88e98a22713f460360c003876e6ccc2d975a1273a13ab57840b3ead6110568133612616565b50601155565b61106633826126e8565b6110825760405162461bcd60e51b8152600401610cf690613b76565b610e2c8383836127df565b6000828152600a60205260409020600101546110a98133612616565b610e2c838361298a565b60006110be83611aff565b82106111205760405162461bcd60e51b815260206004820152602b60248201527f455243373231456e756d657261626c653a206f776e657220696e646578206f7560448201526a74206f6620626f756e647360a81b6064820152608401610cf6565b506001600160a01b03919091166000908152600660209081526040808320938352929052205490565b6001600160a01b03811633146111b95760405162461bcd60e51b815260206004820152602f60248201527f416363657373436f6e74726f6c3a2063616e206f6e6c792072656e6f756e636560448201526e103937b632b9903337b91039b2b63360891b6064820152608401610cf6565b6111c38282612a10565b5050565b610e2c83838360405180602001604052806000815250612095565b7f578801949f7fba7e10bb7de5b8b7390e8e7caf5866dab96df4a59b95497bfc0e61120d8133612616565b8151610e2c90601290602085019061358e565b600e80546000919061123490600190613c4e565b8154811061125257634e487b7160e01b600052603260045260246000fd5b90600052602060002090600302016000015482111561127357505060135490565b61127c82611723565b6040015192915050565b7f9aa164dc2052fa9a9eebee383f6617f557e14a8d068430567e50f1ac8348fdaa6112b18133612616565b600f548085106113225760405162461bcd60e51b815260206004820152603660248201527f73657453616c6553746167653a2073616c6553746167652077697468207468696044820152751cc81a5b99195e08191bd95cc81b9bdd08195e1a5cdd60521b6064820152608401610cf6565b600083116113855760405162461bcd60e51b815260206004820152602a60248201527f73657453616c6553746167653a20776569506572546f6b656e206d757374206260448201526965206e6f6e2d7a65726f60b01b6064820152608401610cf6565b6000611390866115a4565b505090508085116114095760405162461bcd60e51b815260206004820152603f60248201527f73657453616c6553746167653a206e657720656e64546f6b656e73206d75737460448201527f206265206d6f7265207468616e20696e2070726576696f7573207374616765006064820152608401610cf6565b81611415876001612a77565b10156114a657600061142b6106d6886001612a77565b509150508086116114a45760405162461bcd60e51b815260206004820152603b60248201527f73657453616c6553746167653a206e657720656e64546f6b656e73206d75737460448201527f206265206c657373207468616e20696e206e65787420737461676500000000006064820152608401610cf6565b505b604051806040016040528086815260200185815250600f87815481106114dc57634e487b7160e01b600052603260045260246000fd5b60009182526020918290208351600290920201908155910151600190910155505050505050565b600061150e60085490565b82106115715760405162461bcd60e51b815260206004820152602c60248201527f455243373231456e756d657261626c653a20676c6f62616c20696e646578206f60448201526b7574206f6620626f756e647360a01b6064820152608401610cf6565b6008828154811061159257634e487b7160e01b600052603260045260246000fd5b90600052602060002001549050919050565b600080600080600f80549050116115fd5760405162461bcd60e51b815260206004820152601760248201527f67657453616c6553746167653a206e6f207374616765730000000000000000006044820152606401610cf6565b83611660576000600f858154811061162557634e487b7160e01b600052603260045260246000fd5b6000918252602080832060408051808201909152600290930201805480845260019091015492909101829052919550909350915061171c9050565b6000600f61166f866001612a83565b8154811061168d57634e487b7160e01b600052603260045260246000fd5b90600052602060002090600202016040518060400160405290816000820154815260200160018201548152505090506000600f86815481106116df57634e487b7160e01b600052603260045260246000fd5b60009182526020918290206040805180820190915260029092020180548083526001909101549190920181905292519550935090915061171c9050565b9193909250565b61174760405180606001604052806000815260200160608152602001600081525090565b600e5461178d5760405162461bcd60e51b815260206004820152601460248201527367657442617463683a206e6f206261746368657360601b6044820152606401610cf6565b600e805461179d90600190613c4e565b815481106117bb57634e487b7160e01b600052603260045260246000fd5b906000526020600020906003020160000154821061184c5760405162461bcd60e51b815260206004820152604260248201527f67657442617463683a20746f6b656e4964206d757374206265206c657373207460448201527f68656e206c61737420746f6b656e20696420696e206261746368657320617272606482015261617960f01b608482015260a401610cf6565b60005b600e5481101561199257600e818154811061187a57634e487b7160e01b600052603260045260246000fd5b90600052602060002090600302016000015483111561189857611980565b600e81815481106118b957634e487b7160e01b600052603260045260246000fd5b9060005260206000209060030201604051806060016040529081600082015481526020016001820180546118ec90613ca8565b80601f016020809104026020016040519081016040528092919081815260200182805461191890613ca8565b80156119655780601f1061193a57610100808354040283529160200191611965565b820191906000526020600020905b81548152906001019060200180831161194857829003601f168201915b50505050508152602001600282015481525050915050919050565b8061198a81613cdd565b91505061184f565b50919050565b6000818152600260205260408120546001600160a01b031680610bb15760405162461bcd60e51b815260206004820152602960248201527f4552433732313a206f776e657220717565727920666f72206e6f6e657869737460448201526832b73a103a37b5b2b760b91b6064820152608401610cf6565b7f353a39a17d3cf207ae9d7c37f85542d46b7264eb2c304b0943e66a7b54de5b27611a3a8133612616565b50601480546001600160a01b0319166001600160a01b0392909216919091179055565b6000818152600b60205260409020805460609190611a7a90613ca8565b80601f0160208091040260200160405190810160405280929190818152602001828054611aa690613ca8565b8015611af35780601f10611ac857610100808354040283529160200191611af3565b820191906000526020600020905b815481529060010190602001808311611ad657829003601f168201915b50505050509050919050565b60006001600160a01b038216611b6a5760405162461bcd60e51b815260206004820152602a60248201527f4552433732313a2062616c616e636520717565727920666f7220746865207a65604482015269726f206164647265737360b01b6064820152608401610cf6565b506001600160a01b031660009081526003602052604090205490565b7f9aa164dc2052fa9a9eebee383f6617f557e14a8d068430567e50f1ac8348fdaa611bb18133612616565b60008211611c145760405162461bcd60e51b815260206004820152602a60248201527f61646453616c6553746167653a20776569506572546f6b656e206d757374206260448201526965206e6f6e2d7a65726f60b01b6064820152608401610cf6565b600f5480611c8e5760008411611c895760405162461bcd60e51b815260206004820152603460248201527f61646453616c6553746167653a20666972737420737461676520656e64546f6b604482015273656e73206d757374206265206e6f6e2d7a65726f60601b6064820152608401610cf6565b611d19565b6000611c9e6106d6836001612a83565b50915050808511611d175760405162461bcd60e51b815260206004820152603a60248201527f61646453616c6553746167653a206e657720656e64546f6b656e73206d75737460448201527f206265206d6f7265207468616e2063757272656e74206c6173740000000000006064820152608401610cf6565b505b50506040805180820190915282815260208101918252600f805460018101825560009190915290517f8d1108e10bcb7c27dddfc02ed9d693a074039d026cf4ea4240b40f7d581ac80260029092029182015590517f8d1108e10bcb7c27dddfc02ed9d693a074039d026cf4ea4240b40f7d581ac80390910155601055565b6000918252600a602090815260408084206001600160a01b0393909316845291905290205460ff1690565b606060018054610bc690613ca8565b6001600160a01b038216331415611e2a5760405162461bcd60e51b815260206004820152601960248201527f4552433732313a20617070726f766520746f2063616c6c6572000000000000006044820152606401610cf6565b3360008181526005602090815260408083206001600160a01b03871680855290835292819020805460ff191686151590811790915590519081529192917f17307eab39ab6107e8899845ad3d59bd9653f200f220920489ca2b5937696c31910160405180910390a35050565b600f5460009081611ea660085490565b90506000849050600080611ecd604051806040016040528060008152602001600081525090565b60005b86811015611fd657600f8181548110611ef957634e487b7160e01b600052603260045260246000fd5b90600052602060002090600202016040518060400160405290816000820154815260200160018201548152505091508160000151861115611f3957611fc4565b8151611f459087612a83565b92508415611fbf5782851115611f9557611f76611f6f836020015185612a8f90919063ffffffff16565b8590612a77565b9350611f828584612a83565b9450611f8e8684612a77565b9550611fc4565b611faf611f6f836020015187612a8f90919063ffffffff16565b600095509350611f8e8686612a77565b611fd6565b80611fce81613cdd565b915050611ed0565b5091979650505050505050565b7f9f2df0fed2c77648de5860a4cc508cd0818c85b8b8a1ab4ceeef8d981c8956a661200e8133612616565b610e2c8383612a9b565b7fde99de62ff13877bfb32892f85138aa338f091ce421c1d80a3ed7cbd389e80906120438133612616565b6000838152600c6020526040908190208390555183907fbc118caef5b83a02ad5f988c3550437e355b0c3e999d65e0652177448b97c886906120889085815260200190565b60405180910390a2505050565b61209f33836126e8565b6120bb5760405162461bcd60e51b8152600401610cf690613b76565b6120c784848484612bce565b50505050565b7f27a0624e64a794e52337524177801654db9a21fcd4c18d902036cf6ff01b01596120f88133612616565b60006012805461210790613ca8565b9050116121565760405162461bcd60e51b815260206004820152601f60248201527f73746172743a205f64656661756c7455726920697320756e646566696e6564006044820152606401610cf6565b6014546001600160a01b03166121ae5760405162461bcd60e51b815260206004820152601960248201527f73746172743a205661756c7420697320756e646566696e6564000000000000006044820152606401610cf6565b50600d805460ff19166001179055565b600e8054606091906121d290600190613c4e565b815481106121f057634e487b7160e01b600052603260045260246000fd5b9060005260206000209060030201600001548211156122165760128054611a7a90613ca8565b600061222183611723565b60200151905060008151116122455760405180602001604052806000815250612270565b8061224f84612c01565b604051602001612260929190613a11565b6040516020818303038152906040525b9392505050565b7f28eb28c26cbbd48a6bfad016505ccf4a189452995f59d16217af8920961ed25c6122a28133612616565b600e5482106123045760405162461bcd60e51b815260206004820152602860248201527f64656c65746542617463683a20696e646578206f7574206f66206261746368656044820152670e640d8cadccee8d60c31b6064820152608401610cf6565b600e828154811061232557634e487b7160e01b600052603260045260246000fd5b600091825260208220600390910201818155906123456001830182613612565b600282016000905550505050565b6000828152600a602052604090206001015461236f8133612616565b610e2c8383612a10565b6014546001600160a01b03166123d15760405162461bcd60e51b815260206004820152601760248201527f6275793a205661756c7420697320756e646566696e65640000000000000000006044820152606401610cf6565b6011548111156124495760405162461bcd60e51b815260206004820152603b60248201527f6275793a20596f752063616e206e6f7420627579206d6f7265207468616e206d60448201527f6178507572636861736553697a65204e465473206174206f6e636500000000006064820152608401610cf6565b3461245382611e96565b146124ac5760405162461bcd60e51b8152602060048201526024808201527f6275793a2045746865722076616c75652073656e74206973206e6f7420636f726044820152631c9958dd60e21b6064820152608401610cf6565b600d5460ff166124fe5760405162461bcd60e51b815260206004820152601760248201527f6275793a2053616c65206973206e6f74206163746976650000000000000000006044820152606401610cf6565b6014546040516001600160a01b03909116903480156108fc02916000818181858888f19350505050158015612537573d6000803e3d6000fd5b506125423382612a9b565b50565b7f39cd503a0b2eaee938f7f4ad3dbbc18b726de35cc452a7d4ad616cf09de523dd6125708133612616565b50601355565b7fadb1f90fb043c84ed13cea91e76d7bc7af0bfa59ad8c7e6c623c30a52b8f20a66125a18133612616565b6000838152600b6020908152604090912083516125c09285019061358e565b50827f7e632a301794d8d4a81ea7e20f37d1947158d36e66403af04ba85dd194b66f1b836040516120889190613b11565b60006001600160e01b03198216637965db0b60e01b1480610bb15750610bb182612d1b565b6126208282611d97565b6111c357612638816001600160a01b03166014612d40565b612643836020612d40565b604051602001612654929190613a5f565b60408051601f198184030181529082905262461bcd60e51b8252610cf691600401613b11565b600081815260046020526040902080546001600160a01b0319166001600160a01b03841690811790915581906126af82611998565b6001600160a01b03167f8c5be1e5ebec7d5bd14f71427d1e84f3dd0314c0f7b2291e5b200ac8c7c3b92560405160405180910390a45050565b6000818152600260205260408120546001600160a01b03166127615760405162461bcd60e51b815260206004820152602c60248201527f4552433732313a206f70657261746f7220717565727920666f72206e6f6e657860448201526b34b9ba32b73a103a37b5b2b760a11b6064820152608401610cf6565b600061276c83611998565b9050806001600160a01b0316846001600160a01b031614806127a75750836001600160a01b031661279c84610c81565b6001600160a01b0316145b806127d757506001600160a01b0380821660009081526005602090815260408083209388168352929052205460ff165b949350505050565b826001600160a01b03166127f282611998565b6001600160a01b03161461285a5760405162461bcd60e51b815260206004820152602960248201527f4552433732313a207472616e73666572206f6620746f6b656e2074686174206960448201526839903737ba1037bbb760b91b6064820152608401610cf6565b6001600160a01b0382166128bc5760405162461bcd60e51b8152602060048201526024808201527f4552433732313a207472616e7366657220746f20746865207a65726f206164646044820152637265737360e01b6064820152608401610cf6565b6128c7838383612f22565b6128d260008261267a565b6001600160a01b03831660009081526003602052604081208054600192906128fb908490613c4e565b90915550506001600160a01b0382166000908152600360205260408120805460019290612929908490613c03565b909155505060008181526002602052604080822080546001600160a01b0319166001600160a01b0386811691821790925591518493918716917fddf252ad1be2c89b69c2b068fc378daa952ba7f163c4a11628f55a4df523b3ef91a4505050565b6129948282611d97565b6111c3576000828152600a602090815260408083206001600160a01b03851684529091529020805460ff191660011790556129cc3390565b6001600160a01b0316816001600160a01b0316837f2f8788117e7eff1d82e926ec794901d17c78024a50270940304540a733656f0d60405160405180910390a45050565b612a1a8282611d97565b156111c3576000828152600a602090815260408083206001600160a01b0385168085529252808320805460ff1916905551339285917ff6391f5c32d9c69d2a47ea670b442974b53935d1edc7fd64eb21e047a839171b9190a45050565b60006122708284613c03565b60006122708284613c4e565b60006122708284613c2f565b60105460085410612aee5760405162461bcd60e51b815260206004820152601b60248201527f6275793a2053616c652068617320616c726561647920656e64656400000000006044820152606401610cf6565b60008111612b365760405162461bcd60e51b815260206004820152601560248201527406275793a206e6674732063616e6e6f74206265203605c1b6044820152606401610cf6565b601054612b4c82612b4660085490565b90612a77565b1115612b9a5760405162461bcd60e51b815260206004820152601c60248201527f6275793a2045786365656473205f6d6178546f74616c537570706c79000000006044820152606401610cf6565b60005b81811015610e2c576000612baf612f8f565b9050612bbb8482613024565b5080612bc681613cdd565b915050612b9d565b612bd98484846127df565b612be58484848461303e565b6120c75760405162461bcd60e51b8152600401610cf690613b24565b606081612c255750506040805180820190915260018152600360fc1b602082015290565b8160005b8115612c4f5780612c3981613cdd565b9150612c489050600a83613c1b565b9150612c29565b60008167ffffffffffffffff811115612c7857634e487b7160e01b600052604160045260246000fd5b6040519080825280601f01601f191660200182016040528015612ca2576020820181803683370190505b5090505b84156127d757612cb7600183613c4e565b9150612cc4600a86613cf8565b612ccf906030613c03565b60f81b818381518110612cf257634e487b7160e01b600052603260045260246000fd5b60200101906001600160f81b031916908160001a905350612d14600a86613c1b565b9450612ca6565b60006001600160e01b0319821663780e9d6360e01b1480610bb15750610bb18261314b565b60606000612d4f836002613c2f565b612d5a906002613c03565b67ffffffffffffffff811115612d8057634e487b7160e01b600052604160045260246000fd5b6040519080825280601f01601f191660200182016040528015612daa576020820181803683370190505b509050600360fc1b81600081518110612dd357634e487b7160e01b600052603260045260246000fd5b60200101906001600160f81b031916908160001a905350600f60fb1b81600181518110612e1057634e487b7160e01b600052603260045260246000fd5b60200101906001600160f81b031916908160001a9053506000612e34846002613c2f565b612e3f906001613c03565b90505b6001811115612ed3576f181899199a1a9b1b9c1cb0b131b232b360811b85600f1660108110612e8157634e487b7160e01b600052603260045260246000fd5b1a60f81b828281518110612ea557634e487b7160e01b600052603260045260246000fd5b60200101906001600160f81b031916908160001a90535060049490941c93612ecc81613c91565b9050612e42565b5083156122705760405162461bcd60e51b815260206004820181905260248201527f537472696e67733a20686578206c656e67746820696e73756666696369656e746044820152606401610cf6565b612f2d83838361319b565b6001600160a01b038316610e2c576010546008541115610e2c5760405162461bcd60e51b815260206004820152601e60248201527f436f6c6c656374696f6e3a206d6178537570706c7920616368696576656400006044820152606401610cf6565b600080601054425a612fa2600143613c4e565b6040805160208101949094528301919091524060608201526080016040516020818303038152906040528051906020012060001c612fe09190613cf8565b90505b6000818152600260205260409020546001600160a01b03161561301f5761300b600182613c03565b9050601054811061301a575060005b612fe3565b919050565b6111c3828260405180602001604052806000815250613253565b60006001600160a01b0384163b1561314057604051630a85bd0160e11b81526001600160a01b0385169063150b7a0290613082903390899088908890600401613ad4565b602060405180830381600087803b15801561309c57600080fd5b505af19250505080156130cc575060408051601f3d908101601f191682019092526130c9918101906138b7565b60015b613126573d8080156130fa576040519150601f19603f3d011682016040523d82523d6000602084013e6130ff565b606091505b50805161311e5760405162461bcd60e51b8152600401610cf690613b24565b805181602001fd5b6001600160e01b031916630a85bd0160e11b1490506127d7565b506001949350505050565b60006001600160e01b031982166380ac58cd60e01b148061317c57506001600160e01b03198216635b5e139f60e01b145b80610bb157506301ffc9a760e01b6001600160e01b0319831614610bb1565b6001600160a01b0383166131f6576131f181600880546000838152600960205260408120829055600182018355919091527ff3f7a9fe364faab93b216da50a3214154f22a0a2b415b23a84c8169e8b636ee30155565b613219565b816001600160a01b0316836001600160a01b031614613219576132198382613286565b6001600160a01b03821661323057610e2c81613323565b826001600160a01b0316826001600160a01b031614610e2c57610e2c82826133fc565b61325d8383613440565b61326a600084848461303e565b610e2c5760405162461bcd60e51b8152600401610cf690613b24565b6000600161329384611aff565b61329d9190613c4e565b6000838152600760205260409020549091508082146132f0576001600160a01b03841660009081526006602090815260408083208584528252808320548484528184208190558352600790915290208190555b5060009182526007602090815260408084208490556001600160a01b039094168352600681528383209183525290812055565b60085460009061333590600190613c4e565b6000838152600960205260408120546008805493945090928490811061336b57634e487b7160e01b600052603260045260246000fd5b90600052602060002001549050806008838154811061339a57634e487b7160e01b600052603260045260246000fd5b60009182526020808320909101929092558281526009909152604080822084905585825281205560088054806133e057634e487b7160e01b600052603160045260246000fd5b6001900381819060005260206000200160009055905550505050565b600061340783611aff565b6001600160a01b039093166000908152600660209081526040808320868452825280832085905593825260079052919091209190915550565b6001600160a01b0382166134965760405162461bcd60e51b815260206004820181905260248201527f4552433732313a206d696e7420746f20746865207a65726f20616464726573736044820152606401610cf6565b6000818152600260205260409020546001600160a01b0316156134fb5760405162461bcd60e51b815260206004820152601c60248201527f4552433732313a20746f6b656e20616c7265616479206d696e746564000000006044820152606401610cf6565b61350760008383612f22565b6001600160a01b0382166000908152600360205260408120805460019290613530908490613c03565b909155505060008181526002602052604080822080546001600160a01b0319166001600160a01b03861690811790915590518392907fddf252ad1be2c89b69c2b068fc378daa952ba7f163c4a11628f55a4df523b3ef908290a45050565b82805461359a90613ca8565b90600052602060002090601f0160209004810192826135bc5760008555613602565b82601f106135d557805160ff1916838001178555613602565b82800160010185558215613602579182015b828111156136025782518255916020019190600101906135e7565b5061360e929150613648565b5090565b50805461361e90613ca8565b6000825580601f1061362e575050565b601f01602090049060005260206000209081019061254291905b5b8082111561360e5760008155600101613649565b600067ffffffffffffffff8084111561367857613678613d38565b604051601f8501601f19908116603f011681019082821181831017156136a0576136a0613d38565b816040528093508581528686860111156136b957600080fd5b858560208301376000602087830101525050509392505050565b600082601f8301126136e3578081fd5b6122708383356020850161365d565b600060208284031215613703578081fd5b813561227081613d4e565b60008060408385031215613720578081fd5b823561372b81613d4e565b9150602083013561373b81613d4e565b809150509250929050565b60008060006060848603121561375a578081fd5b833561376581613d4e565b9250602084013561377581613d4e565b929592945050506040919091013590565b6000806000806080858703121561379b578081fd5b84356137a681613d4e565b935060208501356137b681613d4e565b925060408501359150606085013567ffffffffffffffff8111156137d8578182fd5b8501601f810187136137e8578182fd5b6137f78782356020840161365d565b91505092959194509250565b60008060408385031215613815578182fd5b823561382081613d4e565b91506020830135801515811461373b578182fd5b60008060408385031215613846578182fd5b823561385181613d4e565b946020939093013593505050565b600060208284031215613870578081fd5b5035919050565b60008060408385031215613889578182fd5b82359150602083013561373b81613d4e565b6000602082840312156138ac578081fd5b813561227081613d63565b6000602082840312156138c8578081fd5b815161227081613d63565b6000602082840312156138e4578081fd5b813567ffffffffffffffff8111156138fa578182fd5b6127d7848285016136d3565b60008060408385031215613918578081fd5b82359150602083013567ffffffffffffffff811115613935578182fd5b613941858286016136d3565b9150509250929050565b60008060006060848603121561395f578081fd5b83359250602084013567ffffffffffffffff81111561397c578182fd5b613988868287016136d3565b925050604084013590509250925092565b600080604083850312156139ab578182fd5b50508035926020909101359150565b6000806000606084860312156139ce578081fd5b505081359360208301359350604090920135919050565b600081518084526139fd816020860160208601613c65565b601f01601f19169290920160200192915050565b60008351613a23818460208801613c65565b602f60f81b9083019081528351613a41816001840160208801613c65565b64173539b7b760d91b60019290910191820152600601949350505050565b7f416363657373436f6e74726f6c3a206163636f756e7420000000000000000000815260008351613a97816017850160208801613c65565b7001034b99036b4b9b9b4b733903937b6329607d1b6017918401918201528351613ac8816028840160208801613c65565b01602801949350505050565b6001600160a01b0385811682528416602082015260408101839052608060608201819052600090613b07908301846139e5565b9695505050505050565b60208152600061227060208301846139e5565b60208082526032908201527f4552433732313a207472616e7366657220746f206e6f6e20455243373231526560408201527131b2b4bb32b91034b6b83632b6b2b73a32b960711b606082015260800190565b60208082526031908201527f4552433732313a207472616e736665722063616c6c6572206973206e6f74206f6040820152701ddb995c881b9bdc88185c1c1c9bdd9959607a1b606082015260800190565b60208152815160208201526000602083015160606040840152613bed60808401826139e5565b9050604084015160608401528091505092915050565b60008219821115613c1657613c16613d0c565b500190565b600082613c2a57613c2a613d22565b500490565b6000816000190483118215151615613c4957613c49613d0c565b500290565b600082821015613c6057613c60613d0c565b500390565b60005b83811015613c80578181015183820152602001613c68565b838111156120c75750506000910152565b600081613ca057613ca0613d0c565b506000190190565b600181811c90821680613cbc57607f821691505b6020821081141561199257634e487b7160e01b600052602260045260246000fd5b6000600019821415613cf157613cf1613d0c565b5060010190565b600082613d0757613d07613d22565b500690565b634e487b7160e01b600052601160045260246000fd5b634e487b7160e01b600052601260045260246000fd5b634e487b7160e01b600052604160045260246000fd5b6001600160a01b038116811461254257600080fd5b6001600160e01b03198116811461254257600080fdfea264697066735822122019e61f805c8c77b5019e1dfbbba45d14233cfc655625c663927b8234bef6999464736f6c63430008040033",
  "devdoc": {
    "kind": "dev",
    "methods": {
      "approve(address,uint256)": {
        "details": "See {IERC721-approve}."
      },
      "balanceOf(address)": {
        "details": "See {IERC721-balanceOf}."
      },
      "getApproved(uint256)": {
        "details": "See {IERC721-getApproved}."
      },
      "getName(uint256)": {
        "details": "Returns name of the NFT at index"
      },
      "getRarity(uint256)": {
        "details": "Returns rarity of the NFT at token Id"
      },
      "getRoleAdmin(bytes32)": {
        "details": "Returns the admin role that controls `role`. See {grantRole} and {revokeRole}. To change a role's admin, use {_setRoleAdmin}."
      },
      "getSkill(uint256)": {
        "details": "Returns skill of the NFT at index"
      },
      "grantRole(bytes32,address)": {
        "details": "Grants `role` to `account`. If `account` had not been already granted `role`, emits a {RoleGranted} event. Requirements: - the caller must have ``role``'s admin role."
      },
      "hasRole(bytes32,address)": {
        "details": "Returns `true` if `account` has been granted `role`."
      },
      "isApprovedForAll(address,address)": {
        "details": "See {IERC721-isApprovedForAll}."
      },
      "name()": {
        "details": "See {IERC721Metadata-name}."
      },
      "ownerOf(uint256)": {
        "details": "See {IERC721-ownerOf}."
      },
      "renounceRole(bytes32,address)": {
        "details": "Revokes `role` from the calling account. Roles are often managed via {grantRole} and {revokeRole}: this function's purpose is to provide a mechanism for accounts to lose their privileges if they are compromised (such as when a trusted device is misplaced). If the calling account had been granted `role`, emits a {RoleRevoked} event. Requirements: - the caller must be `account`."
      },
      "revokeRole(bytes32,address)": {
        "details": "Revokes `role` from `account`. If `account` had been granted `role`, emits a {RoleRevoked} event. Requirements: - the caller must have ``role``'s admin role."
      },
      "safeTransferFrom(address,address,uint256)": {
        "details": "See {IERC721-safeTransferFrom}."
      },
      "safeTransferFrom(address,address,uint256,bytes)": {
        "details": "See {IERC721-safeTransferFrom}."
      },
      "setApprovalForAll(address,bool)": {
        "details": "See {IERC721-setApprovalForAll}."
      },
      "setDefaultRarity(uint256)": {
        "details": "Set defaultRarity."
      },
      "setDefaultUri(string)": {
        "details": "Set defaultUri."
      },
      "setMaxPurchaseSize(uint256)": {
        "details": "Change max purchase size."
      },
      "setName(uint256,string)": {
        "details": "Change token name"
      },
      "setSkill(uint256,uint256)": {
        "details": "Change token skill"
      },
      "setVault(address)": {
        "details": "Change vault."
      },
      "start()": {
        "details": "Starts sale"
      },
      "stop()": {
        "details": "Stops sale"
      },
      "supportsInterface(bytes4)": {
        "details": "See {IERC165-supportsInterface}."
      },
      "symbol()": {
        "details": "See {IERC721Metadata-symbol}."
      },
      "tokenByIndex(uint256)": {
        "details": "See {IERC721Enumerable-tokenByIndex}."
      },
      "tokenOfOwnerByIndex(address,uint256)": {
        "details": "See {IERC721Enumerable-tokenOfOwnerByIndex}."
      },
      "totalSupply()": {
        "details": "See {IERC721Enumerable-totalSupply}."
      },
      "transferFrom(address,address,uint256)": {
        "details": "See {IERC721-transferFrom}."
      }
    },
    "version": 1
  },
  "userdoc": {
    "kind": "user",
    "methods": {
      "addBatch(uint256,string,uint256)": {
        "notice": "Add tokens batch to batches array"
      },
      "addSaleStage(uint256,uint256)": {
        "notice": "Adds new sale stage with given params at the end of `saleStages array`."
      },
      "buy(uint256)": {
        "notice": "Method to purchase and get random available NFTs."
      },
      "deleteBatch(uint256)": {
        "notice": "Removes batch at the given index"
      },
      "getBatch(uint256)": {
        "notice": "Return token batch URI"
      },
      "getSaleStage(uint256)": {
        "notice": "Returns info about sale stage with given index."
      },
      "getTotalPriceFor(uint256)": {
        "notice": "Returns summary price for given number of tokens."
      },
      "maxTotalSupply()": {
        "notice": "Returns current `_maxTotalSupply` value."
      },
      "mintMultiple(address,uint256)": {
        "notice": "Mint a set of random NFTs without purchase (for MINTER_ROLE only)."
      },
      "saleStagesLength()": {
        "notice": "Returns current `_saleStages` array length."
      },
      "setSaleStage(uint256,uint256,uint256)": {
        "notice": "Rewrites sale stage properties with given index."
      },
      "tokenURI(uint256)": {
        "notice": "Return tokenURI"
      }
    },
    "version": 1
  },
  "storageLayout": {
    "storage": [
      {
        "astId": 393,
        "contract": "contracts/Collection.sol:Collection",
        "label": "_name",
        "offset": 0,
        "slot": "0",
        "type": "t_string_storage"
      },
      {
        "astId": 395,
        "contract": "contracts/Collection.sol:Collection",
        "label": "_symbol",
        "offset": 0,
        "slot": "1",
        "type": "t_string_storage"
      },
      {
        "astId": 399,
        "contract": "contracts/Collection.sol:Collection",
        "label": "_owners",
        "offset": 0,
        "slot": "2",
        "type": "t_mapping(t_uint256,t_address)"
      },
      {
        "astId": 403,
        "contract": "contracts/Collection.sol:Collection",
        "label": "_balances",
        "offset": 0,
        "slot": "3",
        "type": "t_mapping(t_address,t_uint256)"
      },
      {
        "astId": 407,
        "contract": "contracts/Collection.sol:Collection",
        "label": "_tokenApprovals",
        "offset": 0,
        "slot": "4",
        "type": "t_mapping(t_uint256,t_address)"
      },
      {
        "astId": 413,
        "contract": "contracts/Collection.sol:Collection",
        "label": "_operatorApprovals",
        "offset": 0,
        "slot": "5",
        "type": "t_mapping(t_address,t_mapping(t_address,t_bool))"
      },
      {
        "astId": 1334,
        "contract": "contracts/Collection.sol:Collection",
        "label": "_ownedTokens",
        "offset": 0,
        "slot": "6",
        "type": "t_mapping(t_address,t_mapping(t_uint256,t_uint256))"
      },
      {
        "astId": 1338,
        "contract": "contracts/Collection.sol:Collection",
        "label": "_ownedTokensIndex",
        "offset": 0,
        "slot": "7",
        "type": "t_mapping(t_uint256,t_uint256)"
      },
      {
        "astId": 1341,
        "contract": "contracts/Collection.sol:Collection",
        "label": "_allTokens",
        "offset": 0,
        "slot": "8",
        "type": "t_array(t_uint256)dyn_storage"
      },
      {
        "astId": 1345,
        "contract": "contracts/Collection.sol:Collection",
        "label": "_allTokensIndex",
        "offset": 0,
        "slot": "9",
        "type": "t_mapping(t_uint256,t_uint256)"
      },
      {
        "astId": 62,
        "contract": "contracts/Collection.sol:Collection",
        "label": "_roles",
        "offset": 0,
        "slot": "10",
        "type": "t_mapping(t_bytes32,t_struct(RoleData)57_storage)"
      },
      {
        "astId": 2611,
        "contract": "contracts/Collection.sol:Collection",
        "label": "_tokenName",
        "offset": 0,
        "slot": "11",
        "type": "t_mapping(t_uint256,t_string_storage)"
      },
      {
        "astId": 2615,
        "contract": "contracts/Collection.sol:Collection",
        "label": "_tokenSkill",
        "offset": 0,
        "slot": "12",
        "type": "t_mapping(t_uint256,t_uint256)"
      },
      {
        "astId": 2618,
        "contract": "contracts/Collection.sol:Collection",
        "label": "saleActive",
        "offset": 0,
        "slot": "13",
        "type": "t_bool"
      },
      {
        "astId": 2640,
        "contract": "contracts/Collection.sol:Collection",
        "label": "_batches",
        "offset": 0,
        "slot": "14",
        "type": "t_array(t_struct(Batch)2636_storage)dyn_storage"
      },
      {
        "astId": 2644,
        "contract": "contracts/Collection.sol:Collection",
        "label": "_saleStages",
        "offset": 0,
        "slot": "15",
        "type": "t_array(t_struct(SaleStage)2629_storage)dyn_storage"
      },
      {
        "astId": 2647,
        "contract": "contracts/Collection.sol:Collection",
        "label": "_maxTotalSupply",
        "offset": 0,
        "slot": "16",
        "type": "t_uint256"
      },
      {
        "astId": 2650,
        "contract": "contracts/Collection.sol:Collection",
        "label": "maxPurchaseSize",
        "offset": 0,
        "slot": "17",
        "type": "t_uint256"
      },
      {
        "astId": 2652,
        "contract": "contracts/Collection.sol:Collection",
        "label": "_defaultUri",
        "offset": 0,
        "slot": "18",
        "type": "t_string_storage"
      },
      {
        "astId": 2654,
        "contract": "contracts/Collection.sol:Collection",
        "label": "_defaultRarity",
        "offset": 0,
        "slot": "19",
        "type": "t_uint256"
      },
      {
        "astId": 2706,
        "contract": "contracts/Collection.sol:Collection",
        "label": "vault",
        "offset": 0,
        "slot": "20",
        "type": "t_address_payable"
      }
    ],
    "types": {
      "t_address": {
        "encoding": "inplace",
        "label": "address",
        "numberOfBytes": "20"
      },
      "t_address_payable": {
        "encoding": "inplace",
        "label": "address payable",
        "numberOfBytes": "20"
      },
      "t_array(t_struct(Batch)2636_storage)dyn_storage": {
        "base": "t_struct(Batch)2636_storage",
        "encoding": "dynamic_array",
        "label": "struct Collection.Batch[]",
        "numberOfBytes": "32"
      },
      "t_array(t_struct(SaleStage)2629_storage)dyn_storage": {
        "base": "t_struct(SaleStage)2629_storage",
        "encoding": "dynamic_array",
        "label": "struct Collection.SaleStage[]",
        "numberOfBytes": "32"
      },
      "t_array(t_uint256)dyn_storage": {
        "base": "t_uint256",
        "encoding": "dynamic_array",
        "label": "uint256[]",
        "numberOfBytes": "32"
      },
      "t_bool": {
        "encoding": "inplace",
        "label": "bool",
        "numberOfBytes": "1"
      },
      "t_bytes32": {
        "encoding": "inplace",
        "label": "bytes32",
        "numberOfBytes": "32"
      },
      "t_mapping(t_address,t_bool)": {
        "encoding": "mapping",
        "key": "t_address",
        "label": "mapping(address => bool)",
        "numberOfBytes": "32",
        "value": "t_bool"
      },
      "t_mapping(t_address,t_mapping(t_address,t_bool))": {
        "encoding": "mapping",
        "key": "t_address",
        "label": "mapping(address => mapping(address => bool))",
        "numberOfBytes": "32",
        "value": "t_mapping(t_address,t_bool)"
      },
      "t_mapping(t_address,t_mapping(t_uint256,t_uint256))": {
        "encoding": "mapping",
        "key": "t_address",
        "label": "mapping(address => mapping(uint256 => uint256))",
        "numberOfBytes": "32",
        "value": "t_mapping(t_uint256,t_uint256)"
      },
      "t_mapping(t_address,t_uint256)": {
        "encoding": "mapping",
        "key": "t_address",
        "label": "mapping(address => uint256)",
        "numberOfBytes": "32",
        "value": "t_uint256"
      },
      "t_mapping(t_bytes32,t_struct(RoleData)57_storage)": {
        "encoding": "mapping",
        "key": "t_bytes32",
        "label": "mapping(bytes32 => struct AccessControl.RoleData)",
        "numberOfBytes": "32",
        "value": "t_struct(RoleData)57_storage"
      },
      "t_mapping(t_uint256,t_address)": {
        "encoding": "mapping",
        "key": "t_uint256",
        "label": "mapping(uint256 => address)",
        "numberOfBytes": "32",
        "value": "t_address"
      },
      "t_mapping(t_uint256,t_string_storage)": {
        "encoding": "mapping",
        "key": "t_uint256",
        "label": "mapping(uint256 => string)",
        "numberOfBytes": "32",
        "value": "t_string_storage"
      },
      "t_mapping(t_uint256,t_uint256)": {
        "encoding": "mapping",
        "key": "t_uint256",
        "label": "mapping(uint256 => uint256)",
        "numberOfBytes": "32",
        "value": "t_uint256"
      },
      "t_string_storage": {
        "encoding": "bytes",
        "label": "string",
        "numberOfBytes": "32"
      },
      "t_struct(Batch)2636_storage": {
        "encoding": "inplace",
        "label": "struct Collection.Batch",
        "members": [
          {
            "astId": 2631,
            "contract": "contracts/Collection.sol:Collection",
            "label": "endId",
            "offset": 0,
            "slot": "0",
            "type": "t_uint256"
          },
          {
            "astId": 2633,
            "contract": "contracts/Collection.sol:Collection",
            "label": "baseURI",
            "offset": 0,
            "slot": "1",
            "type": "t_string_storage"
          },
          {
            "astId": 2635,
            "contract": "contracts/Collection.sol:Collection",
            "label": "rarity",
            "offset": 0,
            "slot": "2",
            "type": "t_uint256"
          }
        ],
        "numberOfBytes": "96"
      },
      "t_struct(RoleData)57_storage": {
        "encoding": "inplace",
        "label": "struct AccessControl.RoleData",
        "members": [
          {
            "astId": 54,
            "contract": "contracts/Collection.sol:Collection",
            "label": "members",
            "offset": 0,
            "slot": "0",
            "type": "t_mapping(t_address,t_bool)"
          },
          {
            "astId": 56,
            "contract": "contracts/Collection.sol:Collection",
            "label": "adminRole",
            "offset": 0,
            "slot": "1",
            "type": "t_bytes32"
          }
        ],
        "numberOfBytes": "64"
      },
      "t_struct(SaleStage)2629_storage": {
        "encoding": "inplace",
        "label": "struct Collection.SaleStage",
        "members": [
          {
            "astId": 2626,
            "contract": "contracts/Collection.sol:Collection",
            "label": "endTokens",
            "offset": 0,
            "slot": "0",
            "type": "t_uint256"
          },
          {
            "astId": 2628,
            "contract": "contracts/Collection.sol:Collection",
            "label": "weiPerToken",
            "offset": 0,
            "slot": "1",
            "type": "t_uint256"
          }
        ],
        "numberOfBytes": "64"
      },
      "t_uint256": {
        "encoding": "inplace",
        "label": "uint256",
        "numberOfBytes": "32"
      }
    }
  }
}