{
  "address": "0xe162f7f5f4833Bb93777e8C1E3e20607447A21cf",
  "abi": [
    {
      "inputs": [],
      "stateMutability": "nonpayable",
      "type": "constructor"
    },
    {
      "anonymous": false,
      "inputs": [
        {
          "indexed": true,
          "internalType": "address",
          "name": "owner",
          "type": "address"
        },
        {
          "indexed": true,
          "internalType": "address",
          "name": "approved",
          "type": "address"
        },
        {
          "indexed": true,
          "internalType": "uint256",
          "name": "tokenId",
          "type": "uint256"
        }
      ],
      "name": "Approval",
      "type": "event"
    },
    {
      "anonymous": false,
      "inputs": [
        {
          "indexed": true,
          "internalType": "address",
          "name": "owner",
          "type": "address"
        },
        {
          "indexed": true,
          "internalType": "address",
          "name": "operator",
          "type": "address"
        },
        {
          "indexed": false,
          "internalType": "bool",
          "name": "approved",
          "type": "bool"
        }
      ],
      "name": "ApprovalForAll",
      "type": "event"
    },
    {
      "anonymous": false,
      "inputs": [
        {
          "indexed": true,
          "internalType": "uint256",
          "name": "index",
          "type": "uint256"
        },
        {
          "indexed": false,
          "internalType": "string",
          "name": "newName",
          "type": "string"
        }
      ],
      "name": "NameChange",
      "type": "event"
    },
    {
      "anonymous": false,
      "inputs": [
        {
          "indexed": true,
          "internalType": "bytes32",
          "name": "role",
          "type": "bytes32"
        },
        {
          "indexed": true,
          "internalType": "bytes32",
          "name": "previousAdminRole",
          "type": "bytes32"
        },
        {
          "indexed": true,
          "internalType": "bytes32",
          "name": "newAdminRole",
          "type": "bytes32"
        }
      ],
      "name": "RoleAdminChanged",
      "type": "event"
    },
    {
      "anonymous": false,
      "inputs": [
        {
          "indexed": true,
          "internalType": "bytes32",
          "name": "role",
          "type": "bytes32"
        },
        {
          "indexed": true,
          "internalType": "address",
          "name": "account",
          "type": "address"
        },
        {
          "indexed": true,
          "internalType": "address",
          "name": "sender",
          "type": "address"
        }
      ],
      "name": "RoleGranted",
      "type": "event"
    },
    {
      "anonymous": false,
      "inputs": [
        {
          "indexed": true,
          "internalType": "bytes32",
          "name": "role",
          "type": "bytes32"
        },
        {
          "indexed": true,
          "internalType": "address",
          "name": "account",
          "type": "address"
        },
        {
          "indexed": true,
          "internalType": "address",
          "name": "sender",
          "type": "address"
        }
      ],
      "name": "RoleRevoked",
      "type": "event"
    },
    {
      "anonymous": false,
      "inputs": [
        {
          "indexed": true,
          "internalType": "uint256",
          "name": "index",
          "type": "uint256"
        },
        {
          "indexed": false,
          "internalType": "uint256",
          "name": "newSkill",
          "type": "uint256"
        }
      ],
      "name": "SkillChange",
      "type": "event"
    },
    {
      "anonymous": false,
      "inputs": [
        {
          "indexed": true,
          "internalType": "address",
          "name": "from",
          "type": "address"
        },
        {
          "indexed": true,
          "internalType": "address",
          "name": "to",
          "type": "address"
        },
        {
          "indexed": true,
          "internalType": "uint256",
          "name": "tokenId",
          "type": "uint256"
        }
      ],
      "name": "Transfer",
      "type": "event"
    },
    {
      "inputs": [],
      "name": "BATCH_MANAGER_ROLE",
      "outputs": [
        {
          "internalType": "bytes32",
          "name": "",
          "type": "bytes32"
        }
      ],
      "stateMutability": "view",
      "type": "function"
    },
    {
      "inputs": [],
      "name": "DEFAULT_ADMIN_ROLE",
      "outputs": [
        {
          "internalType": "bytes32",
          "name": "",
          "type": "bytes32"
        }
      ],
      "stateMutability": "view",
      "type": "function"
    },
    {
      "inputs": [],
      "name": "MAX_PURCHASE_SIZE_SETTER_ROLE",
      "outputs": [
        {
          "internalType": "bytes32",
          "name": "",
          "type": "bytes32"
        }
      ],
      "stateMutability": "view",
      "type": "function"
    },
    {
      "inputs": [],
      "name": "NAME_SETTER_ROLE",
      "outputs": [
        {
          "internalType": "bytes32",
          "name": "",
          "type": "bytes32"
        }
      ],
      "stateMutability": "view",
      "type": "function"
    },
    {
      "inputs": [],
      "name": "SALE_ADMIN_ROLE",
      "outputs": [
        {
          "internalType": "bytes32",
          "name": "",
          "type": "bytes32"
        }
      ],
      "stateMutability": "view",
      "type": "function"
    },
    {
      "inputs": [],
      "name": "SALE_STAGES_MANAGER_ROLE",
      "outputs": [
        {
          "internalType": "bytes32",
          "name": "",
          "type": "bytes32"
        }
      ],
      "stateMutability": "view",
      "type": "function"
    },
    {
      "inputs": [],
      "name": "SKILL_SETTER_ROLE",
      "outputs": [
        {
          "internalType": "bytes32",
          "name": "",
          "type": "bytes32"
        }
      ],
      "stateMutability": "view",
      "type": "function"
    },
    {
      "inputs": [
        {
          "internalType": "uint256",
          "name": "batchEndId",
          "type": "uint256"
        },
        {
          "internalType": "string",
          "name": "baseURI",
          "type": "string"
        }
      ],
      "name": "addBatch",
      "outputs": [],
      "stateMutability": "nonpayable",
      "type": "function"
    },
    {
      "inputs": [
        {
          "internalType": "uint256",
          "name": "endTokens",
          "type": "uint256"
        },
        {
          "internalType": "uint256",
          "name": "weiPerToken",
          "type": "uint256"
        }
      ],
      "name": "addSaleStage",
      "outputs": [],
      "stateMutability": "nonpayable",
      "type": "function"
    },
    {
      "inputs": [
        {
          "internalType": "address",
          "name": "to",
          "type": "address"
        },
        {
          "internalType": "uint256",
          "name": "tokenId",
          "type": "uint256"
        }
      ],
      "name": "approve",
      "outputs": [],
      "stateMutability": "nonpayable",
      "type": "function"
    },
    {
      "inputs": [
        {
          "internalType": "address",
          "name": "owner",
          "type": "address"
        }
      ],
      "name": "balanceOf",
      "outputs": [
        {
          "internalType": "uint256",
          "name": "",
          "type": "uint256"
        }
      ],
      "stateMutability": "view",
      "type": "function"
    },
    {
      "inputs": [
        {
          "internalType": "uint256",
          "name": "nfts",
          "type": "uint256"
        }
      ],
      "name": "buy",
      "outputs": [],
      "stateMutability": "payable",
      "type": "function"
    },
    {
      "inputs": [
        {
          "internalType": "uint256",
          "name": "batchIndex",
          "type": "uint256"
        }
      ],
      "name": "deleteBatch",
      "outputs": [],
      "stateMutability": "nonpayable",
      "type": "function"
    },
    {
      "inputs": [
        {
          "internalType": "uint256",
          "name": "tokenId",
          "type": "uint256"
        }
      ],
      "name": "getApproved",
      "outputs": [
        {
          "internalType": "address",
          "name": "",
          "type": "address"
        }
      ],
      "stateMutability": "view",
      "type": "function"
    },
    {
      "inputs": [
        {
          "internalType": "uint256",
          "name": "tokenId",
          "type": "uint256"
        }
      ],
      "name": "getBatch",
      "outputs": [
        {
          "components": [
            {
              "internalType": "uint256",
              "name": "endId",
              "type": "uint256"
            },
            {
              "internalType": "string",
              "name": "baseURI",
              "type": "string"
            }
          ],
          "internalType": "struct Collection.Batch",
          "name": "",
          "type": "tuple"
        }
      ],
      "stateMutability": "view",
      "type": "function"
    },
    {
      "inputs": [
        {
          "internalType": "uint256",
          "name": "index",
          "type": "uint256"
        }
      ],
      "name": "getName",
      "outputs": [
        {
          "internalType": "string",
          "name": "",
          "type": "string"
        }
      ],
      "stateMutability": "view",
      "type": "function"
    },
    {
      "inputs": [
        {
          "internalType": "bytes32",
          "name": "role",
          "type": "bytes32"
        }
      ],
      "name": "getRoleAdmin",
      "outputs": [
        {
          "internalType": "bytes32",
          "name": "",
          "type": "bytes32"
        }
      ],
      "stateMutability": "view",
      "type": "function"
    },
    {
      "inputs": [
        {
          "internalType": "uint256",
          "name": "saleStageIndex",
          "type": "uint256"
        }
      ],
      "name": "getSaleStage",
      "outputs": [
        {
          "internalType": "uint256",
          "name": "startTokens",
          "type": "uint256"
        },
        {
          "internalType": "uint256",
          "name": "endTokens",
          "type": "uint256"
        },
        {
          "internalType": "uint256",
          "name": "weiPerToken",
          "type": "uint256"
        }
      ],
      "stateMutability": "view",
      "type": "function"
    },
    {
      "inputs": [
        {
          "internalType": "uint256",
          "name": "index",
          "type": "uint256"
        }
      ],
      "name": "getSkill",
      "outputs": [
        {
          "internalType": "uint256",
          "name": "",
          "type": "uint256"
        }
      ],
      "stateMutability": "view",
      "type": "function"
    },
    {
      "inputs": [
        {
          "internalType": "uint256",
          "name": "tokens",
          "type": "uint256"
        }
      ],
      "name": "getTotalPriceFor",
      "outputs": [
        {
          "internalType": "uint256",
          "name": "",
          "type": "uint256"
        }
      ],
      "stateMutability": "view",
      "type": "function"
    },
    {
      "inputs": [
        {
          "internalType": "bytes32",
          "name": "role",
          "type": "bytes32"
        },
        {
          "internalType": "address",
          "name": "account",
          "type": "address"
        }
      ],
      "name": "grantRole",
      "outputs": [],
      "stateMutability": "nonpayable",
      "type": "function"
    },
    {
      "inputs": [
        {
          "internalType": "bytes32",
          "name": "role",
          "type": "bytes32"
        },
        {
          "internalType": "address",
          "name": "account",
          "type": "address"
        }
      ],
      "name": "hasRole",
      "outputs": [
        {
          "internalType": "bool",
          "name": "",
          "type": "bool"
        }
      ],
      "stateMutability": "view",
      "type": "function"
    },
    {
      "inputs": [
        {
          "internalType": "address",
          "name": "owner",
          "type": "address"
        },
        {
          "internalType": "address",
          "name": "operator",
          "type": "address"
        }
      ],
      "name": "isApprovedForAll",
      "outputs": [
        {
          "internalType": "bool",
          "name": "",
          "type": "bool"
        }
      ],
      "stateMutability": "view",
      "type": "function"
    },
    {
      "inputs": [],
      "name": "maxPurchaseSize",
      "outputs": [
        {
          "internalType": "uint256",
          "name": "",
          "type": "uint256"
        }
      ],
      "stateMutability": "view",
      "type": "function"
    },
    {
      "inputs": [],
      "name": "maxTotalSupply",
      "outputs": [
        {
          "internalType": "uint256",
          "name": "",
          "type": "uint256"
        }
      ],
      "stateMutability": "view",
      "type": "function"
    },
    {
      "inputs": [],
      "name": "name",
      "outputs": [
        {
          "internalType": "string",
          "name": "",
          "type": "string"
        }
      ],
      "stateMutability": "view",
      "type": "function"
    },
    {
      "inputs": [
        {
          "internalType": "uint256",
          "name": "tokenId",
          "type": "uint256"
        }
      ],
      "name": "ownerOf",
      "outputs": [
        {
          "internalType": "address",
          "name": "",
          "type": "address"
        }
      ],
      "stateMutability": "view",
      "type": "function"
    },
    {
      "inputs": [
        {
          "internalType": "bytes32",
          "name": "role",
          "type": "bytes32"
        },
        {
          "internalType": "address",
          "name": "account",
          "type": "address"
        }
      ],
      "name": "renounceRole",
      "outputs": [],
      "stateMutability": "nonpayable",
      "type": "function"
    },
    {
      "inputs": [
        {
          "internalType": "bytes32",
          "name": "role",
          "type": "bytes32"
        },
        {
          "internalType": "address",
          "name": "account",
          "type": "address"
        }
      ],
      "name": "revokeRole",
      "outputs": [],
      "stateMutability": "nonpayable",
      "type": "function"
    },
    {
      "inputs": [
        {
          "internalType": "address",
          "name": "from",
          "type": "address"
        },
        {
          "internalType": "address",
          "name": "to",
          "type": "address"
        },
        {
          "internalType": "uint256",
          "name": "tokenId",
          "type": "uint256"
        }
      ],
      "name": "safeTransferFrom",
      "outputs": [],
      "stateMutability": "nonpayable",
      "type": "function"
    },
    {
      "inputs": [
        {
          "internalType": "address",
          "name": "from",
          "type": "address"
        },
        {
          "internalType": "address",
          "name": "to",
          "type": "address"
        },
        {
          "internalType": "uint256",
          "name": "tokenId",
          "type": "uint256"
        },
        {
          "internalType": "bytes",
          "name": "_data",
          "type": "bytes"
        }
      ],
      "name": "safeTransferFrom",
      "outputs": [],
      "stateMutability": "nonpayable",
      "type": "function"
    },
    {
      "inputs": [],
      "name": "saleActive",
      "outputs": [
        {
          "internalType": "bool",
          "name": "",
          "type": "bool"
        }
      ],
      "stateMutability": "view",
      "type": "function"
    },
    {
      "inputs": [],
      "name": "saleStagesLength",
      "outputs": [
        {
          "internalType": "uint256",
          "name": "",
          "type": "uint256"
        }
      ],
      "stateMutability": "view",
      "type": "function"
    },
    {
      "inputs": [
        {
          "internalType": "address",
          "name": "operator",
          "type": "address"
        },
        {
          "internalType": "bool",
          "name": "approved",
          "type": "bool"
        }
      ],
      "name": "setApprovalForAll",
      "outputs": [],
      "stateMutability": "nonpayable",
      "type": "function"
    },
    {
      "inputs": [
        {
          "internalType": "uint256",
          "name": "newPurchaseSize",
          "type": "uint256"
        }
      ],
      "name": "setMaxPurchaseSize",
      "outputs": [],
      "stateMutability": "nonpayable",
      "type": "function"
    },
    {
      "inputs": [
        {
          "internalType": "uint256",
          "name": "id",
          "type": "uint256"
        },
        {
          "internalType": "string",
          "name": "newName",
          "type": "string"
        }
      ],
      "name": "setName",
      "outputs": [],
      "stateMutability": "nonpayable",
      "type": "function"
    },
    {
      "inputs": [
        {
          "internalType": "uint256",
          "name": "saleStageIndex",
          "type": "uint256"
        },
        {
          "internalType": "uint256",
          "name": "endTokens",
          "type": "uint256"
        },
        {
          "internalType": "uint256",
          "name": "weiPerToken",
          "type": "uint256"
        }
      ],
      "name": "setSaleStage",
      "outputs": [],
      "stateMutability": "nonpayable",
      "type": "function"
    },
    {
      "inputs": [
        {
          "internalType": "uint256",
          "name": "id",
          "type": "uint256"
        },
        {
          "internalType": "uint256",
          "name": "newSkill",
          "type": "uint256"
        }
      ],
      "name": "setSkill",
      "outputs": [],
      "stateMutability": "nonpayable",
      "type": "function"
    },
    {
      "inputs": [],
      "name": "start",
      "outputs": [],
      "stateMutability": "nonpayable",
      "type": "function"
    },
    {
      "inputs": [],
      "name": "stop",
      "outputs": [],
      "stateMutability": "nonpayable",
      "type": "function"
    },
    {
      "inputs": [
        {
          "internalType": "bytes4",
          "name": "interfaceId",
          "type": "bytes4"
        }
      ],
      "name": "supportsInterface",
      "outputs": [
        {
          "internalType": "bool",
          "name": "",
          "type": "bool"
        }
      ],
      "stateMutability": "view",
      "type": "function"
    },
    {
      "inputs": [],
      "name": "symbol",
      "outputs": [
        {
          "internalType": "string",
          "name": "",
          "type": "string"
        }
      ],
      "stateMutability": "view",
      "type": "function"
    },
    {
      "inputs": [
        {
          "internalType": "uint256",
          "name": "index",
          "type": "uint256"
        }
      ],
      "name": "tokenByIndex",
      "outputs": [
        {
          "internalType": "uint256",
          "name": "",
          "type": "uint256"
        }
      ],
      "stateMutability": "view",
      "type": "function"
    },
    {
      "inputs": [
        {
          "internalType": "address",
          "name": "owner",
          "type": "address"
        },
        {
          "internalType": "uint256",
          "name": "index",
          "type": "uint256"
        }
      ],
      "name": "tokenOfOwnerByIndex",
      "outputs": [
        {
          "internalType": "uint256",
          "name": "",
          "type": "uint256"
        }
      ],
      "stateMutability": "view",
      "type": "function"
    },
    {
      "inputs": [
        {
          "internalType": "uint256",
          "name": "tokenId",
          "type": "uint256"
        }
      ],
      "name": "tokenURI",
      "outputs": [
        {
          "internalType": "string",
          "name": "",
          "type": "string"
        }
      ],
      "stateMutability": "view",
      "type": "function"
    },
    {
      "inputs": [],
      "name": "totalSupply",
      "outputs": [
        {
          "internalType": "uint256",
          "name": "",
          "type": "uint256"
        }
      ],
      "stateMutability": "view",
      "type": "function"
    },
    {
      "inputs": [
        {
          "internalType": "address",
          "name": "from",
          "type": "address"
        },
        {
          "internalType": "address",
          "name": "to",
          "type": "address"
        },
        {
          "internalType": "uint256",
          "name": "tokenId",
          "type": "uint256"
        }
      ],
      "name": "transferFrom",
      "outputs": [],
      "stateMutability": "nonpayable",
      "type": "function"
    }
  ],
  "transactionHash": "0xaea5413edce0f223bccfb9a6f6787ae11d5a398664c291868708894f1c967d02",
  "args": [],
  "solcInputHash": "a016aa9f8bf27ca3693fd5292328d5e4",
  "bytecode": "0x6080604052600d805460ff19169055600060105560146011553480156200002557600080fd5b506040805180820182526009815268437962657250756e6b60b81b60208083019182528351808501909452600384526221a82760e91b90840152815191929162000072916000916200025c565b508051620000889060019060208401906200025c565b506200009a91506000905033620001a8565b620000c67f9aa164dc2052fa9a9eebee383f6617f557e14a8d068430567e50f1ac8348fdaa33620001a8565b620000f27f28eb28c26cbbd48a6bfad016505ccf4a189452995f59d16217af8920961ed25c33620001a8565b6200011e7f27a0624e64a794e52337524177801654db9a21fcd4c18d902036cf6ff01b015933620001a8565b6200014a7fadb1f90fb043c84ed13cea91e76d7bc7af0bfa59ad8c7e6c623c30a52b8f20a633620001a8565b620001767fde99de62ff13877bfb32892f85138aa338f091ce421c1d80a3ed7cbd389e809033620001a8565b620001a27f0ed873f8f88e98a22713f460360c003876e6ccc2d975a1273a13ab57840b3ead33620001a8565b6200033f565b620001b48282620001b8565b5050565b6000828152600a602090815260408083206001600160a01b038516845290915290205460ff16620001b4576000828152600a602090815260408083206001600160a01b03851684529091529020805460ff19166001179055620002183390565b6001600160a01b0316816001600160a01b0316837f2f8788117e7eff1d82e926ec794901d17c78024a50270940304540a733656f0d60405160405180910390a45050565b8280546200026a9062000302565b90600052602060002090601f0160209004810192826200028e5760008555620002d9565b82601f10620002a957805160ff1916838001178555620002d9565b82800160010185558215620002d9579182015b82811115620002d9578251825591602001919060010190620002bc565b50620002e7929150620002eb565b5090565b5b80821115620002e75760008155600101620002ec565b600181811c908216806200031757607f821691505b602082108114156200033957634e487b7160e01b600052602260045260246000fd5b50919050565b6136f7806200034f6000396000f3fe6080604052600436106102885760003560e01c806368428a1b1161015a578063bd880fae116100c1578063d96a094a1161007a578063d96a094a1461082f578063dd5b5a2e14610842578063e5ca564814610876578063e985e9c51461088b578063ee77a14d146108d4578063fe55932a1461090857600080fd5b8063bd880fae14610759578063be9a655514610786578063c87b56dd1461079b578063d06b1da8146107bb578063d547741f146107db578063d57a46f6146107fb57600080fd5b806395d89b411161011357806395d89b41146106af578063a217fddf146106c4578063a22cb465146106d9578063a5515c33146106f9578063b423f0a614610719578063b88d4fde1461073957600080fd5b806368428a1b146105f55780636b8ff5741461060f57806370a082311461062f57806382dd1b1a1461064f5780638d07df8f1461066f57806391d148541461068f57600080fd5b8063248a9ca3116101fe5780634f1afc4e116101b75780634f1afc4e146104f95780634f6ccce714610519578063573aa7d5146105395780635ac44282146105745780636080eb5c146105a15780636352211e146105d557600080fd5b8063248a9ca3146104345780632ab4d052146104645780632f2ff15d146104795780632f745c591461049957806336568abe146104b957806342842e0e146104d957600080fd5b8063095ea7b311610250578063095ea7b3146103575780630f50d8131461037757806314b710ae146103ab57806318160ddd146103cb5780631979db31146103e057806323b872dd1461041457600080fd5b806301ffc9a71461028d57806306fdde03146102c2578063076736a2146102e457806307da68f514610308578063081812fc1461031f575b600080fd5b34801561029957600080fd5b506102ad6102a836600461327d565b610928565b60405190151581526020015b60405180910390f35b3480156102ce57600080fd5b506102d7610939565b6040516102b99190613485565b3480156102f057600080fd5b506102fa60115481565b6040519081526020016102b9565b34801561031457600080fd5b5061031d6109cb565b005b34801561032b57600080fd5b5061033f61033a366004613243565b610a03565b6040516001600160a01b0390911681526020016102b9565b34801561036357600080fd5b5061031d61037236600461321a565b610a9d565b34801561038357600080fd5b506102fa7f28eb28c26cbbd48a6bfad016505ccf4a189452995f59d16217af8920961ed25c81565b3480156103b757600080fd5b5061031d6103c6366004613243565b610bb3565b3480156103d757600080fd5b506008546102fa565b3480156103ec57600080fd5b506102fa7f0ed873f8f88e98a22713f460360c003876e6ccc2d975a1273a13ab57840b3ead81565b34801561042057600080fd5b5061031d61042f36600461312c565b610be4565b34801561044057600080fd5b506102fa61044f366004613243565b6000908152600a602052604090206001015490565b34801561047057600080fd5b506010546102fa565b34801561048557600080fd5b5061031d61049436600461325b565b610c15565b3480156104a557600080fd5b506102fa6104b436600461321a565b610c3b565b3480156104c557600080fd5b5061031d6104d436600461325b565b610cd1565b3480156104e557600080fd5b5061031d6104f436600461312c565b610d4f565b34801561050557600080fd5b5061031d61051436600461332e565b610d6a565b34801561052557600080fd5b506102fa610534366004613243565b610fe7565b34801561054557600080fd5b50610559610554366004613243565b611088565b604080519384526020840192909252908201526060016102b9565b34801561058057600080fd5b5061059461058f366004613243565b611207565b6040516102b9919061353b565b3480156105ad57600080fd5b506102fa7f9aa164dc2052fa9a9eebee383f6617f557e14a8d068430567e50f1ac8348fdaa81565b3480156105e157600080fd5b5061033f6105f0366004613243565b611463565b34801561060157600080fd5b50600d546102ad9060ff1681565b34801561061b57600080fd5b506102d761062a366004613243565b6114da565b34801561063b57600080fd5b506102fa61064a3660046130e0565b61157c565b34801561065b57600080fd5b5061031d61066a36600461330d565b611603565b34801561067b57600080fd5b5061031d61068a3660046132b5565b611814565b34801561069b57600080fd5b506102ad6106aa36600461325b565b6119f7565b3480156106bb57600080fd5b506102d7611a22565b3480156106d057600080fd5b506102fa600081565b3480156106e557600080fd5b5061031d6106f43660046131e0565b611a31565b34801561070557600080fd5b506102fa610714366004613243565b611af6565b34801561072557600080fd5b5061031d61073436600461330d565b611c43565b34801561074557600080fd5b5061031d610754366004613167565b611cc0565b34801561076557600080fd5b506102fa610774366004613243565b6000908152600c602052604090205490565b34801561079257600080fd5b5061031d611cf8565b3480156107a757600080fd5b506102d76107b6366004613243565b611d33565b3480156107c757600080fd5b5061031d6107d6366004613243565b611d96565b3480156107e757600080fd5b5061031d6107f636600461325b565b611e64565b34801561080757600080fd5b506102fa7fde99de62ff13877bfb32892f85138aa338f091ce421c1d80a3ed7cbd389e809081565b61031d61083d366004613243565b611e8a565b34801561084e57600080fd5b506102fa7f27a0624e64a794e52337524177801654db9a21fcd4c18d902036cf6ff01b015981565b34801561088257600080fd5b50600f546102fa565b34801561089757600080fd5b506102ad6108a63660046130fa565b6001600160a01b03918216600090815260056020908152604080832093909416825291909152205460ff1690565b3480156108e057600080fd5b506102fa7fadb1f90fb043c84ed13cea91e76d7bc7af0bfa59ad8c7e6c623c30a52b8f20a681565b34801561091457600080fd5b5061031d6109233660046132b5565b612098565b600061093382612113565b92915050565b60606000805461094890613605565b80601f016020809104026020016040519081016040528092919081815260200182805461097490613605565b80156109c15780601f10610996576101008083540402835291602001916109c1565b820191906000526020600020905b8154815290600101906020018083116109a457829003601f168201915b5050505050905090565b7f27a0624e64a794e52337524177801654db9a21fcd4c18d902036cf6ff01b01596109f68133612138565b50600d805460ff19169055565b6000818152600260205260408120546001600160a01b0316610a815760405162461bcd60e51b815260206004820152602c60248201527f4552433732313a20617070726f76656420717565727920666f72206e6f6e657860448201526b34b9ba32b73a103a37b5b2b760a11b60648201526084015b60405180910390fd5b506000908152600460205260409020546001600160a01b031690565b6000610aa882611463565b9050806001600160a01b0316836001600160a01b03161415610b165760405162461bcd60e51b815260206004820152602160248201527f4552433732313a20617070726f76616c20746f2063757272656e74206f776e656044820152603960f91b6064820152608401610a78565b336001600160a01b0382161480610b325750610b3281336108a6565b610ba45760405162461bcd60e51b815260206004820152603860248201527f4552433732313a20617070726f76652063616c6c6572206973206e6f74206f7760448201527f6e6572206e6f7220617070726f76656420666f7220616c6c00000000000000006064820152608401610a78565b610bae838361219c565b505050565b7f0ed873f8f88e98a22713f460360c003876e6ccc2d975a1273a13ab57840b3ead610bde8133612138565b50601155565b610bee338261220a565b610c0a5760405162461bcd60e51b8152600401610a78906134ea565b610bae838383612301565b6000828152600a6020526040902060010154610c318133612138565b610bae83836124ac565b6000610c468361157c565b8210610ca85760405162461bcd60e51b815260206004820152602b60248201527f455243373231456e756d657261626c653a206f776e657220696e646578206f7560448201526a74206f6620626f756e647360a81b6064820152608401610a78565b506001600160a01b03919091166000908152600660209081526040808320938352929052205490565b6001600160a01b0381163314610d415760405162461bcd60e51b815260206004820152602f60248201527f416363657373436f6e74726f6c3a2063616e206f6e6c792072656e6f756e636560448201526e103937b632b9903337b91039b2b63360891b6064820152608401610a78565b610d4b8282612532565b5050565b610bae83838360405180602001604052806000815250611cc0565b7f9aa164dc2052fa9a9eebee383f6617f557e14a8d068430567e50f1ac8348fdaa610d958133612138565b600f54808510610e065760405162461bcd60e51b815260206004820152603660248201527f73657453616c6553746167653a2073616c6553746167652077697468207468696044820152751cc81a5b99195e08191bd95cc81b9bdd08195e1a5cdd60521b6064820152608401610a78565b60008311610e695760405162461bcd60e51b815260206004820152602a60248201527f73657453616c6553746167653a20776569506572546f6b656e206d757374206260448201526965206e6f6e2d7a65726f60b01b6064820152608401610a78565b6000610e7486611088565b50509050808511610eed5760405162461bcd60e51b815260206004820152603f60248201527f73657453616c6553746167653a206e657720656e64546f6b656e73206d75737460448201527f206265206d6f7265207468616e20696e2070726576696f7573207374616765006064820152608401610a78565b81610ef9876001612599565b1015610f8a576000610f0f610554886001612599565b50915050808611610f885760405162461bcd60e51b815260206004820152603b60248201527f73657453616c6553746167653a206e657720656e64546f6b656e73206d75737460448201527f206265206c657373207468616e20696e206e65787420737461676500000000006064820152608401610a78565b505b604051806040016040528086815260200185815250600f8781548110610fc057634e487b7160e01b600052603260045260246000fd5b60009182526020918290208351600290920201908155910151600190910155505050505050565b6000610ff260085490565b82106110555760405162461bcd60e51b815260206004820152602c60248201527f455243373231456e756d657261626c653a20676c6f62616c20696e646578206f60448201526b7574206f6620626f756e647360a01b6064820152608401610a78565b6008828154811061107657634e487b7160e01b600052603260045260246000fd5b90600052602060002001549050919050565b600080600080600f80549050116110e15760405162461bcd60e51b815260206004820152601760248201527f67657453616c6553746167653a206e6f207374616765730000000000000000006044820152606401610a78565b83611144576000600f858154811061110957634e487b7160e01b600052603260045260246000fd5b600091825260208083206040805180820190915260029093020180548084526001909101549290910182905291955090935091506112009050565b6000600f6111538660016125a5565b8154811061117157634e487b7160e01b600052603260045260246000fd5b90600052602060002090600202016040518060400160405290816000820154815260200160018201548152505090506000600f86815481106111c357634e487b7160e01b600052603260045260246000fd5b6000918252602091829020604080518082019091526002909202018054808352600190910154919092018190529251955093509091506112009050565b9193909250565b604080518082019091526000815260606020820152600e546112625760405162461bcd60e51b815260206004820152601460248201527367657442617463683a206e6f206261746368657360601b6044820152606401610a78565b600e8054611272906001906135ab565b8154811061129057634e487b7160e01b600052603260045260246000fd5b90600052602060002090600202016000015482106113215760405162461bcd60e51b815260206004820152604260248201527f67657442617463683a20746f6b656e4964206d757374206265206c657373207460448201527f68656e206c61737420746f6b656e20696420696e206261746368657320617272606482015261617960f01b608482015260a401610a78565b60005b600e5481101561145d57600e818154811061134f57634e487b7160e01b600052603260045260246000fd5b90600052602060002090600202016000015483111561136d5761144b565b600e818154811061138e57634e487b7160e01b600052603260045260246000fd5b9060005260206000209060020201604051806040016040529081600082015481526020016001820180546113c190613605565b80601f01602080910402602001604051908101604052809291908181526020018280546113ed90613605565b801561143a5780601f1061140f5761010080835404028352916020019161143a565b820191906000526020600020905b81548152906001019060200180831161141d57829003601f168201915b505050505081525050915050919050565b806114558161363a565b915050611324565b50919050565b6000818152600260205260408120546001600160a01b0316806109335760405162461bcd60e51b815260206004820152602960248201527f4552433732313a206f776e657220717565727920666f72206e6f6e657869737460448201526832b73a103a37b5b2b760b91b6064820152608401610a78565b6000818152600b602052604090208054606091906114f790613605565b80601f016020809104026020016040519081016040528092919081815260200182805461152390613605565b80156115705780601f1061154557610100808354040283529160200191611570565b820191906000526020600020905b81548152906001019060200180831161155357829003601f168201915b50505050509050919050565b60006001600160a01b0382166115e75760405162461bcd60e51b815260206004820152602a60248201527f4552433732313a2062616c616e636520717565727920666f7220746865207a65604482015269726f206164647265737360b01b6064820152608401610a78565b506001600160a01b031660009081526003602052604090205490565b7f9aa164dc2052fa9a9eebee383f6617f557e14a8d068430567e50f1ac8348fdaa61162e8133612138565b600082116116915760405162461bcd60e51b815260206004820152602a60248201527f61646453616c6553746167653a20776569506572546f6b656e206d757374206260448201526965206e6f6e2d7a65726f60b01b6064820152608401610a78565b600f548061170b57600084116117065760405162461bcd60e51b815260206004820152603460248201527f61646453616c6553746167653a20666972737420737461676520656e64546f6b604482015273656e73206d757374206265206e6f6e2d7a65726f60601b6064820152608401610a78565b611796565b600061171b6105548360016125a5565b509150508085116117945760405162461bcd60e51b815260206004820152603a60248201527f61646453616c6553746167653a206e657720656e64546f6b656e73206d75737460448201527f206265206d6f7265207468616e2063757272656e74206c6173740000000000006064820152608401610a78565b505b50506040805180820190915282815260208101918252600f805460018101825560009190915290517f8d1108e10bcb7c27dddfc02ed9d693a074039d026cf4ea4240b40f7d581ac80260029092029182015590517f8d1108e10bcb7c27dddfc02ed9d693a074039d026cf4ea4240b40f7d581ac80390910155601055565b7f28eb28c26cbbd48a6bfad016505ccf4a189452995f59d16217af8920961ed25c61183f8133612138565b600e54836118a25760405162461bcd60e51b815260206004820152602a60248201527f61646442617463683a20626174636820656e64546f6b656e73206d757374206260448201526965206e6f6e2d7a65726f60b01b6064820152608401610a78565b801561196757600e6118b56001836135ab565b815481106118d357634e487b7160e01b600052603260045260246000fd5b90600052602060002090600202016000015484116119675760405162461bcd60e51b815260206004820152604560248201527f61646442617463683a206261746368456e644964206d7573742062652067726560448201527f61746572207468616e2074686520656e644964206f6620746865206c617374206064820152640c4c2e8c6d60db1b608482015260a401610a78565b604080518082019091528481526020808201858152600e8054600181018255600091909152835160029091027fbb7b4a454dc3493923482f07822329ed19e8244eff582cc204f8554c3620c3fd81019182559151805191936119ee937fbb7b4a454dc3493923482f07822329ed19e8244eff582cc204f8554c3620c3fe0192910190612f7d565b50505050505050565b6000918252600a602090815260408084206001600160a01b0393909316845291905290205460ff1690565b60606001805461094890613605565b6001600160a01b038216331415611a8a5760405162461bcd60e51b815260206004820152601960248201527f4552433732313a20617070726f766520746f2063616c6c6572000000000000006044820152606401610a78565b3360008181526005602090815260408083206001600160a01b03871680855290835292819020805460ff191686151590811790915590519081529192917f17307eab39ab6107e8899845ad3d59bd9653f200f220920489ca2b5937696c31910160405180910390a35050565b600f5460009081611b0660085490565b90506000849050600080611b2d604051806040016040528060008152602001600081525090565b60005b86811015611c3657600f8181548110611b5957634e487b7160e01b600052603260045260246000fd5b90600052602060002090600202016040518060400160405290816000820154815260200160018201548152505091508160000151861115611b9957611c24565b8151611ba590876125a5565b92508415611c1f5782851115611bf557611bd6611bcf8360200151856125b190919063ffffffff16565b8590612599565b9350611be285846125a5565b9450611bee8684612599565b9550611c24565b611c0f611bcf8360200151876125b190919063ffffffff16565b600095509350611bee8686612599565b611c36565b80611c2e8161363a565b915050611b30565b5091979650505050505050565b7fde99de62ff13877bfb32892f85138aa338f091ce421c1d80a3ed7cbd389e8090611c6e8133612138565b6000838152600c6020526040908190208390555183907fbc118caef5b83a02ad5f988c3550437e355b0c3e999d65e0652177448b97c88690611cb39085815260200190565b60405180910390a2505050565b611cca338361220a565b611ce65760405162461bcd60e51b8152600401610a78906134ea565b611cf2848484846125bd565b50505050565b7f27a0624e64a794e52337524177801654db9a21fcd4c18d902036cf6ff01b0159611d238133612138565b50600d805460ff19166001179055565b60606000611d4083611207565b6020015190506000815111611d645760405180602001604052806000815250611d8f565b80611d6e846125f0565b604051602001611d7f929190613385565b6040516020818303038152906040525b9392505050565b7f28eb28c26cbbd48a6bfad016505ccf4a189452995f59d16217af8920961ed25c611dc18133612138565b600e548210611e235760405162461bcd60e51b815260206004820152602860248201527f64656c65746542617463683a20696e646578206f7574206f66206261746368656044820152670e640d8cadccee8d60c31b6064820152608401610a78565b600e8281548110611e4457634e487b7160e01b600052603260045260246000fd5b60009182526020822060029091020181815590611cf26001830182613001565b6000828152600a6020526040902060010154611e808133612138565b610bae8383612532565b60105460085410611edd5760405162461bcd60e51b815260206004820152601b60248201527f6275793a2053616c652068617320616c726561647920656e64656400000000006044820152606401610a78565b60008111611f255760405162461bcd60e51b815260206004820152601560248201527406275793a206e6674732063616e6e6f74206265203605c1b6044820152606401610a78565b601154811115611f9d5760405162461bcd60e51b815260206004820152603b60248201527f6275793a20596f752063616e206e6f7420627579206d6f7265207468616e206d60448201527f6178507572636861736553697a65204e465473206174206f6e636500000000006064820152608401610a78565b601054611fb382611fad60085490565b90612599565b11156120015760405162461bcd60e51b815260206004820152601c60248201527f6275793a2045786365656473205f6d6178546f74616c537570706c79000000006044820152606401610a78565b3461200b82611af6565b146120645760405162461bcd60e51b8152602060048201526024808201527f6275793a2045746865722076616c75652073656e74206973206e6f7420636f726044820152631c9958dd60e21b6064820152608401610a78565b60005b81811015610d4b57600061207961270a565b9050612085338261279f565b50806120908161363a565b915050612067565b7fadb1f90fb043c84ed13cea91e76d7bc7af0bfa59ad8c7e6c623c30a52b8f20a66120c38133612138565b6000838152600b6020908152604090912083516120e292850190612f7d565b50827f7e632a301794d8d4a81ea7e20f37d1947158d36e66403af04ba85dd194b66f1b83604051611cb39190613485565b60006001600160e01b03198216637965db0b60e01b14806109335750610933826127b9565b61214282826119f7565b610d4b5761215a816001600160a01b031660146127de565b6121658360206127de565b6040516020016121769291906133d3565b60408051601f198184030181529082905262461bcd60e51b8252610a7891600401613485565b600081815260046020526040902080546001600160a01b0319166001600160a01b03841690811790915581906121d182611463565b6001600160a01b03167f8c5be1e5ebec7d5bd14f71427d1e84f3dd0314c0f7b2291e5b200ac8c7c3b92560405160405180910390a45050565b6000818152600260205260408120546001600160a01b03166122835760405162461bcd60e51b815260206004820152602c60248201527f4552433732313a206f70657261746f7220717565727920666f72206e6f6e657860448201526b34b9ba32b73a103a37b5b2b760a11b6064820152608401610a78565b600061228e83611463565b9050806001600160a01b0316846001600160a01b031614806122c95750836001600160a01b03166122be84610a03565b6001600160a01b0316145b806122f957506001600160a01b0380821660009081526005602090815260408083209388168352929052205460ff165b949350505050565b826001600160a01b031661231482611463565b6001600160a01b03161461237c5760405162461bcd60e51b815260206004820152602960248201527f4552433732313a207472616e73666572206f6620746f6b656e2074686174206960448201526839903737ba1037bbb760b91b6064820152608401610a78565b6001600160a01b0382166123de5760405162461bcd60e51b8152602060048201526024808201527f4552433732313a207472616e7366657220746f20746865207a65726f206164646044820152637265737360e01b6064820152608401610a78565b6123e98383836129c0565b6123f460008261219c565b6001600160a01b038316600090815260036020526040812080546001929061241d9084906135ab565b90915550506001600160a01b038216600090815260036020526040812080546001929061244b908490613560565b909155505060008181526002602052604080822080546001600160a01b0319166001600160a01b0386811691821790925591518493918716917fddf252ad1be2c89b69c2b068fc378daa952ba7f163c4a11628f55a4df523b3ef91a4505050565b6124b682826119f7565b610d4b576000828152600a602090815260408083206001600160a01b03851684529091529020805460ff191660011790556124ee3390565b6001600160a01b0316816001600160a01b0316837f2f8788117e7eff1d82e926ec794901d17c78024a50270940304540a733656f0d60405160405180910390a45050565b61253c82826119f7565b15610d4b576000828152600a602090815260408083206001600160a01b0385168085529252808320805460ff1916905551339285917ff6391f5c32d9c69d2a47ea670b442974b53935d1edc7fd64eb21e047a839171b9190a45050565b6000611d8f8284613560565b6000611d8f82846135ab565b6000611d8f828461358c565b6125c8848484612301565b6125d484848484612a2d565b611cf25760405162461bcd60e51b8152600401610a7890613498565b6060816126145750506040805180820190915260018152600360fc1b602082015290565b8160005b811561263e57806126288161363a565b91506126379050600a83613578565b9150612618565b60008167ffffffffffffffff81111561266757634e487b7160e01b600052604160045260246000fd5b6040519080825280601f01601f191660200182016040528015612691576020820181803683370190505b5090505b84156122f9576126a66001836135ab565b91506126b3600a86613655565b6126be906030613560565b60f81b8183815181106126e157634e487b7160e01b600052603260045260246000fd5b60200101906001600160f81b031916908160001a905350612703600a86613578565b9450612695565b600080601054425a61271d6001436135ab565b6040805160208101949094528301919091524060608201526080016040516020818303038152906040528051906020012060001c61275b9190613655565b90505b6000818152600260205260409020546001600160a01b03161561279a57612786600182613560565b90506010548110612795575060005b61275e565b919050565b610d4b828260405180602001604052806000815250612b3a565b60006001600160e01b0319821663780e9d6360e01b1480610933575061093382612b6d565b606060006127ed83600261358c565b6127f8906002613560565b67ffffffffffffffff81111561281e57634e487b7160e01b600052604160045260246000fd5b6040519080825280601f01601f191660200182016040528015612848576020820181803683370190505b509050600360fc1b8160008151811061287157634e487b7160e01b600052603260045260246000fd5b60200101906001600160f81b031916908160001a905350600f60fb1b816001815181106128ae57634e487b7160e01b600052603260045260246000fd5b60200101906001600160f81b031916908160001a90535060006128d284600261358c565b6128dd906001613560565b90505b6001811115612971576f181899199a1a9b1b9c1cb0b131b232b360811b85600f166010811061291f57634e487b7160e01b600052603260045260246000fd5b1a60f81b82828151811061294357634e487b7160e01b600052603260045260246000fd5b60200101906001600160f81b031916908160001a90535060049490941c9361296a816135ee565b90506128e0565b508315611d8f5760405162461bcd60e51b815260206004820181905260248201527f537472696e67733a20686578206c656e67746820696e73756666696369656e746044820152606401610a78565b6129cb838383612bbd565b6001600160a01b038316610bae576010546008541115610bae5760405162461bcd60e51b815260206004820152601e60248201527f436f6c6c656374696f6e3a206d6178537570706c7920616368696576656400006044820152606401610a78565b60006001600160a01b0384163b15612b2f57604051630a85bd0160e11b81526001600160a01b0385169063150b7a0290612a71903390899088908890600401613448565b602060405180830381600087803b158015612a8b57600080fd5b505af1925050508015612abb575060408051601f3d908101601f19168201909252612ab891810190613299565b60015b612b15573d808015612ae9576040519150601f19603f3d011682016040523d82523d6000602084013e612aee565b606091505b508051612b0d5760405162461bcd60e51b8152600401610a7890613498565b805181602001fd5b6001600160e01b031916630a85bd0160e11b1490506122f9565b506001949350505050565b612b448383612c75565b612b516000848484612a2d565b610bae5760405162461bcd60e51b8152600401610a7890613498565b60006001600160e01b031982166380ac58cd60e01b1480612b9e57506001600160e01b03198216635b5e139f60e01b145b8061093357506301ffc9a760e01b6001600160e01b0319831614610933565b6001600160a01b038316612c1857612c1381600880546000838152600960205260408120829055600182018355919091527ff3f7a9fe364faab93b216da50a3214154f22a0a2b415b23a84c8169e8b636ee30155565b612c3b565b816001600160a01b0316836001600160a01b031614612c3b57612c3b8382612dc3565b6001600160a01b038216612c5257610bae81612e60565b826001600160a01b0316826001600160a01b031614610bae57610bae8282612f39565b6001600160a01b038216612ccb5760405162461bcd60e51b815260206004820181905260248201527f4552433732313a206d696e7420746f20746865207a65726f20616464726573736044820152606401610a78565b6000818152600260205260409020546001600160a01b031615612d305760405162461bcd60e51b815260206004820152601c60248201527f4552433732313a20746f6b656e20616c7265616479206d696e746564000000006044820152606401610a78565b612d3c600083836129c0565b6001600160a01b0382166000908152600360205260408120805460019290612d65908490613560565b909155505060008181526002602052604080822080546001600160a01b0319166001600160a01b03861690811790915590518392907fddf252ad1be2c89b69c2b068fc378daa952ba7f163c4a11628f55a4df523b3ef908290a45050565b60006001612dd08461157c565b612dda91906135ab565b600083815260076020526040902054909150808214612e2d576001600160a01b03841660009081526006602090815260408083208584528252808320548484528184208190558352600790915290208190555b5060009182526007602090815260408084208490556001600160a01b039094168352600681528383209183525290812055565b600854600090612e72906001906135ab565b60008381526009602052604081205460088054939450909284908110612ea857634e487b7160e01b600052603260045260246000fd5b906000526020600020015490508060088381548110612ed757634e487b7160e01b600052603260045260246000fd5b6000918252602080832090910192909255828152600990915260408082208490558582528120556008805480612f1d57634e487b7160e01b600052603160045260246000fd5b6001900381819060005260206000200160009055905550505050565b6000612f448361157c565b6001600160a01b039093166000908152600660209081526040808320868452825280832085905593825260079052919091209190915550565b828054612f8990613605565b90600052602060002090601f016020900481019282612fab5760008555612ff1565b82601f10612fc457805160ff1916838001178555612ff1565b82800160010185558215612ff1579182015b82811115612ff1578251825591602001919060010190612fd6565b50612ffd92915061303e565b5090565b50805461300d90613605565b6000825580601f1061301d575050565b601f01602090049060005260206000209081019061303b919061303e565b50565b5b80821115612ffd576000815560010161303f565b600067ffffffffffffffff8084111561306e5761306e613695565b604051601f8501601f19908116603f0116810190828211818310171561309657613096613695565b816040528093508581528686860111156130af57600080fd5b858560208301376000602087830101525050509392505050565b80356001600160a01b038116811461279a57600080fd5b6000602082840312156130f1578081fd5b611d8f826130c9565b6000806040838503121561310c578081fd5b613115836130c9565b9150613123602084016130c9565b90509250929050565b600080600060608486031215613140578081fd5b613149846130c9565b9250613157602085016130c9565b9150604084013590509250925092565b6000806000806080858703121561317c578081fd5b613185856130c9565b9350613193602086016130c9565b925060408501359150606085013567ffffffffffffffff8111156131b5578182fd5b8501601f810187136131c5578182fd5b6131d487823560208401613053565b91505092959194509250565b600080604083850312156131f2578182fd5b6131fb836130c9565b91506020830135801515811461320f578182fd5b809150509250929050565b6000806040838503121561322c578182fd5b613235836130c9565b946020939093013593505050565b600060208284031215613254578081fd5b5035919050565b6000806040838503121561326d578182fd5b82359150613123602084016130c9565b60006020828403121561328e578081fd5b8135611d8f816136ab565b6000602082840312156132aa578081fd5b8151611d8f816136ab565b600080604083850312156132c7578182fd5b82359150602083013567ffffffffffffffff8111156132e4578182fd5b8301601f810185136132f4578182fd5b61330385823560208401613053565b9150509250929050565b6000806040838503121561331f578182fd5b50508035926020909101359150565b600080600060608486031215613342578081fd5b505081359360208301359350604090920135919050565b600081518084526133718160208601602086016135c2565b601f01601f19169290920160200192915050565b600083516133978184602088016135c2565b602f60f81b90830190815283516133b58160018401602088016135c2565b64173539b7b760d91b60019290910191820152600601949350505050565b7f416363657373436f6e74726f6c3a206163636f756e742000000000000000000081526000835161340b8160178501602088016135c2565b7001034b99036b4b9b9b4b733903937b6329607d1b601791840191820152835161343c8160288401602088016135c2565b01602801949350505050565b6001600160a01b038581168252841660208201526040810183905260806060820181905260009061347b90830184613359565b9695505050505050565b602081526000611d8f6020830184613359565b60208082526032908201527f4552433732313a207472616e7366657220746f206e6f6e20455243373231526560408201527131b2b4bb32b91034b6b83632b6b2b73a32b960711b606082015260800190565b60208082526031908201527f4552433732313a207472616e736665722063616c6c6572206973206e6f74206f6040820152701ddb995c881b9bdc88185c1c1c9bdd9959607a1b606082015260800190565b6020815281516020820152600060208301516040808401526122f96060840182613359565b6000821982111561357357613573613669565b500190565b6000826135875761358761367f565b500490565b60008160001904831182151516156135a6576135a6613669565b500290565b6000828210156135bd576135bd613669565b500390565b60005b838110156135dd5781810151838201526020016135c5565b83811115611cf25750506000910152565b6000816135fd576135fd613669565b506000190190565b600181811c9082168061361957607f821691505b6020821081141561145d57634e487b7160e01b600052602260045260246000fd5b600060001982141561364e5761364e613669565b5060010190565b6000826136645761366461367f565b500690565b634e487b7160e01b600052601160045260246000fd5b634e487b7160e01b600052601260045260246000fd5b634e487b7160e01b600052604160045260246000fd5b6001600160e01b03198116811461303b57600080fdfea26469706673582212202ef604f8f9af573c88531f1f99e6a0e58ba0717ed206c37d54f7202345c94f5764736f6c63430008040033",
  "devdoc": {
    "kind": "dev",
    "methods": {
      "approve(address,uint256)": {
        "details": "See {IERC721-approve}."
      },
      "balanceOf(address)": {
        "details": "See {IERC721-balanceOf}."
      },
      "getApproved(uint256)": {
        "details": "See {IERC721-getApproved}."
      },
      "getName(uint256)": {
        "details": "Returns name of the NFT at index"
      },
      "getRoleAdmin(bytes32)": {
        "details": "Returns the admin role that controls `role`. See {grantRole} and {revokeRole}. To change a role's admin, use {_setRoleAdmin}."
      },
      "getSkill(uint256)": {
        "details": "Returns skill of the NFT at index"
      },
      "grantRole(bytes32,address)": {
        "details": "Grants `role` to `account`. If `account` had not been already granted `role`, emits a {RoleGranted} event. Requirements: - the caller must have ``role``'s admin role."
      },
      "hasRole(bytes32,address)": {
        "details": "Returns `true` if `account` has been granted `role`."
      },
      "isApprovedForAll(address,address)": {
        "details": "See {IERC721-isApprovedForAll}."
      },
      "name()": {
        "details": "See {IERC721Metadata-name}."
      },
      "ownerOf(uint256)": {
        "details": "See {IERC721-ownerOf}."
      },
      "renounceRole(bytes32,address)": {
        "details": "Revokes `role` from the calling account. Roles are often managed via {grantRole} and {revokeRole}: this function's purpose is to provide a mechanism for accounts to lose their privileges if they are compromised (such as when a trusted device is misplaced). If the calling account had been granted `role`, emits a {RoleRevoked} event. Requirements: - the caller must be `account`."
      },
      "revokeRole(bytes32,address)": {
        "details": "Revokes `role` from `account`. If `account` had been granted `role`, emits a {RoleRevoked} event. Requirements: - the caller must have ``role``'s admin role."
      },
      "safeTransferFrom(address,address,uint256)": {
        "details": "See {IERC721-safeTransferFrom}."
      },
      "safeTransferFrom(address,address,uint256,bytes)": {
        "details": "See {IERC721-safeTransferFrom}."
      },
      "setApprovalForAll(address,bool)": {
        "details": "See {IERC721-setApprovalForAll}."
      },
      "setMaxPurchaseSize(uint256)": {
        "details": "Change max purchase size."
      },
      "setName(uint256,string)": {
        "details": "Change token name"
      },
      "setSkill(uint256,uint256)": {
        "details": "Change token skill"
      },
      "start()": {
        "details": "Starts sale"
      },
      "stop()": {
        "details": "Stops sale"
      },
      "supportsInterface(bytes4)": {
        "details": "See {IERC165-supportsInterface}."
      },
      "symbol()": {
        "details": "See {IERC721Metadata-symbol}."
      },
      "tokenByIndex(uint256)": {
        "details": "See {IERC721Enumerable-tokenByIndex}."
      },
      "tokenOfOwnerByIndex(address,uint256)": {
        "details": "See {IERC721Enumerable-tokenOfOwnerByIndex}."
      },
      "totalSupply()": {
        "details": "See {IERC721Enumerable-totalSupply}."
      },
      "transferFrom(address,address,uint256)": {
        "details": "See {IERC721-transferFrom}."
      }
    },
    "version": 1
  },
  "userdoc": {
    "kind": "user",
    "methods": {
      "addBatch(uint256,string)": {
        "notice": "Add tokens batch to batches array"
      },
      "addSaleStage(uint256,uint256)": {
        "notice": "Adds new sale stage with given params at the end of `saleStages array`."
      },
      "buy(uint256)": {
        "notice": "Method to purchase and get random available NFTs."
      },
      "deleteBatch(uint256)": {
        "notice": "Removes batch at the given index"
      },
      "getBatch(uint256)": {
        "notice": "Return token batch URI"
      },
      "getSaleStage(uint256)": {
        "notice": "Returns info about sale stage with given index."
      },
      "getTotalPriceFor(uint256)": {
        "notice": "Returns summary price for given number of tokens."
      },
      "maxTotalSupply()": {
        "notice": "Returns current `_maxTotalSupply` value."
      },
      "saleStagesLength()": {
        "notice": "Returns current `_saleStages` array length."
      },
      "setSaleStage(uint256,uint256,uint256)": {
        "notice": "Rewrites sale stage properties with given index."
      },
      "tokenURI(uint256)": {
        "notice": "Return tokenURI"
      }
    },
    "version": 1
  },
  "storageLayout": {
    "storage": [
      {
        "astId": 393,
        "contract": "contracts/Collection.sol:Collection",
        "label": "_name",
        "offset": 0,
        "slot": "0",
        "type": "t_string_storage"
      },
      {
        "astId": 395,
        "contract": "contracts/Collection.sol:Collection",
        "label": "_symbol",
        "offset": 0,
        "slot": "1",
        "type": "t_string_storage"
      },
      {
        "astId": 399,
        "contract": "contracts/Collection.sol:Collection",
        "label": "_owners",
        "offset": 0,
        "slot": "2",
        "type": "t_mapping(t_uint256,t_address)"
      },
      {
        "astId": 403,
        "contract": "contracts/Collection.sol:Collection",
        "label": "_balances",
        "offset": 0,
        "slot": "3",
        "type": "t_mapping(t_address,t_uint256)"
      },
      {
        "astId": 407,
        "contract": "contracts/Collection.sol:Collection",
        "label": "_tokenApprovals",
        "offset": 0,
        "slot": "4",
        "type": "t_mapping(t_uint256,t_address)"
      },
      {
        "astId": 413,
        "contract": "contracts/Collection.sol:Collection",
        "label": "_operatorApprovals",
        "offset": 0,
        "slot": "5",
        "type": "t_mapping(t_address,t_mapping(t_address,t_bool))"
      },
      {
        "astId": 1334,
        "contract": "contracts/Collection.sol:Collection",
        "label": "_ownedTokens",
        "offset": 0,
        "slot": "6",
        "type": "t_mapping(t_address,t_mapping(t_uint256,t_uint256))"
      },
      {
        "astId": 1338,
        "contract": "contracts/Collection.sol:Collection",
        "label": "_ownedTokensIndex",
        "offset": 0,
        "slot": "7",
        "type": "t_mapping(t_uint256,t_uint256)"
      },
      {
        "astId": 1341,
        "contract": "contracts/Collection.sol:Collection",
        "label": "_allTokens",
        "offset": 0,
        "slot": "8",
        "type": "t_array(t_uint256)dyn_storage"
      },
      {
        "astId": 1345,
        "contract": "contracts/Collection.sol:Collection",
        "label": "_allTokensIndex",
        "offset": 0,
        "slot": "9",
        "type": "t_mapping(t_uint256,t_uint256)"
      },
      {
        "astId": 62,
        "contract": "contracts/Collection.sol:Collection",
        "label": "_roles",
        "offset": 0,
        "slot": "10",
        "type": "t_mapping(t_bytes32,t_struct(RoleData)57_storage)"
      },
      {
        "astId": 2611,
        "contract": "contracts/Collection.sol:Collection",
        "label": "_tokenName",
        "offset": 0,
        "slot": "11",
        "type": "t_mapping(t_uint256,t_string_storage)"
      },
      {
        "astId": 2615,
        "contract": "contracts/Collection.sol:Collection",
        "label": "_tokenSkill",
        "offset": 0,
        "slot": "12",
        "type": "t_mapping(t_uint256,t_uint256)"
      },
      {
        "astId": 2618,
        "contract": "contracts/Collection.sol:Collection",
        "label": "saleActive",
        "offset": 0,
        "slot": "13",
        "type": "t_bool"
      },
      {
        "astId": 2638,
        "contract": "contracts/Collection.sol:Collection",
        "label": "_batches",
        "offset": 0,
        "slot": "14",
        "type": "t_array(t_struct(Batch)2634_storage)dyn_storage"
      },
      {
        "astId": 2642,
        "contract": "contracts/Collection.sol:Collection",
        "label": "_saleStages",
        "offset": 0,
        "slot": "15",
        "type": "t_array(t_struct(SaleStage)2629_storage)dyn_storage"
      },
      {
        "astId": 2645,
        "contract": "contracts/Collection.sol:Collection",
        "label": "_maxTotalSupply",
        "offset": 0,
        "slot": "16",
        "type": "t_uint256"
      },
      {
        "astId": 2648,
        "contract": "contracts/Collection.sol:Collection",
        "label": "maxPurchaseSize",
        "offset": 0,
        "slot": "17",
        "type": "t_uint256"
      }
    ],
    "types": {
      "t_address": {
        "encoding": "inplace",
        "label": "address",
        "numberOfBytes": "20"
      },
      "t_array(t_struct(Batch)2634_storage)dyn_storage": {
        "base": "t_struct(Batch)2634_storage",
        "encoding": "dynamic_array",
        "label": "struct Collection.Batch[]",
        "numberOfBytes": "32"
      },
      "t_array(t_struct(SaleStage)2629_storage)dyn_storage": {
        "base": "t_struct(SaleStage)2629_storage",
        "encoding": "dynamic_array",
        "label": "struct Collection.SaleStage[]",
        "numberOfBytes": "32"
      },
      "t_array(t_uint256)dyn_storage": {
        "base": "t_uint256",
        "encoding": "dynamic_array",
        "label": "uint256[]",
        "numberOfBytes": "32"
      },
      "t_bool": {
        "encoding": "inplace",
        "label": "bool",
        "numberOfBytes": "1"
      },
      "t_bytes32": {
        "encoding": "inplace",
        "label": "bytes32",
        "numberOfBytes": "32"
      },
      "t_mapping(t_address,t_bool)": {
        "encoding": "mapping",
        "key": "t_address",
        "label": "mapping(address => bool)",
        "numberOfBytes": "32",
        "value": "t_bool"
      },
      "t_mapping(t_address,t_mapping(t_address,t_bool))": {
        "encoding": "mapping",
        "key": "t_address",
        "label": "mapping(address => mapping(address => bool))",
        "numberOfBytes": "32",
        "value": "t_mapping(t_address,t_bool)"
      },
      "t_mapping(t_address,t_mapping(t_uint256,t_uint256))": {
        "encoding": "mapping",
        "key": "t_address",
        "label": "mapping(address => mapping(uint256 => uint256))",
        "numberOfBytes": "32",
        "value": "t_mapping(t_uint256,t_uint256)"
      },
      "t_mapping(t_address,t_uint256)": {
        "encoding": "mapping",
        "key": "t_address",
        "label": "mapping(address => uint256)",
        "numberOfBytes": "32",
        "value": "t_uint256"
      },
      "t_mapping(t_bytes32,t_struct(RoleData)57_storage)": {
        "encoding": "mapping",
        "key": "t_bytes32",
        "label": "mapping(bytes32 => struct AccessControl.RoleData)",
        "numberOfBytes": "32",
        "value": "t_struct(RoleData)57_storage"
      },
      "t_mapping(t_uint256,t_address)": {
        "encoding": "mapping",
        "key": "t_uint256",
        "label": "mapping(uint256 => address)",
        "numberOfBytes": "32",
        "value": "t_address"
      },
      "t_mapping(t_uint256,t_string_storage)": {
        "encoding": "mapping",
        "key": "t_uint256",
        "label": "mapping(uint256 => string)",
        "numberOfBytes": "32",
        "value": "t_string_storage"
      },
      "t_mapping(t_uint256,t_uint256)": {
        "encoding": "mapping",
        "key": "t_uint256",
        "label": "mapping(uint256 => uint256)",
        "numberOfBytes": "32",
        "value": "t_uint256"
      },
      "t_string_storage": {
        "encoding": "bytes",
        "label": "string",
        "numberOfBytes": "32"
      },
      "t_struct(Batch)2634_storage": {
        "encoding": "inplace",
        "label": "struct Collection.Batch",
        "members": [
          {
            "astId": 2631,
            "contract": "contracts/Collection.sol:Collection",
            "label": "endId",
            "offset": 0,
            "slot": "0",
            "type": "t_uint256"
          },
          {
            "astId": 2633,
            "contract": "contracts/Collection.sol:Collection",
            "label": "baseURI",
            "offset": 0,
            "slot": "1",
            "type": "t_string_storage"
          }
        ],
        "numberOfBytes": "64"
      },
      "t_struct(RoleData)57_storage": {
        "encoding": "inplace",
        "label": "struct AccessControl.RoleData",
        "members": [
          {
            "astId": 54,
            "contract": "contracts/Collection.sol:Collection",
            "label": "members",
            "offset": 0,
            "slot": "0",
            "type": "t_mapping(t_address,t_bool)"
          },
          {
            "astId": 56,
            "contract": "contracts/Collection.sol:Collection",
            "label": "adminRole",
            "offset": 0,
            "slot": "1",
            "type": "t_bytes32"
          }
        ],
        "numberOfBytes": "64"
      },
      "t_struct(SaleStage)2629_storage": {
        "encoding": "inplace",
        "label": "struct Collection.SaleStage",
        "members": [
          {
            "astId": 2626,
            "contract": "contracts/Collection.sol:Collection",
            "label": "endTokens",
            "offset": 0,
            "slot": "0",
            "type": "t_uint256"
          },
          {
            "astId": 2628,
            "contract": "contracts/Collection.sol:Collection",
            "label": "weiPerToken",
            "offset": 0,
            "slot": "1",
            "type": "t_uint256"
          }
        ],
        "numberOfBytes": "64"
      },
      "t_uint256": {
        "encoding": "inplace",
        "label": "uint256",
        "numberOfBytes": "32"
      }
    }
  }
}