{
  "address": "0x45193aB3Bd5f747a1D7F4b6aE09CE9C6AC746766",
  "abi": [
    {
      "inputs": [],
      "stateMutability": "nonpayable",
      "type": "constructor"
    },
    {
      "anonymous": false,
      "inputs": [
        {
          "indexed": true,
          "internalType": "address",
          "name": "owner",
          "type": "address"
        },
        {
          "indexed": true,
          "internalType": "address",
          "name": "approved",
          "type": "address"
        },
        {
          "indexed": true,
          "internalType": "uint256",
          "name": "tokenId",
          "type": "uint256"
        }
      ],
      "name": "Approval",
      "type": "event"
    },
    {
      "anonymous": false,
      "inputs": [
        {
          "indexed": true,
          "internalType": "address",
          "name": "owner",
          "type": "address"
        },
        {
          "indexed": true,
          "internalType": "address",
          "name": "operator",
          "type": "address"
        },
        {
          "indexed": false,
          "internalType": "bool",
          "name": "approved",
          "type": "bool"
        }
      ],
      "name": "ApprovalForAll",
      "type": "event"
    },
    {
      "anonymous": false,
      "inputs": [
        {
          "indexed": true,
          "internalType": "uint256",
          "name": "index",
          "type": "uint256"
        },
        {
          "indexed": false,
          "internalType": "string",
          "name": "newName",
          "type": "string"
        }
      ],
      "name": "NameChange",
      "type": "event"
    },
    {
      "anonymous": false,
      "inputs": [
        {
          "indexed": true,
          "internalType": "bytes32",
          "name": "role",
          "type": "bytes32"
        },
        {
          "indexed": true,
          "internalType": "bytes32",
          "name": "previousAdminRole",
          "type": "bytes32"
        },
        {
          "indexed": true,
          "internalType": "bytes32",
          "name": "newAdminRole",
          "type": "bytes32"
        }
      ],
      "name": "RoleAdminChanged",
      "type": "event"
    },
    {
      "anonymous": false,
      "inputs": [
        {
          "indexed": true,
          "internalType": "bytes32",
          "name": "role",
          "type": "bytes32"
        },
        {
          "indexed": true,
          "internalType": "address",
          "name": "account",
          "type": "address"
        },
        {
          "indexed": true,
          "internalType": "address",
          "name": "sender",
          "type": "address"
        }
      ],
      "name": "RoleGranted",
      "type": "event"
    },
    {
      "anonymous": false,
      "inputs": [
        {
          "indexed": true,
          "internalType": "bytes32",
          "name": "role",
          "type": "bytes32"
        },
        {
          "indexed": true,
          "internalType": "address",
          "name": "account",
          "type": "address"
        },
        {
          "indexed": true,
          "internalType": "address",
          "name": "sender",
          "type": "address"
        }
      ],
      "name": "RoleRevoked",
      "type": "event"
    },
    {
      "anonymous": false,
      "inputs": [
        {
          "indexed": true,
          "internalType": "uint256",
          "name": "index",
          "type": "uint256"
        },
        {
          "indexed": false,
          "internalType": "uint256",
          "name": "newSkill",
          "type": "uint256"
        }
      ],
      "name": "SkillChange",
      "type": "event"
    },
    {
      "anonymous": false,
      "inputs": [
        {
          "indexed": true,
          "internalType": "address",
          "name": "from",
          "type": "address"
        },
        {
          "indexed": true,
          "internalType": "address",
          "name": "to",
          "type": "address"
        },
        {
          "indexed": true,
          "internalType": "uint256",
          "name": "tokenId",
          "type": "uint256"
        }
      ],
      "name": "Transfer",
      "type": "event"
    },
    {
      "inputs": [],
      "name": "BATCH_MANAGER_ROLE",
      "outputs": [
        {
          "internalType": "bytes32",
          "name": "",
          "type": "bytes32"
        }
      ],
      "stateMutability": "view",
      "type": "function"
    },
    {
      "inputs": [],
      "name": "DEFAULT_ADMIN_ROLE",
      "outputs": [
        {
          "internalType": "bytes32",
          "name": "",
          "type": "bytes32"
        }
      ],
      "stateMutability": "view",
      "type": "function"
    },
    {
      "inputs": [],
      "name": "DEFAULT_RARITY_SETTER_ROLE",
      "outputs": [
        {
          "internalType": "bytes32",
          "name": "",
          "type": "bytes32"
        }
      ],
      "stateMutability": "view",
      "type": "function"
    },
    {
      "inputs": [],
      "name": "DEFAULT_URI_SETTER_ROLE",
      "outputs": [
        {
          "internalType": "bytes32",
          "name": "",
          "type": "bytes32"
        }
      ],
      "stateMutability": "view",
      "type": "function"
    },
    {
      "inputs": [],
      "name": "MAX_PURCHASE_SIZE_SETTER_ROLE",
      "outputs": [
        {
          "internalType": "bytes32",
          "name": "",
          "type": "bytes32"
        }
      ],
      "stateMutability": "view",
      "type": "function"
    },
    {
      "inputs": [],
      "name": "MINTER_ROLE",
      "outputs": [
        {
          "internalType": "bytes32",
          "name": "",
          "type": "bytes32"
        }
      ],
      "stateMutability": "view",
      "type": "function"
    },
    {
      "inputs": [],
      "name": "NAME_SETTER_ROLE",
      "outputs": [
        {
          "internalType": "bytes32",
          "name": "",
          "type": "bytes32"
        }
      ],
      "stateMutability": "view",
      "type": "function"
    },
    {
      "inputs": [],
      "name": "SALE_ADMIN_ROLE",
      "outputs": [
        {
          "internalType": "bytes32",
          "name": "",
          "type": "bytes32"
        }
      ],
      "stateMutability": "view",
      "type": "function"
    },
    {
      "inputs": [],
      "name": "SALE_STAGES_MANAGER_ROLE",
      "outputs": [
        {
          "internalType": "bytes32",
          "name": "",
          "type": "bytes32"
        }
      ],
      "stateMutability": "view",
      "type": "function"
    },
    {
      "inputs": [],
      "name": "SKILL_SETTER_ROLE",
      "outputs": [
        {
          "internalType": "bytes32",
          "name": "",
          "type": "bytes32"
        }
      ],
      "stateMutability": "view",
      "type": "function"
    },
    {
      "inputs": [],
      "name": "VAULT_SETTER_ROLE",
      "outputs": [
        {
          "internalType": "bytes32",
          "name": "",
          "type": "bytes32"
        }
      ],
      "stateMutability": "view",
      "type": "function"
    },
    {
      "inputs": [
        {
          "internalType": "uint256",
          "name": "batchEndId",
          "type": "uint256"
        },
        {
          "internalType": "string",
          "name": "baseURI",
          "type": "string"
        },
        {
          "internalType": "uint256",
          "name": "rarity",
          "type": "uint256"
        }
      ],
      "name": "addBatch",
      "outputs": [],
      "stateMutability": "nonpayable",
      "type": "function"
    },
    {
      "inputs": [
        {
          "internalType": "uint256",
          "name": "endTokens",
          "type": "uint256"
        },
        {
          "internalType": "uint256",
          "name": "weiPerToken",
          "type": "uint256"
        }
      ],
      "name": "addSaleStage",
      "outputs": [],
      "stateMutability": "nonpayable",
      "type": "function"
    },
    {
      "inputs": [
        {
          "internalType": "address",
          "name": "to",
          "type": "address"
        },
        {
          "internalType": "uint256",
          "name": "tokenId",
          "type": "uint256"
        }
      ],
      "name": "approve",
      "outputs": [],
      "stateMutability": "nonpayable",
      "type": "function"
    },
    {
      "inputs": [
        {
          "internalType": "address",
          "name": "owner",
          "type": "address"
        }
      ],
      "name": "balanceOf",
      "outputs": [
        {
          "internalType": "uint256",
          "name": "",
          "type": "uint256"
        }
      ],
      "stateMutability": "view",
      "type": "function"
    },
    {
      "inputs": [
        {
          "internalType": "uint256",
          "name": "nfts",
          "type": "uint256"
        }
      ],
      "name": "buy",
      "outputs": [],
      "stateMutability": "payable",
      "type": "function"
    },
    {
      "inputs": [
        {
          "internalType": "uint256",
          "name": "batchIndex",
          "type": "uint256"
        }
      ],
      "name": "deleteBatch",
      "outputs": [],
      "stateMutability": "nonpayable",
      "type": "function"
    },
    {
      "inputs": [
        {
          "internalType": "uint256",
          "name": "tokenId",
          "type": "uint256"
        }
      ],
      "name": "getApproved",
      "outputs": [
        {
          "internalType": "address",
          "name": "",
          "type": "address"
        }
      ],
      "stateMutability": "view",
      "type": "function"
    },
    {
      "inputs": [
        {
          "internalType": "uint256",
          "name": "tokenId",
          "type": "uint256"
        }
      ],
      "name": "getBatch",
      "outputs": [
        {
          "components": [
            {
              "internalType": "uint256",
              "name": "endId",
              "type": "uint256"
            },
            {
              "internalType": "string",
              "name": "baseURI",
              "type": "string"
            },
            {
              "internalType": "uint256",
              "name": "rarity",
              "type": "uint256"
            }
          ],
          "internalType": "struct Collection.Batch",
          "name": "",
          "type": "tuple"
        }
      ],
      "stateMutability": "view",
      "type": "function"
    },
    {
      "inputs": [
        {
          "internalType": "uint256",
          "name": "index",
          "type": "uint256"
        }
      ],
      "name": "getName",
      "outputs": [
        {
          "internalType": "string",
          "name": "",
          "type": "string"
        }
      ],
      "stateMutability": "view",
      "type": "function"
    },
    {
      "inputs": [
        {
          "internalType": "uint256",
          "name": "tokenId",
          "type": "uint256"
        }
      ],
      "name": "getRarity",
      "outputs": [
        {
          "internalType": "uint256",
          "name": "",
          "type": "uint256"
        }
      ],
      "stateMutability": "view",
      "type": "function"
    },
    {
      "inputs": [
        {
          "internalType": "bytes32",
          "name": "role",
          "type": "bytes32"
        }
      ],
      "name": "getRoleAdmin",
      "outputs": [
        {
          "internalType": "bytes32",
          "name": "",
          "type": "bytes32"
        }
      ],
      "stateMutability": "view",
      "type": "function"
    },
    {
      "inputs": [
        {
          "internalType": "uint256",
          "name": "saleStageIndex",
          "type": "uint256"
        }
      ],
      "name": "getSaleStage",
      "outputs": [
        {
          "internalType": "uint256",
          "name": "startTokens",
          "type": "uint256"
        },
        {
          "internalType": "uint256",
          "name": "endTokens",
          "type": "uint256"
        },
        {
          "internalType": "uint256",
          "name": "weiPerToken",
          "type": "uint256"
        }
      ],
      "stateMutability": "view",
      "type": "function"
    },
    {
      "inputs": [
        {
          "internalType": "uint256",
          "name": "index",
          "type": "uint256"
        }
      ],
      "name": "getSkill",
      "outputs": [
        {
          "internalType": "uint256",
          "name": "",
          "type": "uint256"
        }
      ],
      "stateMutability": "view",
      "type": "function"
    },
    {
      "inputs": [
        {
          "internalType": "uint256",
          "name": "tokens",
          "type": "uint256"
        }
      ],
      "name": "getTotalPriceFor",
      "outputs": [
        {
          "internalType": "uint256",
          "name": "",
          "type": "uint256"
        }
      ],
      "stateMutability": "view",
      "type": "function"
    },
    {
      "inputs": [
        {
          "internalType": "bytes32",
          "name": "role",
          "type": "bytes32"
        },
        {
          "internalType": "address",
          "name": "account",
          "type": "address"
        }
      ],
      "name": "grantRole",
      "outputs": [],
      "stateMutability": "nonpayable",
      "type": "function"
    },
    {
      "inputs": [
        {
          "internalType": "bytes32",
          "name": "role",
          "type": "bytes32"
        },
        {
          "internalType": "address",
          "name": "account",
          "type": "address"
        }
      ],
      "name": "hasRole",
      "outputs": [
        {
          "internalType": "bool",
          "name": "",
          "type": "bool"
        }
      ],
      "stateMutability": "view",
      "type": "function"
    },
    {
      "inputs": [
        {
          "internalType": "address",
          "name": "owner",
          "type": "address"
        },
        {
          "internalType": "address",
          "name": "operator",
          "type": "address"
        }
      ],
      "name": "isApprovedForAll",
      "outputs": [
        {
          "internalType": "bool",
          "name": "",
          "type": "bool"
        }
      ],
      "stateMutability": "view",
      "type": "function"
    },
    {
      "inputs": [],
      "name": "maxPurchaseSize",
      "outputs": [
        {
          "internalType": "uint256",
          "name": "",
          "type": "uint256"
        }
      ],
      "stateMutability": "view",
      "type": "function"
    },
    {
      "inputs": [],
      "name": "maxTotalSupply",
      "outputs": [
        {
          "internalType": "uint256",
          "name": "",
          "type": "uint256"
        }
      ],
      "stateMutability": "view",
      "type": "function"
    },
    {
      "inputs": [
        {
          "internalType": "address",
          "name": "to",
          "type": "address"
        },
        {
          "internalType": "uint256",
          "name": "mintIndex",
          "type": "uint256"
        }
      ],
      "name": "mint",
      "outputs": [],
      "stateMutability": "nonpayable",
      "type": "function"
    },
    {
      "inputs": [
        {
          "internalType": "address",
          "name": "to",
          "type": "address"
        },
        {
          "internalType": "uint256",
          "name": "nfts",
          "type": "uint256"
        }
      ],
      "name": "mintMultiple",
      "outputs": [],
      "stateMutability": "nonpayable",
      "type": "function"
    },
    {
      "inputs": [],
      "name": "name",
      "outputs": [
        {
          "internalType": "string",
          "name": "",
          "type": "string"
        }
      ],
      "stateMutability": "view",
      "type": "function"
    },
    {
      "inputs": [
        {
          "internalType": "uint256",
          "name": "tokenId",
          "type": "uint256"
        }
      ],
      "name": "ownerOf",
      "outputs": [
        {
          "internalType": "address",
          "name": "",
          "type": "address"
        }
      ],
      "stateMutability": "view",
      "type": "function"
    },
    {
      "inputs": [
        {
          "internalType": "bytes32",
          "name": "role",
          "type": "bytes32"
        },
        {
          "internalType": "address",
          "name": "account",
          "type": "address"
        }
      ],
      "name": "renounceRole",
      "outputs": [],
      "stateMutability": "nonpayable",
      "type": "function"
    },
    {
      "inputs": [
        {
          "internalType": "bytes32",
          "name": "role",
          "type": "bytes32"
        },
        {
          "internalType": "address",
          "name": "account",
          "type": "address"
        }
      ],
      "name": "revokeRole",
      "outputs": [],
      "stateMutability": "nonpayable",
      "type": "function"
    },
    {
      "inputs": [
        {
          "internalType": "address",
          "name": "from",
          "type": "address"
        },
        {
          "internalType": "address",
          "name": "to",
          "type": "address"
        },
        {
          "internalType": "uint256",
          "name": "tokenId",
          "type": "uint256"
        }
      ],
      "name": "safeTransferFrom",
      "outputs": [],
      "stateMutability": "nonpayable",
      "type": "function"
    },
    {
      "inputs": [
        {
          "internalType": "address",
          "name": "from",
          "type": "address"
        },
        {
          "internalType": "address",
          "name": "to",
          "type": "address"
        },
        {
          "internalType": "uint256",
          "name": "tokenId",
          "type": "uint256"
        },
        {
          "internalType": "bytes",
          "name": "_data",
          "type": "bytes"
        }
      ],
      "name": "safeTransferFrom",
      "outputs": [],
      "stateMutability": "nonpayable",
      "type": "function"
    },
    {
      "inputs": [],
      "name": "saleActive",
      "outputs": [
        {
          "internalType": "bool",
          "name": "",
          "type": "bool"
        }
      ],
      "stateMutability": "view",
      "type": "function"
    },
    {
      "inputs": [],
      "name": "saleStagesLength",
      "outputs": [
        {
          "internalType": "uint256",
          "name": "",
          "type": "uint256"
        }
      ],
      "stateMutability": "view",
      "type": "function"
    },
    {
      "inputs": [
        {
          "internalType": "address",
          "name": "operator",
          "type": "address"
        },
        {
          "internalType": "bool",
          "name": "approved",
          "type": "bool"
        }
      ],
      "name": "setApprovalForAll",
      "outputs": [],
      "stateMutability": "nonpayable",
      "type": "function"
    },
    {
      "inputs": [
        {
          "internalType": "uint256",
          "name": "rarity",
          "type": "uint256"
        }
      ],
      "name": "setDefaultRarity",
      "outputs": [],
      "stateMutability": "nonpayable",
      "type": "function"
    },
    {
      "inputs": [
        {
          "internalType": "string",
          "name": "uri",
          "type": "string"
        }
      ],
      "name": "setDefaultUri",
      "outputs": [],
      "stateMutability": "nonpayable",
      "type": "function"
    },
    {
      "inputs": [
        {
          "internalType": "uint256",
          "name": "newPurchaseSize",
          "type": "uint256"
        }
      ],
      "name": "setMaxPurchaseSize",
      "outputs": [],
      "stateMutability": "nonpayable",
      "type": "function"
    },
    {
      "inputs": [
        {
          "internalType": "uint256",
          "name": "id",
          "type": "uint256"
        },
        {
          "internalType": "string",
          "name": "newName",
          "type": "string"
        }
      ],
      "name": "setName",
      "outputs": [],
      "stateMutability": "nonpayable",
      "type": "function"
    },
    {
      "inputs": [
        {
          "internalType": "uint256",
          "name": "saleStageIndex",
          "type": "uint256"
        },
        {
          "internalType": "uint256",
          "name": "endTokens",
          "type": "uint256"
        },
        {
          "internalType": "uint256",
          "name": "weiPerToken",
          "type": "uint256"
        }
      ],
      "name": "setSaleStage",
      "outputs": [],
      "stateMutability": "nonpayable",
      "type": "function"
    },
    {
      "inputs": [
        {
          "internalType": "uint256",
          "name": "id",
          "type": "uint256"
        },
        {
          "internalType": "uint256",
          "name": "newSkill",
          "type": "uint256"
        }
      ],
      "name": "setSkill",
      "outputs": [],
      "stateMutability": "nonpayable",
      "type": "function"
    },
    {
      "inputs": [
        {
          "internalType": "address payable",
          "name": "newVault",
          "type": "address"
        }
      ],
      "name": "setVault",
      "outputs": [],
      "stateMutability": "nonpayable",
      "type": "function"
    },
    {
      "inputs": [],
      "name": "start",
      "outputs": [],
      "stateMutability": "nonpayable",
      "type": "function"
    },
    {
      "inputs": [],
      "name": "stop",
      "outputs": [],
      "stateMutability": "nonpayable",
      "type": "function"
    },
    {
      "inputs": [
        {
          "internalType": "bytes4",
          "name": "interfaceId",
          "type": "bytes4"
        }
      ],
      "name": "supportsInterface",
      "outputs": [
        {
          "internalType": "bool",
          "name": "",
          "type": "bool"
        }
      ],
      "stateMutability": "view",
      "type": "function"
    },
    {
      "inputs": [],
      "name": "symbol",
      "outputs": [
        {
          "internalType": "string",
          "name": "",
          "type": "string"
        }
      ],
      "stateMutability": "view",
      "type": "function"
    },
    {
      "inputs": [
        {
          "internalType": "uint256",
          "name": "index",
          "type": "uint256"
        }
      ],
      "name": "tokenByIndex",
      "outputs": [
        {
          "internalType": "uint256",
          "name": "",
          "type": "uint256"
        }
      ],
      "stateMutability": "view",
      "type": "function"
    },
    {
      "inputs": [
        {
          "internalType": "address",
          "name": "owner",
          "type": "address"
        },
        {
          "internalType": "uint256",
          "name": "index",
          "type": "uint256"
        }
      ],
      "name": "tokenOfOwnerByIndex",
      "outputs": [
        {
          "internalType": "uint256",
          "name": "",
          "type": "uint256"
        }
      ],
      "stateMutability": "view",
      "type": "function"
    },
    {
      "inputs": [
        {
          "internalType": "uint256",
          "name": "tokenId",
          "type": "uint256"
        }
      ],
      "name": "tokenURI",
      "outputs": [
        {
          "internalType": "string",
          "name": "",
          "type": "string"
        }
      ],
      "stateMutability": "view",
      "type": "function"
    },
    {
      "inputs": [],
      "name": "totalSupply",
      "outputs": [
        {
          "internalType": "uint256",
          "name": "",
          "type": "uint256"
        }
      ],
      "stateMutability": "view",
      "type": "function"
    },
    {
      "inputs": [
        {
          "internalType": "address",
          "name": "from",
          "type": "address"
        },
        {
          "internalType": "address",
          "name": "to",
          "type": "address"
        },
        {
          "internalType": "uint256",
          "name": "tokenId",
          "type": "uint256"
        }
      ],
      "name": "transferFrom",
      "outputs": [],
      "stateMutability": "nonpayable",
      "type": "function"
    },
    {
      "inputs": [],
      "name": "vault",
      "outputs": [
        {
          "internalType": "address payable",
          "name": "",
          "type": "address"
        }
      ],
      "stateMutability": "view",
      "type": "function"
    }
  ],
  "transactionHash": "0x16d7f2b77732817ddbfaa11f1655bc033003b1d4ded540ccdce1ddfcf865bf26",
  "args": [],
  "solcInputHash": "b60ad53be908a64f3e3ecebadd175acb",
  "bytecode": "0x6080604052600d805460ff19169055600060105560146011553480156200002557600080fd5b506040805180820182526009815268437962657250756e6b60b81b60208083019182528351808501909452600384526221a82760e91b90840152815191929162000072916000916200030c565b508051620000889060019060208401906200030c565b506200009a9150600090503362000258565b620000c67f9aa164dc2052fa9a9eebee383f6617f557e14a8d068430567e50f1ac8348fdaa3362000258565b620000f27f28eb28c26cbbd48a6bfad016505ccf4a189452995f59d16217af8920961ed25c3362000258565b6200011e7f27a0624e64a794e52337524177801654db9a21fcd4c18d902036cf6ff01b01593362000258565b6200014a7fadb1f90fb043c84ed13cea91e76d7bc7af0bfa59ad8c7e6c623c30a52b8f20a63362000258565b620001767fde99de62ff13877bfb32892f85138aa338f091ce421c1d80a3ed7cbd389e80903362000258565b620001a27f0ed873f8f88e98a22713f460360c003876e6ccc2d975a1273a13ab57840b3ead3362000258565b620001ce7f9f2df0fed2c77648de5860a4cc508cd0818c85b8b8a1ab4ceeef8d981c8956a63362000258565b620001fa7f578801949f7fba7e10bb7de5b8b7390e8e7caf5866dab96df4a59b95497bfc0e3362000258565b620002267f353a39a17d3cf207ae9d7c37f85542d46b7264eb2c304b0943e66a7b54de5b273362000258565b620002527f39cd503a0b2eaee938f7f4ad3dbbc18b726de35cc452a7d4ad616cf09de523dd3362000258565b620003ef565b62000264828262000268565b5050565b6000828152600a602090815260408083206001600160a01b038516845290915290205460ff1662000264576000828152600a602090815260408083206001600160a01b03851684529091529020805460ff19166001179055620002c83390565b6001600160a01b0316816001600160a01b0316837f2f8788117e7eff1d82e926ec794901d17c78024a50270940304540a733656f0d60405160405180910390a45050565b8280546200031a90620003b2565b90600052602060002090601f0160209004810192826200033e576000855562000389565b82601f106200035957805160ff191683800117855562000389565b8280016001018555821562000389579182015b82811115620003895782518255916020019190600101906200036c565b50620003979291506200039b565b5090565b5b808211156200039757600081556001016200039c565b600181811c90821680620003c757607f821691505b60208210811415620003e957634e487b7160e01b600052602260045260246000fd5b50919050565b613e1980620003ff6000396000f3fe6080604052600436106103815760003560e01c80636817031b116101d1578063bd880fae11610102578063d96a094a116100a0578063eaf882ff1161006f578063eaf882ff14610b3d578063ee77a14d14610b5d578063fbfa77cf14610b91578063fe55932a14610bb157600080fd5b8063d96a094a14610a98578063dd5b5a2e14610aab578063e5ca564814610adf578063e985e9c514610af457600080fd5b8063d06b1da8116100dc578063d06b1da8146109f0578063d539139314610a10578063d547741f14610a44578063d57a46f614610a6457600080fd5b8063bd880fae1461098e578063be9a6555146109bb578063c87b56dd146109d057600080fd5b8063a203f5fd1161016f578063a5515c3311610149578063a5515c331461090e578063b3fa4a4c1461092e578063b423f0a61461094e578063b88d4fde1461096e57600080fd5b8063a203f5fd146108a5578063a217fddf146108d9578063a22cb465146108ee57600080fd5b806370a08231116101ab57806370a082311461083057806382dd1b1a1461085057806391d148541461087057806395d89b411461089057600080fd5b80636817031b146107d657806368428a1b146107f65780636b8ff5741461081057600080fd5b80632ab4d052116102b657806348758697116102545780635ac44282116102235780635ac44282146107215780636080eb5c1461074e5780636352211e14610782578063651d4d23146107a257600080fd5b806348758697146106865780634f1afc4e146106a65780634f6ccce7146106c6578063573aa7d5146106e657600080fd5b806336568abe1161029057806336568abe1461060657806340c10f191461062657806342842e0e14610646578063466a18de1461066657600080fd5b80632ab4d052146105b15780632f2ff15d146105c65780632f745c59146105e657600080fd5b80630f50d813116103235780631979db31116102fd5780631979db31146104f957806323b872dd1461052d578063248a9ca31461054d57806328cfc3051461057d57600080fd5b80630f50d8131461049057806314b710ae146104c457806318160ddd146104e457600080fd5b806307da68f51161035f57806307da68f514610401578063081812fc14610418578063095ea7b3146104505780630da53ffb1461047057600080fd5b806301ffc9a71461038657806306fdde03146103bb578063076736a2146103dd575b600080fd5b34801561039257600080fd5b506103a66103a1366004613905565b610bd1565b60405190151581526020015b60405180910390f35b3480156103c757600080fd5b506103d0610be2565b6040516103b29190613b7b565b3480156103e957600080fd5b506103f360115481565b6040519081526020016103b2565b34801561040d57600080fd5b50610416610c74565b005b34801561042457600080fd5b506104386104333660046138c9565b610cac565b6040516001600160a01b0390911681526020016103b2565b34801561045c57600080fd5b5061041661046b36600461389e565b610d46565b34801561047c57600080fd5b5061041661048b3660046139b5565b610e5c565b34801561049c57600080fd5b506103f37f28eb28c26cbbd48a6bfad016505ccf4a189452995f59d16217af8920961ed25c81565b3480156104d057600080fd5b506104166104df3660046138c9565b611056565b3480156104f057600080fd5b506008546103f3565b34801561050557600080fd5b506103f37f0ed873f8f88e98a22713f460360c003876e6ccc2d975a1273a13ab57840b3ead81565b34801561053957600080fd5b506104166105483660046137b0565b611087565b34801561055957600080fd5b506103f36105683660046138c9565b6000908152600a602052604090206001015490565b34801561058957600080fd5b506103f37f39cd503a0b2eaee938f7f4ad3dbbc18b726de35cc452a7d4ad616cf09de523dd81565b3480156105bd57600080fd5b506010546103f3565b3480156105d257600080fd5b506104166105e13660046138e1565b6110b8565b3480156105f257600080fd5b506103f361060136600461389e565b6110de565b34801561061257600080fd5b506104166106213660046138e1565b611174565b34801561063257600080fd5b5061041661064136600461389e565b6111f2565b34801561065257600080fd5b506104166106613660046137b0565b611227565b34801561067257600080fd5b5061041661068136600461393d565b611242565b34801561069257600080fd5b506103f36106a13660046138c9565b611280565b3480156106b257600080fd5b506104166106c1366004613a24565b6112e6565b3480156106d257600080fd5b506103f36106e13660046138c9565b611563565b3480156106f257600080fd5b506107066107013660046138c9565b611604565b604080519384526020840192909252908201526060016103b2565b34801561072d57600080fd5b5061074161073c3660046138c9565b611783565b6040516103b29190613c31565b34801561075a57600080fd5b506103f37f9aa164dc2052fa9a9eebee383f6617f557e14a8d068430567e50f1ac8348fdaa81565b34801561078e57600080fd5b5061043861079d3660046138c9565b6119f8565b3480156107ae57600080fd5b506103f37f353a39a17d3cf207ae9d7c37f85542d46b7264eb2c304b0943e66a7b54de5b2781565b3480156107e257600080fd5b506104166107f136600461375c565b611a6f565b34801561080257600080fd5b50600d546103a69060ff1681565b34801561081c57600080fd5b506103d061082b3660046138c9565b611abd565b34801561083c57600080fd5b506103f361084b36600461375c565b611b5f565b34801561085c57600080fd5b5061041661086b366004613a03565b611be6565b34801561087c57600080fd5b506103a661088b3660046138e1565b611df7565b34801561089c57600080fd5b506103d0611e22565b3480156108b157600080fd5b506103f37f578801949f7fba7e10bb7de5b8b7390e8e7caf5866dab96df4a59b95497bfc0e81565b3480156108e557600080fd5b506103f3600081565b3480156108fa57600080fd5b5061041661090936600461386d565b611e31565b34801561091a57600080fd5b506103f36109293660046138c9565b611ef6565b34801561093a57600080fd5b5061041661094936600461389e565b612043565b34801561095a57600080fd5b50610416610969366004613a03565b612078565b34801561097a57600080fd5b506104166109893660046137f0565b6120f5565b34801561099a57600080fd5b506103f36109a93660046138c9565b6000908152600c602052604090205490565b3480156109c757600080fd5b5061041661212d565b3480156109dc57600080fd5b506103d06109eb3660046138c9565b61221e565b3480156109fc57600080fd5b50610416610a0b3660046138c9565b6122e1565b348015610a1c57600080fd5b506103f37f9f2df0fed2c77648de5860a4cc508cd0818c85b8b8a1ab4ceeef8d981c8956a681565b348015610a5057600080fd5b50610416610a5f3660046138e1565b6123bd565b348015610a7057600080fd5b506103f37fde99de62ff13877bfb32892f85138aa338f091ce421c1d80a3ed7cbd389e809081565b610416610aa63660046138c9565b6123e3565b348015610ab757600080fd5b506103f37f27a0624e64a794e52337524177801654db9a21fcd4c18d902036cf6ff01b015981565b348015610aeb57600080fd5b50600f546103f3565b348015610b0057600080fd5b506103a6610b0f366004613778565b6001600160a01b03918216600090815260056020908152604080832093909416825291909152205460ff1690565b348015610b4957600080fd5b50610416610b583660046138c9565b6125af565b348015610b6957600080fd5b506103f37fadb1f90fb043c84ed13cea91e76d7bc7af0bfa59ad8c7e6c623c30a52b8f20a681565b348015610b9d57600080fd5b50601454610438906001600160a01b031681565b348015610bbd57600080fd5b50610416610bcc366004613970565b6125e0565b6000610bdc8261265b565b92915050565b606060008054610bf190613d12565b80601f0160208091040260200160405190810160405280929190818152602001828054610c1d90613d12565b8015610c6a5780601f10610c3f57610100808354040283529160200191610c6a565b820191906000526020600020905b815481529060010190602001808311610c4d57829003601f168201915b5050505050905090565b7f27a0624e64a794e52337524177801654db9a21fcd4c18d902036cf6ff01b0159610c9f8133612680565b50600d805460ff19169055565b6000818152600260205260408120546001600160a01b0316610d2a5760405162461bcd60e51b815260206004820152602c60248201527f4552433732313a20617070726f76656420717565727920666f72206e6f6e657860448201526b34b9ba32b73a103a37b5b2b760a11b60648201526084015b60405180910390fd5b506000908152600460205260409020546001600160a01b031690565b6000610d51826119f8565b9050806001600160a01b0316836001600160a01b03161415610dbf5760405162461bcd60e51b815260206004820152602160248201527f4552433732313a20617070726f76616c20746f2063757272656e74206f776e656044820152603960f91b6064820152608401610d21565b336001600160a01b0382161480610ddb5750610ddb8133610b0f565b610e4d5760405162461bcd60e51b815260206004820152603860248201527f4552433732313a20617070726f76652063616c6c6572206973206e6f74206f7760448201527f6e6572206e6f7220617070726f76656420666f7220616c6c00000000000000006064820152608401610d21565b610e5783836126e4565b505050565b7f28eb28c26cbbd48a6bfad016505ccf4a189452995f59d16217af8920961ed25c610e878133612680565b600e5484610eea5760405162461bcd60e51b815260206004820152602a60248201527f61646442617463683a20626174636820656e64546f6b656e73206d757374206260448201526965206e6f6e2d7a65726f60b01b6064820152608401610d21565b8015610faf57600e610efd600183613cb8565b81548110610f1b57634e487b7160e01b600052603260045260246000fd5b9060005260206000209060030201600001548511610faf5760405162461bcd60e51b815260206004820152604560248201527f61646442617463683a206261746368456e644964206d7573742062652067726560448201527f61746572207468616e2074686520656e644964206f6620746865206c617374206064820152640c4c2e8c6d60db1b608482015260a401610d21565b604080516060810182528681526020808201878152928201869052600e8054600181018255600091909152825160039091027fbb7b4a454dc3493923482f07822329ed19e8244eff582cc204f8554c3620c3fd81019182559351805193949193611042937fbb7b4a454dc3493923482f07822329ed19e8244eff582cc204f8554c3620c3fe9093019291909101906135f8565b506040820151816002015550505050505050565b7f0ed873f8f88e98a22713f460360c003876e6ccc2d975a1273a13ab57840b3ead6110818133612680565b50601155565b6110913382612752565b6110ad5760405162461bcd60e51b8152600401610d2190613be0565b610e57838383612849565b6000828152600a60205260409020600101546110d48133612680565b610e5783836129f4565b60006110e983611b5f565b821061114b5760405162461bcd60e51b815260206004820152602b60248201527f455243373231456e756d657261626c653a206f776e657220696e646578206f7560448201526a74206f6620626f756e647360a81b6064820152608401610d21565b506001600160a01b03919091166000908152600660209081526040808320938352929052205490565b6001600160a01b03811633146111e45760405162461bcd60e51b815260206004820152602f60248201527f416363657373436f6e74726f6c3a2063616e206f6e6c792072656e6f756e636560448201526e103937b632b9903337b91039b2b63360891b6064820152608401610d21565b6111ee8282612a7a565b5050565b7f9f2df0fed2c77648de5860a4cc508cd0818c85b8b8a1ab4ceeef8d981c8956a661121d8133612680565b610e578383612ae1565b610e57838383604051806020016040528060008152506120f5565b7f578801949f7fba7e10bb7de5b8b7390e8e7caf5866dab96df4a59b95497bfc0e61126d8133612680565b8151610e579060129060208501906135f8565b600e80546000919061129490600190613cb8565b815481106112b257634e487b7160e01b600052603260045260246000fd5b9060005260206000209060030201600001548211156112d357505060135490565b6112dc82611783565b6040015192915050565b7f9aa164dc2052fa9a9eebee383f6617f557e14a8d068430567e50f1ac8348fdaa6113118133612680565b600f548085106113825760405162461bcd60e51b815260206004820152603660248201527f73657453616c6553746167653a2073616c6553746167652077697468207468696044820152751cc81a5b99195e08191bd95cc81b9bdd08195e1a5cdd60521b6064820152608401610d21565b600083116113e55760405162461bcd60e51b815260206004820152602a60248201527f73657453616c6553746167653a20776569506572546f6b656e206d757374206260448201526965206e6f6e2d7a65726f60b01b6064820152608401610d21565b60006113f086611604565b505090508085116114695760405162461bcd60e51b815260206004820152603f60248201527f73657453616c6553746167653a206e657720656e64546f6b656e73206d75737460448201527f206265206d6f7265207468616e20696e2070726576696f7573207374616765006064820152608401610d21565b81611475876001612afb565b101561150657600061148b610701886001612afb565b509150508086116115045760405162461bcd60e51b815260206004820152603b60248201527f73657453616c6553746167653a206e657720656e64546f6b656e73206d75737460448201527f206265206c657373207468616e20696e206e65787420737461676500000000006064820152608401610d21565b505b604051806040016040528086815260200185815250600f878154811061153c57634e487b7160e01b600052603260045260246000fd5b60009182526020918290208351600290920201908155910151600190910155505050505050565b600061156e60085490565b82106115d15760405162461bcd60e51b815260206004820152602c60248201527f455243373231456e756d657261626c653a20676c6f62616c20696e646578206f60448201526b7574206f6620626f756e647360a01b6064820152608401610d21565b600882815481106115f257634e487b7160e01b600052603260045260246000fd5b90600052602060002001549050919050565b600080600080600f805490501161165d5760405162461bcd60e51b815260206004820152601760248201527f67657453616c6553746167653a206e6f207374616765730000000000000000006044820152606401610d21565b836116c0576000600f858154811061168557634e487b7160e01b600052603260045260246000fd5b6000918252602080832060408051808201909152600290930201805480845260019091015492909101829052919550909350915061177c9050565b6000600f6116cf866001612b07565b815481106116ed57634e487b7160e01b600052603260045260246000fd5b90600052602060002090600202016040518060400160405290816000820154815260200160018201548152505090506000600f868154811061173f57634e487b7160e01b600052603260045260246000fd5b60009182526020918290206040805180820190915260029092020180548083526001909101549190920181905292519550935090915061177c9050565b9193909250565b6117a760405180606001604052806000815260200160608152602001600081525090565b600e546117ed5760405162461bcd60e51b815260206004820152601460248201527367657442617463683a206e6f206261746368657360601b6044820152606401610d21565b600e80546117fd90600190613cb8565b8154811061181b57634e487b7160e01b600052603260045260246000fd5b90600052602060002090600302016000015482106118ac5760405162461bcd60e51b815260206004820152604260248201527f67657442617463683a20746f6b656e4964206d757374206265206c657373207460448201527f68656e206c61737420746f6b656e20696420696e206261746368657320617272606482015261617960f01b608482015260a401610d21565b60005b600e548110156119f257600e81815481106118da57634e487b7160e01b600052603260045260246000fd5b9060005260206000209060030201600001548311156118f8576119e0565b600e818154811061191957634e487b7160e01b600052603260045260246000fd5b90600052602060002090600302016040518060600160405290816000820154815260200160018201805461194c90613d12565b80601f016020809104026020016040519081016040528092919081815260200182805461197890613d12565b80156119c55780601f1061199a576101008083540402835291602001916119c5565b820191906000526020600020905b8154815290600101906020018083116119a857829003601f168201915b50505050508152602001600282015481525050915050919050565b806119ea81613d47565b9150506118af565b50919050565b6000818152600260205260408120546001600160a01b031680610bdc5760405162461bcd60e51b815260206004820152602960248201527f4552433732313a206f776e657220717565727920666f72206e6f6e657869737460448201526832b73a103a37b5b2b760b91b6064820152608401610d21565b7f353a39a17d3cf207ae9d7c37f85542d46b7264eb2c304b0943e66a7b54de5b27611a9a8133612680565b50601480546001600160a01b0319166001600160a01b0392909216919091179055565b6000818152600b60205260409020805460609190611ada90613d12565b80601f0160208091040260200160405190810160405280929190818152602001828054611b0690613d12565b8015611b535780601f10611b2857610100808354040283529160200191611b53565b820191906000526020600020905b815481529060010190602001808311611b3657829003601f168201915b50505050509050919050565b60006001600160a01b038216611bca5760405162461bcd60e51b815260206004820152602a60248201527f4552433732313a2062616c616e636520717565727920666f7220746865207a65604482015269726f206164647265737360b01b6064820152608401610d21565b506001600160a01b031660009081526003602052604090205490565b7f9aa164dc2052fa9a9eebee383f6617f557e14a8d068430567e50f1ac8348fdaa611c118133612680565b60008211611c745760405162461bcd60e51b815260206004820152602a60248201527f61646453616c6553746167653a20776569506572546f6b656e206d757374206260448201526965206e6f6e2d7a65726f60b01b6064820152608401610d21565b600f5480611cee5760008411611ce95760405162461bcd60e51b815260206004820152603460248201527f61646453616c6553746167653a20666972737420737461676520656e64546f6b604482015273656e73206d757374206265206e6f6e2d7a65726f60601b6064820152608401610d21565b611d79565b6000611cfe610701836001612b07565b50915050808511611d775760405162461bcd60e51b815260206004820152603a60248201527f61646453616c6553746167653a206e657720656e64546f6b656e73206d75737460448201527f206265206d6f7265207468616e2063757272656e74206c6173740000000000006064820152608401610d21565b505b50506040805180820190915282815260208101918252600f805460018101825560009190915290517f8d1108e10bcb7c27dddfc02ed9d693a074039d026cf4ea4240b40f7d581ac80260029092029182015590517f8d1108e10bcb7c27dddfc02ed9d693a074039d026cf4ea4240b40f7d581ac80390910155601055565b6000918252600a602090815260408084206001600160a01b0393909316845291905290205460ff1690565b606060018054610bf190613d12565b6001600160a01b038216331415611e8a5760405162461bcd60e51b815260206004820152601960248201527f4552433732313a20617070726f766520746f2063616c6c6572000000000000006044820152606401610d21565b3360008181526005602090815260408083206001600160a01b03871680855290835292819020805460ff191686151590811790915590519081529192917f17307eab39ab6107e8899845ad3d59bd9653f200f220920489ca2b5937696c31910160405180910390a35050565b600f5460009081611f0660085490565b90506000849050600080611f2d604051806040016040528060008152602001600081525090565b60005b8681101561203657600f8181548110611f5957634e487b7160e01b600052603260045260246000fd5b90600052602060002090600202016040518060400160405290816000820154815260200160018201548152505091508160000151861115611f9957612024565b8151611fa59087612b07565b9250841561201f5782851115611ff557611fd6611fcf836020015185612b1390919063ffffffff16565b8590612afb565b9350611fe28584612b07565b9450611fee8684612afb565b9550612024565b61200f611fcf836020015187612b1390919063ffffffff16565b600095509350611fee8686612afb565b612036565b8061202e81613d47565b915050611f30565b5091979650505050505050565b7f9f2df0fed2c77648de5860a4cc508cd0818c85b8b8a1ab4ceeef8d981c8956a661206e8133612680565b610e578383612b1f565b7fde99de62ff13877bfb32892f85138aa338f091ce421c1d80a3ed7cbd389e80906120a38133612680565b6000838152600c6020526040908190208390555183907fbc118caef5b83a02ad5f988c3550437e355b0c3e999d65e0652177448b97c886906120e89085815260200190565b60405180910390a2505050565b6120ff3383612752565b61211b5760405162461bcd60e51b8152600401610d2190613be0565b61212784848484612c52565b50505050565b7f27a0624e64a794e52337524177801654db9a21fcd4c18d902036cf6ff01b01596121588133612680565b60006012805461216790613d12565b9050116121b65760405162461bcd60e51b815260206004820152601f60248201527f73746172743a205f64656661756c7455726920697320756e646566696e6564006044820152606401610d21565b6014546001600160a01b031661220e5760405162461bcd60e51b815260206004820152601960248201527f73746172743a205661756c7420697320756e646566696e6564000000000000006044820152606401610d21565b50600d805460ff19166001179055565b600e54606090158061226e5750600e805461223b90600190613cb8565b8154811061225957634e487b7160e01b600052603260045260246000fd5b90600052602060002090600302016000015482115b156122805760128054611ada90613d12565b600061228b83611783565b60200151905060008151116122af57604051806020016040528060008152506122da565b806122b984612c85565b6040516020016122ca929190613a7b565b6040516020818303038152906040525b9392505050565b7f28eb28c26cbbd48a6bfad016505ccf4a189452995f59d16217af8920961ed25c61230c8133612680565b600e54821061236e5760405162461bcd60e51b815260206004820152602860248201527f64656c65746542617463683a20696e646578206f7574206f66206261746368656044820152670e640d8cadccee8d60c31b6064820152608401610d21565b600e828154811061238f57634e487b7160e01b600052603260045260246000fd5b600091825260208220600390910201818155906123af600183018261367c565b600282016000905550505050565b6000828152600a60205260409020600101546123d98133612680565b610e578383612a7a565b6014546001600160a01b031661243b5760405162461bcd60e51b815260206004820152601760248201527f6275793a205661756c7420697320756e646566696e65640000000000000000006044820152606401610d21565b6011548111156124b35760405162461bcd60e51b815260206004820152603b60248201527f6275793a20596f752063616e206e6f7420627579206d6f7265207468616e206d60448201527f6178507572636861736553697a65204e465473206174206f6e636500000000006064820152608401610d21565b346124bd82611ef6565b146125165760405162461bcd60e51b8152602060048201526024808201527f6275793a2045746865722076616c75652073656e74206973206e6f7420636f726044820152631c9958dd60e21b6064820152608401610d21565b600d5460ff166125685760405162461bcd60e51b815260206004820152601760248201527f6275793a2053616c65206973206e6f74206163746976650000000000000000006044820152606401610d21565b6014546040516001600160a01b03909116903480156108fc02916000818181858888f193505050501580156125a1573d6000803e3d6000fd5b506125ac3382612b1f565b50565b7f39cd503a0b2eaee938f7f4ad3dbbc18b726de35cc452a7d4ad616cf09de523dd6125da8133612680565b50601355565b7fadb1f90fb043c84ed13cea91e76d7bc7af0bfa59ad8c7e6c623c30a52b8f20a661260b8133612680565b6000838152600b60209081526040909120835161262a928501906135f8565b50827f7e632a301794d8d4a81ea7e20f37d1947158d36e66403af04ba85dd194b66f1b836040516120e89190613b7b565b60006001600160e01b03198216637965db0b60e01b1480610bdc5750610bdc82612d9f565b61268a8282611df7565b6111ee576126a2816001600160a01b03166014612dc4565b6126ad836020612dc4565b6040516020016126be929190613ac9565b60408051601f198184030181529082905262461bcd60e51b8252610d2191600401613b7b565b600081815260046020526040902080546001600160a01b0319166001600160a01b0384169081179091558190612719826119f8565b6001600160a01b03167f8c5be1e5ebec7d5bd14f71427d1e84f3dd0314c0f7b2291e5b200ac8c7c3b92560405160405180910390a45050565b6000818152600260205260408120546001600160a01b03166127cb5760405162461bcd60e51b815260206004820152602c60248201527f4552433732313a206f70657261746f7220717565727920666f72206e6f6e657860448201526b34b9ba32b73a103a37b5b2b760a11b6064820152608401610d21565b60006127d6836119f8565b9050806001600160a01b0316846001600160a01b031614806128115750836001600160a01b031661280684610cac565b6001600160a01b0316145b8061284157506001600160a01b0380821660009081526005602090815260408083209388168352929052205460ff165b949350505050565b826001600160a01b031661285c826119f8565b6001600160a01b0316146128c45760405162461bcd60e51b815260206004820152602960248201527f4552433732313a207472616e73666572206f6620746f6b656e2074686174206960448201526839903737ba1037bbb760b91b6064820152608401610d21565b6001600160a01b0382166129265760405162461bcd60e51b8152602060048201526024808201527f4552433732313a207472616e7366657220746f20746865207a65726f206164646044820152637265737360e01b6064820152608401610d21565b612931838383612fa6565b61293c6000826126e4565b6001600160a01b0383166000908152600360205260408120805460019290612965908490613cb8565b90915550506001600160a01b0382166000908152600360205260408120805460019290612993908490613c6d565b909155505060008181526002602052604080822080546001600160a01b0319166001600160a01b0386811691821790925591518493918716917fddf252ad1be2c89b69c2b068fc378daa952ba7f163c4a11628f55a4df523b3ef91a4505050565b6129fe8282611df7565b6111ee576000828152600a602090815260408083206001600160a01b03851684529091529020805460ff19166001179055612a363390565b6001600160a01b0316816001600160a01b0316837f2f8788117e7eff1d82e926ec794901d17c78024a50270940304540a733656f0d60405160405180910390a45050565b612a848282611df7565b156111ee576000828152600a602090815260408083206001600160a01b0385168085529252808320805460ff1916905551339285917ff6391f5c32d9c69d2a47ea670b442974b53935d1edc7fd64eb21e047a839171b9190a45050565b6111ee828260405180602001604052806000815250613013565b60006122da8284613c6d565b60006122da8284613cb8565b60006122da8284613c99565b60105460085410612b725760405162461bcd60e51b815260206004820152601b60248201527f6275793a2053616c652068617320616c726561647920656e64656400000000006044820152606401610d21565b60008111612bba5760405162461bcd60e51b815260206004820152601560248201527406275793a206e6674732063616e6e6f74206265203605c1b6044820152606401610d21565b601054612bd082612bca60085490565b90612afb565b1115612c1e5760405162461bcd60e51b815260206004820152601c60248201527f6275793a2045786365656473205f6d6178546f74616c537570706c79000000006044820152606401610d21565b60005b81811015610e57576000612c33613046565b9050612c3f8482612ae1565b5080612c4a81613d47565b915050612c21565b612c5d848484612849565b612c69848484846130db565b6121275760405162461bcd60e51b8152600401610d2190613b8e565b606081612ca95750506040805180820190915260018152600360fc1b602082015290565b8160005b8115612cd35780612cbd81613d47565b9150612ccc9050600a83613c85565b9150612cad565b60008167ffffffffffffffff811115612cfc57634e487b7160e01b600052604160045260246000fd5b6040519080825280601f01601f191660200182016040528015612d26576020820181803683370190505b5090505b841561284157612d3b600183613cb8565b9150612d48600a86613d62565b612d53906030613c6d565b60f81b818381518110612d7657634e487b7160e01b600052603260045260246000fd5b60200101906001600160f81b031916908160001a905350612d98600a86613c85565b9450612d2a565b60006001600160e01b0319821663780e9d6360e01b1480610bdc5750610bdc826131e8565b60606000612dd3836002613c99565b612dde906002613c6d565b67ffffffffffffffff811115612e0457634e487b7160e01b600052604160045260246000fd5b6040519080825280601f01601f191660200182016040528015612e2e576020820181803683370190505b509050600360fc1b81600081518110612e5757634e487b7160e01b600052603260045260246000fd5b60200101906001600160f81b031916908160001a905350600f60fb1b81600181518110612e9457634e487b7160e01b600052603260045260246000fd5b60200101906001600160f81b031916908160001a9053506000612eb8846002613c99565b612ec3906001613c6d565b90505b6001811115612f57576f181899199a1a9b1b9c1cb0b131b232b360811b85600f1660108110612f0557634e487b7160e01b600052603260045260246000fd5b1a60f81b828281518110612f2957634e487b7160e01b600052603260045260246000fd5b60200101906001600160f81b031916908160001a90535060049490941c93612f5081613cfb565b9050612ec6565b5083156122da5760405162461bcd60e51b815260206004820181905260248201527f537472696e67733a20686578206c656e67746820696e73756666696369656e746044820152606401610d21565b612fb1838383613238565b6001600160a01b038316610e57576010546008541115610e575760405162461bcd60e51b815260206004820152601e60248201527f436f6c6c656374696f6e3a206d6178537570706c7920616368696576656400006044820152606401610d21565b61301d83836132f0565b61302a60008484846130db565b610e575760405162461bcd60e51b8152600401610d2190613b8e565b600080601054425a613059600143613cb8565b6040805160208101949094528301919091524060608201526080016040516020818303038152906040528051906020012060001c6130979190613d62565b90505b6000818152600260205260409020546001600160a01b0316156130d6576130c2600182613c6d565b905060105481106130d1575060005b61309a565b919050565b60006001600160a01b0384163b156131dd57604051630a85bd0160e11b81526001600160a01b0385169063150b7a029061311f903390899088908890600401613b3e565b602060405180830381600087803b15801561313957600080fd5b505af1925050508015613169575060408051601f3d908101601f1916820190925261316691810190613921565b60015b6131c3573d808015613197576040519150601f19603f3d011682016040523d82523d6000602084013e61319c565b606091505b5080516131bb5760405162461bcd60e51b8152600401610d2190613b8e565b805181602001fd5b6001600160e01b031916630a85bd0160e11b149050612841565b506001949350505050565b60006001600160e01b031982166380ac58cd60e01b148061321957506001600160e01b03198216635b5e139f60e01b145b80610bdc57506301ffc9a760e01b6001600160e01b0319831614610bdc565b6001600160a01b0383166132935761328e81600880546000838152600960205260408120829055600182018355919091527ff3f7a9fe364faab93b216da50a3214154f22a0a2b415b23a84c8169e8b636ee30155565b6132b6565b816001600160a01b0316836001600160a01b0316146132b6576132b6838261343e565b6001600160a01b0382166132cd57610e57816134db565b826001600160a01b0316826001600160a01b031614610e5757610e5782826135b4565b6001600160a01b0382166133465760405162461bcd60e51b815260206004820181905260248201527f4552433732313a206d696e7420746f20746865207a65726f20616464726573736044820152606401610d21565b6000818152600260205260409020546001600160a01b0316156133ab5760405162461bcd60e51b815260206004820152601c60248201527f4552433732313a20746f6b656e20616c7265616479206d696e746564000000006044820152606401610d21565b6133b760008383612fa6565b6001600160a01b03821660009081526003602052604081208054600192906133e0908490613c6d565b909155505060008181526002602052604080822080546001600160a01b0319166001600160a01b03861690811790915590518392907fddf252ad1be2c89b69c2b068fc378daa952ba7f163c4a11628f55a4df523b3ef908290a45050565b6000600161344b84611b5f565b6134559190613cb8565b6000838152600760205260409020549091508082146134a8576001600160a01b03841660009081526006602090815260408083208584528252808320548484528184208190558352600790915290208190555b5060009182526007602090815260408084208490556001600160a01b039094168352600681528383209183525290812055565b6008546000906134ed90600190613cb8565b6000838152600960205260408120546008805493945090928490811061352357634e487b7160e01b600052603260045260246000fd5b90600052602060002001549050806008838154811061355257634e487b7160e01b600052603260045260246000fd5b600091825260208083209091019290925582815260099091526040808220849055858252812055600880548061359857634e487b7160e01b600052603160045260246000fd5b6001900381819060005260206000200160009055905550505050565b60006135bf83611b5f565b6001600160a01b039093166000908152600660209081526040808320868452825280832085905593825260079052919091209190915550565b82805461360490613d12565b90600052602060002090601f016020900481019282613626576000855561366c565b82601f1061363f57805160ff191683800117855561366c565b8280016001018555821561366c579182015b8281111561366c578251825591602001919060010190613651565b506136789291506136b2565b5090565b50805461368890613d12565b6000825580601f10613698575050565b601f0160209004906000526020600020908101906125ac91905b5b8082111561367857600081556001016136b3565b600067ffffffffffffffff808411156136e2576136e2613da2565b604051601f8501601f19908116603f0116810190828211818310171561370a5761370a613da2565b8160405280935085815286868601111561372357600080fd5b858560208301376000602087830101525050509392505050565b600082601f83011261374d578081fd5b6122da838335602085016136c7565b60006020828403121561376d578081fd5b81356122da81613db8565b6000806040838503121561378a578081fd5b823561379581613db8565b915060208301356137a581613db8565b809150509250929050565b6000806000606084860312156137c4578081fd5b83356137cf81613db8565b925060208401356137df81613db8565b929592945050506040919091013590565b60008060008060808587031215613805578081fd5b843561381081613db8565b9350602085013561382081613db8565b925060408501359150606085013567ffffffffffffffff811115613842578182fd5b8501601f81018713613852578182fd5b613861878235602084016136c7565b91505092959194509250565b6000806040838503121561387f578182fd5b823561388a81613db8565b9150602083013580151581146137a5578182fd5b600080604083850312156138b0578182fd5b82356138bb81613db8565b946020939093013593505050565b6000602082840312156138da578081fd5b5035919050565b600080604083850312156138f3578182fd5b8235915060208301356137a581613db8565b600060208284031215613916578081fd5b81356122da81613dcd565b600060208284031215613932578081fd5b81516122da81613dcd565b60006020828403121561394e578081fd5b813567ffffffffffffffff811115613964578182fd5b6128418482850161373d565b60008060408385031215613982578081fd5b82359150602083013567ffffffffffffffff81111561399f578182fd5b6139ab8582860161373d565b9150509250929050565b6000806000606084860312156139c9578081fd5b83359250602084013567ffffffffffffffff8111156139e6578182fd5b6139f28682870161373d565b925050604084013590509250925092565b60008060408385031215613a15578182fd5b50508035926020909101359150565b600080600060608486031215613a38578081fd5b505081359360208301359350604090920135919050565b60008151808452613a67816020860160208601613ccf565b601f01601f19169290920160200192915050565b60008351613a8d818460208801613ccf565b602f60f81b9083019081528351613aab816001840160208801613ccf565b64173539b7b760d91b60019290910191820152600601949350505050565b7f416363657373436f6e74726f6c3a206163636f756e7420000000000000000000815260008351613b01816017850160208801613ccf565b7001034b99036b4b9b9b4b733903937b6329607d1b6017918401918201528351613b32816028840160208801613ccf565b01602801949350505050565b6001600160a01b0385811682528416602082015260408101839052608060608201819052600090613b7190830184613a4f565b9695505050505050565b6020815260006122da6020830184613a4f565b60208082526032908201527f4552433732313a207472616e7366657220746f206e6f6e20455243373231526560408201527131b2b4bb32b91034b6b83632b6b2b73a32b960711b606082015260800190565b60208082526031908201527f4552433732313a207472616e736665722063616c6c6572206973206e6f74206f6040820152701ddb995c881b9bdc88185c1c1c9bdd9959607a1b606082015260800190565b60208152815160208201526000602083015160606040840152613c576080840182613a4f565b9050604084015160608401528091505092915050565b60008219821115613c8057613c80613d76565b500190565b600082613c9457613c94613d8c565b500490565b6000816000190483118215151615613cb357613cb3613d76565b500290565b600082821015613cca57613cca613d76565b500390565b60005b83811015613cea578181015183820152602001613cd2565b838111156121275750506000910152565b600081613d0a57613d0a613d76565b506000190190565b600181811c90821680613d2657607f821691505b602082108114156119f257634e487b7160e01b600052602260045260246000fd5b6000600019821415613d5b57613d5b613d76565b5060010190565b600082613d7157613d71613d8c565b500690565b634e487b7160e01b600052601160045260246000fd5b634e487b7160e01b600052601260045260246000fd5b634e487b7160e01b600052604160045260246000fd5b6001600160a01b03811681146125ac57600080fd5b6001600160e01b0319811681146125ac57600080fdfea2646970667358221220e1c2eec3e1810027932a95c8ba2e57ded723764df2019d8638dcf92377190d4164736f6c63430008040033",
  "devdoc": {
    "kind": "dev",
    "methods": {
      "approve(address,uint256)": {
        "details": "See {IERC721-approve}."
      },
      "balanceOf(address)": {
        "details": "See {IERC721-balanceOf}."
      },
      "getApproved(uint256)": {
        "details": "See {IERC721-getApproved}."
      },
      "getName(uint256)": {
        "details": "Returns name of the NFT at index"
      },
      "getRarity(uint256)": {
        "details": "Returns rarity of the NFT at token Id"
      },
      "getRoleAdmin(bytes32)": {
        "details": "Returns the admin role that controls `role`. See {grantRole} and {revokeRole}. To change a role's admin, use {_setRoleAdmin}."
      },
      "getSkill(uint256)": {
        "details": "Returns skill of the NFT at index"
      },
      "grantRole(bytes32,address)": {
        "details": "Grants `role` to `account`. If `account` had not been already granted `role`, emits a {RoleGranted} event. Requirements: - the caller must have ``role``'s admin role."
      },
      "hasRole(bytes32,address)": {
        "details": "Returns `true` if `account` has been granted `role`."
      },
      "isApprovedForAll(address,address)": {
        "details": "See {IERC721-isApprovedForAll}."
      },
      "name()": {
        "details": "See {IERC721Metadata-name}."
      },
      "ownerOf(uint256)": {
        "details": "See {IERC721-ownerOf}."
      },
      "renounceRole(bytes32,address)": {
        "details": "Revokes `role` from the calling account. Roles are often managed via {grantRole} and {revokeRole}: this function's purpose is to provide a mechanism for accounts to lose their privileges if they are compromised (such as when a trusted device is misplaced). If the calling account had been granted `role`, emits a {RoleRevoked} event. Requirements: - the caller must be `account`."
      },
      "revokeRole(bytes32,address)": {
        "details": "Revokes `role` from `account`. If `account` had been granted `role`, emits a {RoleRevoked} event. Requirements: - the caller must have ``role``'s admin role."
      },
      "safeTransferFrom(address,address,uint256)": {
        "details": "See {IERC721-safeTransferFrom}."
      },
      "safeTransferFrom(address,address,uint256,bytes)": {
        "details": "See {IERC721-safeTransferFrom}."
      },
      "setApprovalForAll(address,bool)": {
        "details": "See {IERC721-setApprovalForAll}."
      },
      "setDefaultRarity(uint256)": {
        "details": "Set defaultRarity."
      },
      "setDefaultUri(string)": {
        "details": "Set defaultUri."
      },
      "setMaxPurchaseSize(uint256)": {
        "details": "Change max purchase size."
      },
      "setName(uint256,string)": {
        "details": "Change token name"
      },
      "setSkill(uint256,uint256)": {
        "details": "Change token skill"
      },
      "setVault(address)": {
        "details": "Change vault."
      },
      "start()": {
        "details": "Starts sale"
      },
      "stop()": {
        "details": "Stops sale"
      },
      "supportsInterface(bytes4)": {
        "details": "See {IERC165-supportsInterface}."
      },
      "symbol()": {
        "details": "See {IERC721Metadata-symbol}."
      },
      "tokenByIndex(uint256)": {
        "details": "See {IERC721Enumerable-tokenByIndex}."
      },
      "tokenOfOwnerByIndex(address,uint256)": {
        "details": "See {IERC721Enumerable-tokenOfOwnerByIndex}."
      },
      "totalSupply()": {
        "details": "See {IERC721Enumerable-totalSupply}."
      },
      "transferFrom(address,address,uint256)": {
        "details": "See {IERC721-transferFrom}."
      }
    },
    "version": 1
  },
  "userdoc": {
    "kind": "user",
    "methods": {
      "addBatch(uint256,string,uint256)": {
        "notice": "Add tokens batch to batches array"
      },
      "addSaleStage(uint256,uint256)": {
        "notice": "Adds new sale stage with given params at the end of `saleStages array`."
      },
      "buy(uint256)": {
        "notice": "Method to purchase and get random available NFTs."
      },
      "deleteBatch(uint256)": {
        "notice": "Removes batch at the given index"
      },
      "getBatch(uint256)": {
        "notice": "Return token batch URI"
      },
      "getSaleStage(uint256)": {
        "notice": "Returns info about sale stage with given index."
      },
      "getTotalPriceFor(uint256)": {
        "notice": "Returns summary price for given number of tokens."
      },
      "maxTotalSupply()": {
        "notice": "Returns current `_maxTotalSupply` value."
      },
      "mintMultiple(address,uint256)": {
        "notice": "Mint a set of random NFTs without purchase (for MINTER_ROLE only)."
      },
      "saleStagesLength()": {
        "notice": "Returns current `_saleStages` array length."
      },
      "setSaleStage(uint256,uint256,uint256)": {
        "notice": "Rewrites sale stage properties with given index."
      },
      "tokenURI(uint256)": {
        "notice": "Return tokenURI"
      }
    },
    "version": 1
  },
  "storageLayout": {
    "storage": [
      {
        "astId": 393,
        "contract": "contracts/Collection.sol:Collection",
        "label": "_name",
        "offset": 0,
        "slot": "0",
        "type": "t_string_storage"
      },
      {
        "astId": 395,
        "contract": "contracts/Collection.sol:Collection",
        "label": "_symbol",
        "offset": 0,
        "slot": "1",
        "type": "t_string_storage"
      },
      {
        "astId": 399,
        "contract": "contracts/Collection.sol:Collection",
        "label": "_owners",
        "offset": 0,
        "slot": "2",
        "type": "t_mapping(t_uint256,t_address)"
      },
      {
        "astId": 403,
        "contract": "contracts/Collection.sol:Collection",
        "label": "_balances",
        "offset": 0,
        "slot": "3",
        "type": "t_mapping(t_address,t_uint256)"
      },
      {
        "astId": 407,
        "contract": "contracts/Collection.sol:Collection",
        "label": "_tokenApprovals",
        "offset": 0,
        "slot": "4",
        "type": "t_mapping(t_uint256,t_address)"
      },
      {
        "astId": 413,
        "contract": "contracts/Collection.sol:Collection",
        "label": "_operatorApprovals",
        "offset": 0,
        "slot": "5",
        "type": "t_mapping(t_address,t_mapping(t_address,t_bool))"
      },
      {
        "astId": 1334,
        "contract": "contracts/Collection.sol:Collection",
        "label": "_ownedTokens",
        "offset": 0,
        "slot": "6",
        "type": "t_mapping(t_address,t_mapping(t_uint256,t_uint256))"
      },
      {
        "astId": 1338,
        "contract": "contracts/Collection.sol:Collection",
        "label": "_ownedTokensIndex",
        "offset": 0,
        "slot": "7",
        "type": "t_mapping(t_uint256,t_uint256)"
      },
      {
        "astId": 1341,
        "contract": "contracts/Collection.sol:Collection",
        "label": "_allTokens",
        "offset": 0,
        "slot": "8",
        "type": "t_array(t_uint256)dyn_storage"
      },
      {
        "astId": 1345,
        "contract": "contracts/Collection.sol:Collection",
        "label": "_allTokensIndex",
        "offset": 0,
        "slot": "9",
        "type": "t_mapping(t_uint256,t_uint256)"
      },
      {
        "astId": 62,
        "contract": "contracts/Collection.sol:Collection",
        "label": "_roles",
        "offset": 0,
        "slot": "10",
        "type": "t_mapping(t_bytes32,t_struct(RoleData)57_storage)"
      },
      {
        "astId": 2611,
        "contract": "contracts/Collection.sol:Collection",
        "label": "_tokenName",
        "offset": 0,
        "slot": "11",
        "type": "t_mapping(t_uint256,t_string_storage)"
      },
      {
        "astId": 2615,
        "contract": "contracts/Collection.sol:Collection",
        "label": "_tokenSkill",
        "offset": 0,
        "slot": "12",
        "type": "t_mapping(t_uint256,t_uint256)"
      },
      {
        "astId": 2618,
        "contract": "contracts/Collection.sol:Collection",
        "label": "saleActive",
        "offset": 0,
        "slot": "13",
        "type": "t_bool"
      },
      {
        "astId": 2640,
        "contract": "contracts/Collection.sol:Collection",
        "label": "_batches",
        "offset": 0,
        "slot": "14",
        "type": "t_array(t_struct(Batch)2636_storage)dyn_storage"
      },
      {
        "astId": 2644,
        "contract": "contracts/Collection.sol:Collection",
        "label": "_saleStages",
        "offset": 0,
        "slot": "15",
        "type": "t_array(t_struct(SaleStage)2629_storage)dyn_storage"
      },
      {
        "astId": 2647,
        "contract": "contracts/Collection.sol:Collection",
        "label": "_maxTotalSupply",
        "offset": 0,
        "slot": "16",
        "type": "t_uint256"
      },
      {
        "astId": 2650,
        "contract": "contracts/Collection.sol:Collection",
        "label": "maxPurchaseSize",
        "offset": 0,
        "slot": "17",
        "type": "t_uint256"
      },
      {
        "astId": 2652,
        "contract": "contracts/Collection.sol:Collection",
        "label": "_defaultUri",
        "offset": 0,
        "slot": "18",
        "type": "t_string_storage"
      },
      {
        "astId": 2654,
        "contract": "contracts/Collection.sol:Collection",
        "label": "_defaultRarity",
        "offset": 0,
        "slot": "19",
        "type": "t_uint256"
      },
      {
        "astId": 2706,
        "contract": "contracts/Collection.sol:Collection",
        "label": "vault",
        "offset": 0,
        "slot": "20",
        "type": "t_address_payable"
      }
    ],
    "types": {
      "t_address": {
        "encoding": "inplace",
        "label": "address",
        "numberOfBytes": "20"
      },
      "t_address_payable": {
        "encoding": "inplace",
        "label": "address payable",
        "numberOfBytes": "20"
      },
      "t_array(t_struct(Batch)2636_storage)dyn_storage": {
        "base": "t_struct(Batch)2636_storage",
        "encoding": "dynamic_array",
        "label": "struct Collection.Batch[]",
        "numberOfBytes": "32"
      },
      "t_array(t_struct(SaleStage)2629_storage)dyn_storage": {
        "base": "t_struct(SaleStage)2629_storage",
        "encoding": "dynamic_array",
        "label": "struct Collection.SaleStage[]",
        "numberOfBytes": "32"
      },
      "t_array(t_uint256)dyn_storage": {
        "base": "t_uint256",
        "encoding": "dynamic_array",
        "label": "uint256[]",
        "numberOfBytes": "32"
      },
      "t_bool": {
        "encoding": "inplace",
        "label": "bool",
        "numberOfBytes": "1"
      },
      "t_bytes32": {
        "encoding": "inplace",
        "label": "bytes32",
        "numberOfBytes": "32"
      },
      "t_mapping(t_address,t_bool)": {
        "encoding": "mapping",
        "key": "t_address",
        "label": "mapping(address => bool)",
        "numberOfBytes": "32",
        "value": "t_bool"
      },
      "t_mapping(t_address,t_mapping(t_address,t_bool))": {
        "encoding": "mapping",
        "key": "t_address",
        "label": "mapping(address => mapping(address => bool))",
        "numberOfBytes": "32",
        "value": "t_mapping(t_address,t_bool)"
      },
      "t_mapping(t_address,t_mapping(t_uint256,t_uint256))": {
        "encoding": "mapping",
        "key": "t_address",
        "label": "mapping(address => mapping(uint256 => uint256))",
        "numberOfBytes": "32",
        "value": "t_mapping(t_uint256,t_uint256)"
      },
      "t_mapping(t_address,t_uint256)": {
        "encoding": "mapping",
        "key": "t_address",
        "label": "mapping(address => uint256)",
        "numberOfBytes": "32",
        "value": "t_uint256"
      },
      "t_mapping(t_bytes32,t_struct(RoleData)57_storage)": {
        "encoding": "mapping",
        "key": "t_bytes32",
        "label": "mapping(bytes32 => struct AccessControl.RoleData)",
        "numberOfBytes": "32",
        "value": "t_struct(RoleData)57_storage"
      },
      "t_mapping(t_uint256,t_address)": {
        "encoding": "mapping",
        "key": "t_uint256",
        "label": "mapping(uint256 => address)",
        "numberOfBytes": "32",
        "value": "t_address"
      },
      "t_mapping(t_uint256,t_string_storage)": {
        "encoding": "mapping",
        "key": "t_uint256",
        "label": "mapping(uint256 => string)",
        "numberOfBytes": "32",
        "value": "t_string_storage"
      },
      "t_mapping(t_uint256,t_uint256)": {
        "encoding": "mapping",
        "key": "t_uint256",
        "label": "mapping(uint256 => uint256)",
        "numberOfBytes": "32",
        "value": "t_uint256"
      },
      "t_string_storage": {
        "encoding": "bytes",
        "label": "string",
        "numberOfBytes": "32"
      },
      "t_struct(Batch)2636_storage": {
        "encoding": "inplace",
        "label": "struct Collection.Batch",
        "members": [
          {
            "astId": 2631,
            "contract": "contracts/Collection.sol:Collection",
            "label": "endId",
            "offset": 0,
            "slot": "0",
            "type": "t_uint256"
          },
          {
            "astId": 2633,
            "contract": "contracts/Collection.sol:Collection",
            "label": "baseURI",
            "offset": 0,
            "slot": "1",
            "type": "t_string_storage"
          },
          {
            "astId": 2635,
            "contract": "contracts/Collection.sol:Collection",
            "label": "rarity",
            "offset": 0,
            "slot": "2",
            "type": "t_uint256"
          }
        ],
        "numberOfBytes": "96"
      },
      "t_struct(RoleData)57_storage": {
        "encoding": "inplace",
        "label": "struct AccessControl.RoleData",
        "members": [
          {
            "astId": 54,
            "contract": "contracts/Collection.sol:Collection",
            "label": "members",
            "offset": 0,
            "slot": "0",
            "type": "t_mapping(t_address,t_bool)"
          },
          {
            "astId": 56,
            "contract": "contracts/Collection.sol:Collection",
            "label": "adminRole",
            "offset": 0,
            "slot": "1",
            "type": "t_bytes32"
          }
        ],
        "numberOfBytes": "64"
      },
      "t_struct(SaleStage)2629_storage": {
        "encoding": "inplace",
        "label": "struct Collection.SaleStage",
        "members": [
          {
            "astId": 2626,
            "contract": "contracts/Collection.sol:Collection",
            "label": "endTokens",
            "offset": 0,
            "slot": "0",
            "type": "t_uint256"
          },
          {
            "astId": 2628,
            "contract": "contracts/Collection.sol:Collection",
            "label": "weiPerToken",
            "offset": 0,
            "slot": "1",
            "type": "t_uint256"
          }
        ],
        "numberOfBytes": "64"
      },
      "t_uint256": {
        "encoding": "inplace",
        "label": "uint256",
        "numberOfBytes": "32"
      }
    }
  }
}