{
  "address": "0x881DF125197b3DE62287FcCe6aBfEaF7e0816cAf",
  "abi": [
    {
      "anonymous": false,
      "inputs": [
        {
          "indexed": true,
          "internalType": "address",
          "name": "owner",
          "type": "address"
        },
        {
          "indexed": true,
          "internalType": "address",
          "name": "approved",
          "type": "address"
        },
        {
          "indexed": true,
          "internalType": "uint256",
          "name": "tokenId",
          "type": "uint256"
        }
      ],
      "name": "Approval",
      "type": "event"
    },
    {
      "anonymous": false,
      "inputs": [
        {
          "indexed": true,
          "internalType": "address",
          "name": "owner",
          "type": "address"
        },
        {
          "indexed": true,
          "internalType": "address",
          "name": "operator",
          "type": "address"
        },
        {
          "indexed": false,
          "internalType": "bool",
          "name": "approved",
          "type": "bool"
        }
      ],
      "name": "ApprovalForAll",
      "type": "event"
    },
    {
      "anonymous": false,
      "inputs": [
        {
          "indexed": true,
          "internalType": "address",
          "name": "_from",
          "type": "address"
        },
        {
          "indexed": false,
          "internalType": "uint256",
          "name": "nfts",
          "type": "uint256"
        },
        {
          "indexed": false,
          "internalType": "address",
          "name": "referral",
          "type": "address"
        }
      ],
      "name": "Buy",
      "type": "event"
    },
    {
      "anonymous": false,
      "inputs": [
        {
          "indexed": true,
          "internalType": "uint256",
          "name": "index",
          "type": "uint256"
        },
        {
          "indexed": false,
          "internalType": "uint256",
          "name": "newDna",
          "type": "uint256"
        }
      ],
      "name": "DnaChange",
      "type": "event"
    },
    {
      "anonymous": false,
      "inputs": [
        {
          "indexed": true,
          "internalType": "uint256",
          "name": "index",
          "type": "uint256"
        },
        {
          "indexed": false,
          "internalType": "string",
          "name": "newName",
          "type": "string"
        }
      ],
      "name": "NameChange",
      "type": "event"
    },
    {
      "anonymous": false,
      "inputs": [
        {
          "indexed": true,
          "internalType": "bytes32",
          "name": "role",
          "type": "bytes32"
        },
        {
          "indexed": true,
          "internalType": "bytes32",
          "name": "previousAdminRole",
          "type": "bytes32"
        },
        {
          "indexed": true,
          "internalType": "bytes32",
          "name": "newAdminRole",
          "type": "bytes32"
        }
      ],
      "name": "RoleAdminChanged",
      "type": "event"
    },
    {
      "anonymous": false,
      "inputs": [
        {
          "indexed": true,
          "internalType": "bytes32",
          "name": "role",
          "type": "bytes32"
        },
        {
          "indexed": true,
          "internalType": "address",
          "name": "account",
          "type": "address"
        },
        {
          "indexed": true,
          "internalType": "address",
          "name": "sender",
          "type": "address"
        }
      ],
      "name": "RoleGranted",
      "type": "event"
    },
    {
      "anonymous": false,
      "inputs": [
        {
          "indexed": true,
          "internalType": "bytes32",
          "name": "role",
          "type": "bytes32"
        },
        {
          "indexed": true,
          "internalType": "address",
          "name": "account",
          "type": "address"
        },
        {
          "indexed": true,
          "internalType": "address",
          "name": "sender",
          "type": "address"
        }
      ],
      "name": "RoleRevoked",
      "type": "event"
    },
    {
      "anonymous": false,
      "inputs": [
        {
          "indexed": true,
          "internalType": "uint256",
          "name": "index",
          "type": "uint256"
        },
        {
          "indexed": false,
          "internalType": "uint256",
          "name": "newSkill",
          "type": "uint256"
        }
      ],
      "name": "SkillChange",
      "type": "event"
    },
    {
      "anonymous": false,
      "inputs": [
        {
          "indexed": true,
          "internalType": "address",
          "name": "from",
          "type": "address"
        },
        {
          "indexed": true,
          "internalType": "address",
          "name": "to",
          "type": "address"
        },
        {
          "indexed": true,
          "internalType": "uint256",
          "name": "tokenId",
          "type": "uint256"
        }
      ],
      "name": "Transfer",
      "type": "event"
    },
    {
      "inputs": [],
      "name": "DEFAULT_ADMIN_ROLE",
      "outputs": [
        {
          "internalType": "bytes32",
          "name": "",
          "type": "bytes32"
        }
      ],
      "stateMutability": "view",
      "type": "function"
    },
    {
      "inputs": [],
      "name": "DNA_SETTER_ROLE",
      "outputs": [
        {
          "internalType": "bytes32",
          "name": "",
          "type": "bytes32"
        }
      ],
      "stateMutability": "view",
      "type": "function"
    },
    {
      "inputs": [],
      "name": "MINTER_ROLE",
      "outputs": [
        {
          "internalType": "bytes32",
          "name": "",
          "type": "bytes32"
        }
      ],
      "stateMutability": "view",
      "type": "function"
    },
    {
      "inputs": [],
      "name": "NAME_SETTER_ROLE",
      "outputs": [
        {
          "internalType": "bytes32",
          "name": "",
          "type": "bytes32"
        }
      ],
      "stateMutability": "view",
      "type": "function"
    },
    {
      "inputs": [],
      "name": "SKILL_SETTER_ROLE",
      "outputs": [
        {
          "internalType": "bytes32",
          "name": "",
          "type": "bytes32"
        }
      ],
      "stateMutability": "view",
      "type": "function"
    },
    {
      "inputs": [
        {
          "internalType": "uint256",
          "name": "startTokenId",
          "type": "uint256"
        },
        {
          "internalType": "uint256",
          "name": "endTokenId",
          "type": "uint256"
        },
        {
          "internalType": "string",
          "name": "baseURI",
          "type": "string"
        },
        {
          "internalType": "uint256",
          "name": "rarity",
          "type": "uint256"
        }
      ],
      "name": "addBatch",
      "outputs": [],
      "stateMutability": "nonpayable",
      "type": "function"
    },
    {
      "inputs": [
        {
          "internalType": "uint256",
          "name": "startTokensBought",
          "type": "uint256"
        },
        {
          "internalType": "uint256",
          "name": "endTokensBought",
          "type": "uint256"
        },
        {
          "internalType": "uint256",
          "name": "weiPerToken",
          "type": "uint256"
        }
      ],
      "name": "addSaleStage",
      "outputs": [],
      "stateMutability": "nonpayable",
      "type": "function"
    },
    {
      "inputs": [
        {
          "internalType": "address",
          "name": "to",
          "type": "address"
        },
        {
          "internalType": "uint256",
          "name": "tokenId",
          "type": "uint256"
        }
      ],
      "name": "approve",
      "outputs": [],
      "stateMutability": "nonpayable",
      "type": "function"
    },
    {
      "inputs": [
        {
          "internalType": "address",
          "name": "owner",
          "type": "address"
        }
      ],
      "name": "balanceOf",
      "outputs": [
        {
          "internalType": "uint256",
          "name": "",
          "type": "uint256"
        }
      ],
      "stateMutability": "view",
      "type": "function"
    },
    {
      "inputs": [],
      "name": "batchesLength",
      "outputs": [
        {
          "internalType": "uint256",
          "name": "",
          "type": "uint256"
        }
      ],
      "stateMutability": "view",
      "type": "function"
    },
    {
      "inputs": [
        {
          "internalType": "uint256",
          "name": "nfts",
          "type": "uint256"
        },
        {
          "internalType": "address",
          "name": "referral",
          "type": "address"
        }
      ],
      "name": "buy",
      "outputs": [],
      "stateMutability": "payable",
      "type": "function"
    },
    {
      "inputs": [
        {
          "internalType": "uint256",
          "name": "batchIndex",
          "type": "uint256"
        }
      ],
      "name": "deleteBatch",
      "outputs": [],
      "stateMutability": "nonpayable",
      "type": "function"
    },
    {
      "inputs": [
        {
          "internalType": "uint256",
          "name": "saleStageIndex",
          "type": "uint256"
        }
      ],
      "name": "deleteSaleStage",
      "outputs": [],
      "stateMutability": "nonpayable",
      "type": "function"
    },
    {
      "inputs": [
        {
          "internalType": "uint256",
          "name": "tokenId",
          "type": "uint256"
        }
      ],
      "name": "getApproved",
      "outputs": [
        {
          "internalType": "address",
          "name": "",
          "type": "address"
        }
      ],
      "stateMutability": "view",
      "type": "function"
    },
    {
      "inputs": [
        {
          "internalType": "uint256",
          "name": "batchIndex",
          "type": "uint256"
        }
      ],
      "name": "getBatch",
      "outputs": [
        {
          "components": [
            {
              "internalType": "uint256",
              "name": "startBatchTokenId",
              "type": "uint256"
            },
            {
              "internalType": "uint256",
              "name": "endBatchTokenId",
              "type": "uint256"
            },
            {
              "internalType": "string",
              "name": "baseURI",
              "type": "string"
            },
            {
              "internalType": "uint256",
              "name": "rarity",
              "type": "uint256"
            }
          ],
          "internalType": "struct Collection.Batch",
          "name": "",
          "type": "tuple"
        }
      ],
      "stateMutability": "view",
      "type": "function"
    },
    {
      "inputs": [
        {
          "internalType": "uint256",
          "name": "tokenId",
          "type": "uint256"
        }
      ],
      "name": "getBatchByToken",
      "outputs": [
        {
          "components": [
            {
              "internalType": "uint256",
              "name": "startBatchTokenId",
              "type": "uint256"
            },
            {
              "internalType": "uint256",
              "name": "endBatchTokenId",
              "type": "uint256"
            },
            {
              "internalType": "string",
              "name": "baseURI",
              "type": "string"
            },
            {
              "internalType": "uint256",
              "name": "rarity",
              "type": "uint256"
            }
          ],
          "internalType": "struct Collection.Batch",
          "name": "",
          "type": "tuple"
        }
      ],
      "stateMutability": "view",
      "type": "function"
    },
    {
      "inputs": [],
      "name": "getBatches",
      "outputs": [
        {
          "components": [
            {
              "internalType": "uint256",
              "name": "startBatchTokenId",
              "type": "uint256"
            },
            {
              "internalType": "uint256",
              "name": "endBatchTokenId",
              "type": "uint256"
            },
            {
              "internalType": "string",
              "name": "baseURI",
              "type": "string"
            },
            {
              "internalType": "uint256",
              "name": "rarity",
              "type": "uint256"
            }
          ],
          "internalType": "struct Collection.Batch[]",
          "name": "",
          "type": "tuple[]"
        }
      ],
      "stateMutability": "view",
      "type": "function"
    },
    {
      "inputs": [
        {
          "internalType": "uint256",
          "name": "index",
          "type": "uint256"
        }
      ],
      "name": "getDna",
      "outputs": [
        {
          "internalType": "uint256",
          "name": "",
          "type": "uint256"
        }
      ],
      "stateMutability": "view",
      "type": "function"
    },
    {
      "inputs": [
        {
          "internalType": "uint256",
          "name": "index",
          "type": "uint256"
        }
      ],
      "name": "getName",
      "outputs": [
        {
          "internalType": "string",
          "name": "",
          "type": "string"
        }
      ],
      "stateMutability": "view",
      "type": "function"
    },
    {
      "inputs": [
        {
          "internalType": "uint256",
          "name": "tokenId",
          "type": "uint256"
        }
      ],
      "name": "getRarity",
      "outputs": [
        {
          "internalType": "uint256",
          "name": "",
          "type": "uint256"
        }
      ],
      "stateMutability": "view",
      "type": "function"
    },
    {
      "inputs": [
        {
          "internalType": "bytes32",
          "name": "role",
          "type": "bytes32"
        }
      ],
      "name": "getRoleAdmin",
      "outputs": [
        {
          "internalType": "bytes32",
          "name": "",
          "type": "bytes32"
        }
      ],
      "stateMutability": "view",
      "type": "function"
    },
    {
      "inputs": [
        {
          "internalType": "uint256",
          "name": "saleStageIndex",
          "type": "uint256"
        }
      ],
      "name": "getSaleStage",
      "outputs": [
        {
          "components": [
            {
              "internalType": "uint256",
              "name": "startTokensBought",
              "type": "uint256"
            },
            {
              "internalType": "uint256",
              "name": "endTokensBought",
              "type": "uint256"
            },
            {
              "internalType": "uint256",
              "name": "weiPerToken",
              "type": "uint256"
            }
          ],
          "internalType": "struct Collection.SaleStage",
          "name": "",
          "type": "tuple"
        }
      ],
      "stateMutability": "view",
      "type": "function"
    },
    {
      "inputs": [],
      "name": "getSaleStages",
      "outputs": [
        {
          "components": [
            {
              "internalType": "uint256",
              "name": "startTokensBought",
              "type": "uint256"
            },
            {
              "internalType": "uint256",
              "name": "endTokensBought",
              "type": "uint256"
            },
            {
              "internalType": "uint256",
              "name": "weiPerToken",
              "type": "uint256"
            }
          ],
          "internalType": "struct Collection.SaleStage[]",
          "name": "",
          "type": "tuple[]"
        }
      ],
      "stateMutability": "view",
      "type": "function"
    },
    {
      "inputs": [
        {
          "internalType": "uint256",
          "name": "index",
          "type": "uint256"
        }
      ],
      "name": "getSkill",
      "outputs": [
        {
          "internalType": "uint256",
          "name": "",
          "type": "uint256"
        }
      ],
      "stateMutability": "view",
      "type": "function"
    },
    {
      "inputs": [
        {
          "internalType": "uint256",
          "name": "tokens",
          "type": "uint256"
        }
      ],
      "name": "getTotalPriceFor",
      "outputs": [
        {
          "internalType": "uint256",
          "name": "",
          "type": "uint256"
        }
      ],
      "stateMutability": "view",
      "type": "function"
    },
    {
      "inputs": [
        {
          "internalType": "bytes32",
          "name": "role",
          "type": "bytes32"
        },
        {
          "internalType": "address",
          "name": "account",
          "type": "address"
        }
      ],
      "name": "grantRole",
      "outputs": [],
      "stateMutability": "nonpayable",
      "type": "function"
    },
    {
      "inputs": [
        {
          "internalType": "bytes32",
          "name": "role",
          "type": "bytes32"
        },
        {
          "internalType": "address",
          "name": "account",
          "type": "address"
        }
      ],
      "name": "hasRole",
      "outputs": [
        {
          "internalType": "bool",
          "name": "",
          "type": "bool"
        }
      ],
      "stateMutability": "view",
      "type": "function"
    },
    {
      "inputs": [],
      "name": "initialize",
      "outputs": [],
      "stateMutability": "nonpayable",
      "type": "function"
    },
    {
      "inputs": [
        {
          "internalType": "address",
          "name": "owner",
          "type": "address"
        },
        {
          "internalType": "address",
          "name": "operator",
          "type": "address"
        }
      ],
      "name": "isApprovedForAll",
      "outputs": [
        {
          "internalType": "bool",
          "name": "",
          "type": "bool"
        }
      ],
      "stateMutability": "view",
      "type": "function"
    },
    {
      "inputs": [],
      "name": "maxPurchaseSize",
      "outputs": [
        {
          "internalType": "uint256",
          "name": "",
          "type": "uint256"
        }
      ],
      "stateMutability": "view",
      "type": "function"
    },
    {
      "inputs": [],
      "name": "maxTotalSupply",
      "outputs": [
        {
          "internalType": "uint256",
          "name": "",
          "type": "uint256"
        }
      ],
      "stateMutability": "view",
      "type": "function"
    },
    {
      "inputs": [
        {
          "internalType": "address",
          "name": "to",
          "type": "address"
        },
        {
          "internalType": "uint256",
          "name": "mintIndex",
          "type": "uint256"
        }
      ],
      "name": "mint",
      "outputs": [],
      "stateMutability": "nonpayable",
      "type": "function"
    },
    {
      "inputs": [
        {
          "internalType": "address",
          "name": "to",
          "type": "address"
        },
        {
          "internalType": "uint256",
          "name": "nfts",
          "type": "uint256"
        }
      ],
      "name": "mintMultiple",
      "outputs": [],
      "stateMutability": "nonpayable",
      "type": "function"
    },
    {
      "inputs": [],
      "name": "name",
      "outputs": [
        {
          "internalType": "string",
          "name": "",
          "type": "string"
        }
      ],
      "stateMutability": "view",
      "type": "function"
    },
    {
      "inputs": [
        {
          "internalType": "uint256",
          "name": "tokenId",
          "type": "uint256"
        }
      ],
      "name": "ownerOf",
      "outputs": [
        {
          "internalType": "address",
          "name": "",
          "type": "address"
        }
      ],
      "stateMutability": "view",
      "type": "function"
    },
    {
      "inputs": [
        {
          "internalType": "bytes32",
          "name": "role",
          "type": "bytes32"
        },
        {
          "internalType": "address",
          "name": "account",
          "type": "address"
        }
      ],
      "name": "renounceRole",
      "outputs": [],
      "stateMutability": "nonpayable",
      "type": "function"
    },
    {
      "inputs": [
        {
          "internalType": "bytes32",
          "name": "role",
          "type": "bytes32"
        },
        {
          "internalType": "address",
          "name": "account",
          "type": "address"
        }
      ],
      "name": "revokeRole",
      "outputs": [],
      "stateMutability": "nonpayable",
      "type": "function"
    },
    {
      "inputs": [
        {
          "internalType": "address",
          "name": "from",
          "type": "address"
        },
        {
          "internalType": "address",
          "name": "to",
          "type": "address"
        },
        {
          "internalType": "uint256",
          "name": "tokenId",
          "type": "uint256"
        }
      ],
      "name": "safeTransferFrom",
      "outputs": [],
      "stateMutability": "nonpayable",
      "type": "function"
    },
    {
      "inputs": [
        {
          "internalType": "address",
          "name": "from",
          "type": "address"
        },
        {
          "internalType": "address",
          "name": "to",
          "type": "address"
        },
        {
          "internalType": "uint256",
          "name": "tokenId",
          "type": "uint256"
        },
        {
          "internalType": "bytes",
          "name": "_data",
          "type": "bytes"
        }
      ],
      "name": "safeTransferFrom",
      "outputs": [],
      "stateMutability": "nonpayable",
      "type": "function"
    },
    {
      "inputs": [],
      "name": "saleActive",
      "outputs": [
        {
          "internalType": "bool",
          "name": "",
          "type": "bool"
        }
      ],
      "stateMutability": "view",
      "type": "function"
    },
    {
      "inputs": [],
      "name": "saleStagesLength",
      "outputs": [
        {
          "internalType": "uint256",
          "name": "",
          "type": "uint256"
        }
      ],
      "stateMutability": "view",
      "type": "function"
    },
    {
      "inputs": [
        {
          "internalType": "address",
          "name": "operator",
          "type": "address"
        },
        {
          "internalType": "bool",
          "name": "approved",
          "type": "bool"
        }
      ],
      "name": "setApprovalForAll",
      "outputs": [],
      "stateMutability": "nonpayable",
      "type": "function"
    },
    {
      "inputs": [
        {
          "internalType": "uint256",
          "name": "batchIndex",
          "type": "uint256"
        },
        {
          "internalType": "uint256",
          "name": "batchStartId",
          "type": "uint256"
        },
        {
          "internalType": "uint256",
          "name": "batchEndId",
          "type": "uint256"
        },
        {
          "internalType": "string",
          "name": "baseURI",
          "type": "string"
        },
        {
          "internalType": "uint256",
          "name": "rarity",
          "type": "uint256"
        }
      ],
      "name": "setBatch",
      "outputs": [],
      "stateMutability": "nonpayable",
      "type": "function"
    },
    {
      "inputs": [
        {
          "internalType": "string",
          "name": "name",
          "type": "string"
        }
      ],
      "name": "setDefaultName",
      "outputs": [],
      "stateMutability": "nonpayable",
      "type": "function"
    },
    {
      "inputs": [
        {
          "internalType": "uint256",
          "name": "rarity",
          "type": "uint256"
        }
      ],
      "name": "setDefaultRarity",
      "outputs": [],
      "stateMutability": "nonpayable",
      "type": "function"
    },
    {
      "inputs": [
        {
          "internalType": "uint256",
          "name": "skill",
          "type": "uint256"
        }
      ],
      "name": "setDefaultSkill",
      "outputs": [],
      "stateMutability": "nonpayable",
      "type": "function"
    },
    {
      "inputs": [
        {
          "internalType": "string",
          "name": "uri",
          "type": "string"
        }
      ],
      "name": "setDefaultUri",
      "outputs": [],
      "stateMutability": "nonpayable",
      "type": "function"
    },
    {
      "inputs": [
        {
          "internalType": "uint256",
          "name": "index",
          "type": "uint256"
        },
        {
          "internalType": "uint256",
          "name": "newDna",
          "type": "uint256"
        }
      ],
      "name": "setDna",
      "outputs": [],
      "stateMutability": "nonpayable",
      "type": "function"
    },
    {
      "inputs": [
        {
          "internalType": "uint256",
          "name": "newPurchaseSize",
          "type": "uint256"
        }
      ],
      "name": "setMaxPurchaseSize",
      "outputs": [],
      "stateMutability": "nonpayable",
      "type": "function"
    },
    {
      "inputs": [
        {
          "internalType": "uint256",
          "name": "index",
          "type": "uint256"
        },
        {
          "internalType": "string",
          "name": "newName",
          "type": "string"
        }
      ],
      "name": "setName",
      "outputs": [],
      "stateMutability": "nonpayable",
      "type": "function"
    },
    {
      "inputs": [
        {
          "internalType": "uint256",
          "name": "saleStageId",
          "type": "uint256"
        },
        {
          "internalType": "uint256",
          "name": "startTokensBought",
          "type": "uint256"
        },
        {
          "internalType": "uint256",
          "name": "endTokensBought",
          "type": "uint256"
        },
        {
          "internalType": "uint256",
          "name": "weiPerToken",
          "type": "uint256"
        }
      ],
      "name": "setSaleStage",
      "outputs": [],
      "stateMutability": "nonpayable",
      "type": "function"
    },
    {
      "inputs": [
        {
          "internalType": "uint256",
          "name": "index",
          "type": "uint256"
        },
        {
          "internalType": "uint256",
          "name": "newSkill",
          "type": "uint256"
        }
      ],
      "name": "setSkill",
      "outputs": [],
      "stateMutability": "nonpayable",
      "type": "function"
    },
    {
      "inputs": [
        {
          "internalType": "address payable",
          "name": "newVault",
          "type": "address"
        }
      ],
      "name": "setVault",
      "outputs": [],
      "stateMutability": "nonpayable",
      "type": "function"
    },
    {
      "inputs": [],
      "name": "start",
      "outputs": [],
      "stateMutability": "nonpayable",
      "type": "function"
    },
    {
      "inputs": [],
      "name": "stop",
      "outputs": [],
      "stateMutability": "nonpayable",
      "type": "function"
    },
    {
      "inputs": [
        {
          "internalType": "bytes4",
          "name": "interfaceId",
          "type": "bytes4"
        }
      ],
      "name": "supportsInterface",
      "outputs": [
        {
          "internalType": "bool",
          "name": "",
          "type": "bool"
        }
      ],
      "stateMutability": "view",
      "type": "function"
    },
    {
      "inputs": [],
      "name": "symbol",
      "outputs": [
        {
          "internalType": "string",
          "name": "",
          "type": "string"
        }
      ],
      "stateMutability": "view",
      "type": "function"
    },
    {
      "inputs": [
        {
          "internalType": "uint256",
          "name": "index",
          "type": "uint256"
        }
      ],
      "name": "tokenByIndex",
      "outputs": [
        {
          "internalType": "uint256",
          "name": "",
          "type": "uint256"
        }
      ],
      "stateMutability": "view",
      "type": "function"
    },
    {
      "inputs": [
        {
          "internalType": "address",
          "name": "owner",
          "type": "address"
        },
        {
          "internalType": "uint256",
          "name": "index",
          "type": "uint256"
        }
      ],
      "name": "tokenOfOwnerByIndex",
      "outputs": [
        {
          "internalType": "uint256",
          "name": "",
          "type": "uint256"
        }
      ],
      "stateMutability": "view",
      "type": "function"
    },
    {
      "inputs": [
        {
          "internalType": "uint256",
          "name": "tokenId",
          "type": "uint256"
        }
      ],
      "name": "tokenURI",
      "outputs": [
        {
          "internalType": "string",
          "name": "",
          "type": "string"
        }
      ],
      "stateMutability": "view",
      "type": "function"
    },
    {
      "inputs": [],
      "name": "totalSupply",
      "outputs": [
        {
          "internalType": "uint256",
          "name": "",
          "type": "uint256"
        }
      ],
      "stateMutability": "view",
      "type": "function"
    },
    {
      "inputs": [
        {
          "internalType": "address",
          "name": "from",
          "type": "address"
        },
        {
          "internalType": "address",
          "name": "to",
          "type": "address"
        },
        {
          "internalType": "uint256",
          "name": "tokenId",
          "type": "uint256"
        }
      ],
      "name": "transferFrom",
      "outputs": [],
      "stateMutability": "nonpayable",
      "type": "function"
    },
    {
      "inputs": [],
      "name": "vault",
      "outputs": [
        {
          "internalType": "address payable",
          "name": "",
          "type": "address"
        }
      ],
      "stateMutability": "view",
      "type": "function"
    }
  ],
  "transactionHash": "0x549b2f261f4444d5aa85b3e70eb157bd21bb2e1c09156cc61870d9d3ef958d9c",
  "args": [],
  "solcInputHash": "8ca3b690752e12963bb85f37854d9aa6",
  "bytecode": "0x608060405234801561001057600080fd5b50614f3a806100206000396000f3fe6080604052600436106103b85760003560e01c806368428a1b116101f2578063bd880fae1161010d578063e5ca5648116100a0578063ee77a14d1161006f578063ee77a14d14610b60578063ef83303014610b94578063fbfa77cf14610bb4578063fe55932a14610bd557600080fd5b8063e5ca564814610ac1578063e9196c1e14610ad7578063e985e9c514610af7578063eaf882ff14610b4057600080fd5b8063d06b1da8116100dc578063d06b1da814610a2b578063d539139314610a4b578063d547741f14610a6d578063d57a46f614610a8d57600080fd5b8063bd880fae146109b4578063be9a6555146109d4578063c87b56dd146109e9578063cbf3b2a714610a0957600080fd5b8063932f332f11610185578063a5515c3311610154578063a5515c3314610934578063b3fa4a4c14610954578063b423f0a614610974578063b88d4fde1461099457600080fd5b8063932f332f146108b657806395d89b41146108ea578063a217fddf146108ff578063a22cb4651461091457600080fd5b80637deb6025116101c15780637deb60251461084e57806380ce97f2146108615780638129fc1c1461088157806391d148541461089657600080fd5b806368428a1b146107d45780636b8ff574146107ee57806370a082311461080e578063710546e11461082e57600080fd5b80632f745c59116102e257806348758697116102755780635ac44282116102445780635ac44282146107475780636352211e1461077457806364b2d3e4146107945780636817031b146107b457600080fd5b806348758697146106c55780634f6ccce7146106e5578063573aa7d514610705578063590ba3131461073257600080fd5b8063422627c3116102b1578063422627c31461064357806342842e0e14610663578063466a18de14610683578063477b2962146106a357600080fd5b80632f745c59146105c357806332633699146105e357806336568abe1461060357806340c10f191461062357600080fd5b80630bf8eb2c1161035a57806323b872dd1161032957806323b872dd1461053d578063248a9ca31461055d5780632ab4d0521461058d5780632f2ff15d146105a357600080fd5b80630bf8eb2c146104c857806314b710ae146104e857806316a4f84f1461050857806318160ddd1461052857600080fd5b8063076736a211610396578063076736a21461043657806307da68f51461045b578063081812fc14610470578063095ea7b3146104a857600080fd5b806301ffc9a7146103bd578063067b61f2146103f257806306fdde0314610414575b600080fd5b3480156103c957600080fd5b506103dd6103d83660046146ec565b610bf5565b60405190151581526020015b60405180910390f35b3480156103fe57600080fd5b5061041261040d3660046147a2565b610c06565b005b34801561042057600080fd5b50610429610cae565b6040516103e99190614b96565b34801561044257600080fd5b5061044d6101025481565b6040519081526020016103e9565b34801561046757600080fd5b50610412610d40565b34801561047c57600080fd5b5061049061048b3660046146ae565b610d59565b6040516001600160a01b0390911681526020016103e9565b3480156104b457600080fd5b506104126104c3366004614682565b610dee565b3480156104d457600080fd5b506104126104e33660046147c4565b610f04565b3480156104f457600080fd5b506104126105033660046146ae565b611125565b34801561051457600080fd5b50610412610523366004614848565b611138565b34801561053457600080fd5b5060995461044d565b34801561054957600080fd5b5061041261055836600461458e565b611354565b34801561056957600080fd5b5061044d6105783660046146ae565b600090815260c9602052604090206001015490565b34801561059957600080fd5b506101015461044d565b3480156105af57600080fd5b506104126105be3660046146c7565b611385565b3480156105cf57600080fd5b5061044d6105de366004614682565b6113ab565b3480156105ef57600080fd5b506104126105fe36600461481c565b611441565b34801561060f57600080fd5b5061041261061e3660046146c7565b61170f565b34801561062f57600080fd5b5061041261063e366004614682565b61178d565b34801561064f57600080fd5b5061044d61065e3660046146ae565b6117b0565b34801561066f57600080fd5b5061041261067e36600461458e565b6117e7565b34801561068f57600080fd5b5061041261069e366004614726565b611802565b3480156106af57600080fd5b506106b8611822565b6040516103e99190614ade565b3480156106d157600080fd5b5061044d6106e03660046146ae565b611931565b3480156106f157600080fd5b5061044d6107003660046146ae565b611a39565b34801561071157600080fd5b506107256107203660046146ae565b611acc565b6040516103e99190614d1b565b34801561073e57600080fd5b5060ff5461044d565b34801561075357600080fd5b506107676107623660046146ae565b611be4565b6040516103e99190614d08565b34801561078057600080fd5b5061049061078f3660046146ae565b611d89565b3480156107a057600080fd5b506104126107af3660046146ae565b611e00565b3480156107c057600080fd5b506104126107cf366004614538565b611f8a565b3480156107e057600080fd5b5060fe546103dd9060ff1681565b3480156107fa57600080fd5b506104296108093660046146ae565b611fba565b34801561081a57600080fd5b5061044d610829366004614538565b61212e565b34801561083a57600080fd5b506107676108493660046146ae565b6121b5565b61041261085c3660046146c7565b6123d0565b34801561086d57600080fd5b5061041261087c3660046146ae565b612549565b34801561088d57600080fd5b5061041261255c565b3480156108a257600080fd5b506103dd6108b13660046146c7565b6126c6565b3480156108c257600080fd5b5061044d7fbdd75cc4e6664d035b2def63bc7a5db6c1bc3e1193b04939f57fdebfb3477fa381565b3480156108f657600080fd5b506104296126f1565b34801561090b57600080fd5b5061044d600081565b34801561092057600080fd5b5061041261092f36600461464f565b612700565b34801561094057600080fd5b5061044d61094f3660046146ae565b6127c5565b34801561096057600080fd5b5061041261096f366004614682565b612972565b34801561098057600080fd5b5061041261098f3660046147a2565b612995565b3480156109a057600080fd5b506104126109af3660046145cf565b612a27565b3480156109c057600080fd5b5061044d6109cf3660046146ae565b612a5f565b3480156109e057600080fd5b50610412612ab2565b3480156109f557600080fd5b50610429610a043660046146ae565b612b7b565b348015610a1557600080fd5b50610a1e612d2b565b6040516103e99190614b40565b348015610a3757600080fd5b50610412610a463660046146ae565b612da0565b348015610a5757600080fd5b5061044d600080516020614ee583398151915281565b348015610a7957600080fd5b50610412610a883660046146c7565b612ed7565b348015610a9957600080fd5b5061044d7fde99de62ff13877bfb32892f85138aa338f091ce421c1d80a3ed7cbd389e809081565b348015610acd57600080fd5b506101005461044d565b348015610ae357600080fd5b50610412610af23660046148aa565b612efd565b348015610b0357600080fd5b506103dd610b12366004614555565b6001600160a01b039182166000908152606a6020908152604080832093909416825291909152205460ff1690565b348015610b4c57600080fd5b50610412610b5b3660046146ae565b61317c565b348015610b6c57600080fd5b5061044d7fadb1f90fb043c84ed13cea91e76d7bc7af0bfa59ad8c7e6c623c30a52b8f20a681565b348015610ba057600080fd5b50610412610baf366004614726565b61318f565b348015610bc057600080fd5b5061010754610490906001600160a01b031681565b348015610be157600080fd5b50610412610bf036600461475b565b6131af565b6000610c008261324c565b92915050565b7fbdd75cc4e6664d035b2def63bc7a5db6c1bc3e1193b04939f57fdebfb3477fa3610c318133613271565b610101548310610c5c5760405162461bcd60e51b8152600401610c5390614cd1565b60405180910390fd5b600083815260fd6020526040908190208390555183907f0441da2b6e413be5b3b10ec999aa757e9177d79199b472056c0c1668cd75431890610ca19085815260200190565b60405180910390a2505050565b606060658054610cbd90614de1565b80601f0160208091040260200160405190810160405280929190818152602001828054610ce990614de1565b8015610d365780601f10610d0b57610100808354040283529160200191610d36565b820191906000526020600020905b815481529060010190602001808311610d1957829003601f168201915b5050505050905090565b6000610d4c8133613271565b5060fe805460ff19169055565b6000818152606760205260408120546001600160a01b0316610dd25760405162461bcd60e51b815260206004820152602c60248201527f4552433732313a20617070726f76656420717565727920666f72206e6f6e657860448201526b34b9ba32b73a103a37b5b2b760a11b6064820152608401610c53565b506000908152606960205260409020546001600160a01b031690565b6000610df982611d89565b9050806001600160a01b0316836001600160a01b03161415610e675760405162461bcd60e51b815260206004820152602160248201527f4552433732313a20617070726f76616c20746f2063757272656e74206f776e656044820152603960f91b6064820152608401610c53565b336001600160a01b0382161480610e835750610e838133610b12565b610ef55760405162461bcd60e51b815260206004820152603860248201527f4552433732313a20617070726f76652063616c6c6572206973206e6f74206f7760448201527f6e6572206e6f7220617070726f76656420666f7220616c6c00000000000000006064820152608401610c53565b610eff83836132d5565b505050565b6000610f108133613271565b60ff5484861115610f335760405162461bcd60e51b8152600401610c5390614c49565b80156110505760005b8181101561104e5760ff8181548110610f5757610f57614e8d565b90600052602060002090600402016000015487108015610f9a575060ff8181548110610f8557610f85614e8d565b90600052602060002090600402016000015486105b80610ff6575060ff8181548110610fb357610fb3614e8d565b90600052602060002090600402016001015487118015610ff6575060ff8181548110610fe157610fe1614e8d565b90600052602060002090600402016001015486115b156110005761103c565b60405162461bcd60e51b815260206004820152601160248201527018985d18da195cc81a5b9d195c9cd958dd607a1b6044820152606401610c53565b8061104681614e1c565b915050610f3c565b505b6040805160808101825287815260208082018881529282018781526060830187905260ff8054600181018255600091909152835160049091027fe08ec2af2cfc251225e1968fd6ca21e4044f129bffa95bac3503be8bdb30a367810191825594517fe08ec2af2cfc251225e1968fd6ca21e4044f129bffa95bac3503be8bdb30a3688601559051805193949193611110937fe08ec2af2cfc251225e1968fd6ca21e4044f129bffa95bac3503be8bdb30a369909301929190910190614358565b50606082015181600301555050505050505050565b60006111318133613271565b5061010255565b60006111448133613271565b60ff54806111945760405162461bcd60e51b815260206004820152601a60248201527f73657442617463683a206261746368657320697320656d7074790000000000006044820152606401610c53565b848611156111b45760405162461bcd60e51b8152600401610c5390614c49565b60005b8181101561129657878114156111cc57611284565b60ff81815481106111df576111df614e8d565b90600052602060002090600402016000015487108015611222575060ff818154811061120d5761120d614e8d565b90600052602060002090600402016000015486105b8061127e575060ff818154811061123b5761123b614e8d565b9060005260206000209060040201600101548711801561127e575060ff818154811061126957611269614e8d565b90600052602060002090600402016001015486115b15611000575b8061128e81614e1c565b9150506111b7565b508560ff88815481106112ab576112ab614e8d565b9060005260206000209060040201600001819055508460ff88815481106112d4576112d4614e8d565b9060005260206000209060040201600101819055508360ff88815481106112fd576112fd614e8d565b90600052602060002090600402016002019080519060200190611321929190614358565b508260ff888154811061133657611336614e8d565b90600052602060002090600402016003018190555050505050505050565b61135e3382613343565b61137a5760405162461bcd60e51b8152600401610c5390614c80565b610eff83838361343a565b600082815260c960205260409020600101546113a18133613271565b610eff83836135e5565b60006113b68361212e565b82106114185760405162461bcd60e51b815260206004820152602b60248201527f455243373231456e756d657261626c653a206f776e657220696e646578206f7560448201526a74206f6620626f756e647360a81b6064820152608401610c53565b506001600160a01b03919091166000908152609760209081526040808320938352929052205490565b600061144d8133613271565b828411156114b75760405162461bcd60e51b815260206004820152603160248201527f7374617274546f6b656e73426f75676874206d757374206265203c3d207468616044820152701b88195b99151bdad95b9cd09bdd59da1d607a1b6064820152608401610c53565b600082116115075760405162461bcd60e51b815260206004820152601c60248201527f776569506572546f6b656e206d757374206265206e6f6e2d7a65726f000000006044820152606401610c53565b6101005480156116385760005b8181101561163657610100818154811061153057611530614e8d565b906000526020600020906003020160000154861080156115745750610100818154811061155f5761155f614e8d565b90600052602060002090600302016000015485105b806115d25750610100818154811061158e5761158e614e8d565b906000526020600020906003020160010154861180156115d2575061010081815481106115bd576115bd614e8d565b90600052602060002090600302016001015485115b156115dc57611624565b60405162461bcd60e51b815260206004820152601860248201527f696e74657273656374696f6e205f73616c6553746167657300000000000000006044820152606401610c53565b8061162e81614e1c565b915050611514565b505b6040805160608101825286815260208101868152918101858152610100805460018101825560009190915291517f45e010b9ae401e2eb71529478da8bd513a9bdc2d095a111e324f5b95c09ed87b60039093029283015591517f45e010b9ae401e2eb71529478da8bd513a9bdc2d095a111e324f5b95c09ed87c82015590517f45e010b9ae401e2eb71529478da8bd513a9bdc2d095a111e324f5b95c09ed87d909101556116e68585614d87565b6116f1906001614d3c565b61010160008282546117039190614d3c565b90915550505050505050565b6001600160a01b038116331461177f5760405162461bcd60e51b815260206004820152602f60248201527f416363657373436f6e74726f6c3a2063616e206f6e6c792072656e6f756e636560448201526e103937b632b9903337b91039b2b63360891b6064820152608401610c53565b611789828261366b565b5050565b600080516020614ee58339815191526117a68133613271565b610eff83836136d2565b60006101015482106117d45760405162461bcd60e51b8152600401610c5390614cd1565b50600090815260fd602052604090205490565b610eff83838360405180602001604052806000815250612a27565b600061180e8133613271565b8151610eff90610103906020850190614358565b606060ff805480602002602001604051908101604052809291908181526020016000905b828210156119285783829060005260206000209060040201604051806080016040529081600082015481526020016001820154815260200160028201805461188d90614de1565b80601f01602080910402602001604051908101604052809291908181526020018280546118b990614de1565b80156119065780601f106118db57610100808354040283529160200191611906565b820191906000526020600020905b8154815290600101906020018083116118e957829003601f168201915b5050505050815260200160038201548152505081526020019060010190611846565b50505050905090565b60ff546000906119835760405162461bcd60e51b815260206004820152601b60248201527f67657442617463684279546f6b656e3a206e6f206261746368657300000000006044820152606401610c53565b60005b60ff54811015611a2e5760ff81815481106119a3576119a3614e8d565b9060005260206000209060040201600101548311806119e5575060ff81815481106119d0576119d0614e8d565b90600052602060002090600402016000015483105b156119ef57611a1c565b60ff8181548110611a0257611a02614e8d565b906000526020600020906004020160030154915050919050565b80611a2681614e1c565b915050611986565b505061010454919050565b6000611a4460995490565b8210611aa75760405162461bcd60e51b815260206004820152602c60248201527f455243373231456e756d657261626c653a20676c6f62616c20696e646578206f60448201526b7574206f6620626f756e647360a01b6064820152608401610c53565b60998281548110611aba57611aba614e8d565b90600052602060002001549050919050565b611af060405180606001604052806000815260200160008152602001600081525090565b61010054611b405760405162461bcd60e51b815260206004820152601760248201527f67657453616c6553746167653a206e6f207374616765730000000000000000006044820152606401610c53565b610100548210611b925760405162461bcd60e51b815260206004820152601f60248201527f4964206d757374206265203c2073616c6520737461676573206c656e677468006044820152606401610c53565b6101008281548110611ba657611ba6614e8d565b906000526020600020906003020160405180606001604052908160008201548152602001600182015481526020016002820154815250509050919050565b611c0f6040518060800160405280600081526020016000815260200160608152602001600081525090565b60ff54611c555760405162461bcd60e51b815260206004820152601460248201527367657442617463683a206e6f206261746368657360601b6044820152606401610c53565b60ff548210611ca65760405162461bcd60e51b815260206004820152601960248201527f4964206d757374206265203c206261746368206c656e677468000000000000006044820152606401610c53565b60ff8281548110611cb957611cb9614e8d565b90600052602060002090600402016040518060800160405290816000820154815260200160018201548152602001600282018054611cf690614de1565b80601f0160208091040260200160405190810160405280929190818152602001828054611d2290614de1565b8015611d6f5780601f10611d4457610100808354040283529160200191611d6f565b820191906000526020600020905b815481529060010190602001808311611d5257829003601f168201915b505050505081526020016003820154815250509050919050565b6000818152606760205260408120546001600160a01b031680610c005760405162461bcd60e51b815260206004820152602960248201527f4552433732313a206f776e657220717565727920666f72206e6f6e657869737460448201526832b73a103a37b5b2b760b91b6064820152608401610c53565b6000611e0c8133613271565b610100548210611e5e5760405162461bcd60e51b815260206004820152601e60248201527f696e646578206f7574206f662073616c65207374616765206c656e67746800006044820152606401610c53565b60006101008381548110611e7457611e74614e8d565b90600052602060002090600302016040518060600160405290816000820154815260200160018201548152602001600282015481525050905080600001518160200151611ec19190614d87565b611ecc906001614d3c565b6101016000828254611ede9190614d87565b90915550506101008054611ef490600190614d87565b81548110611f0457611f04614e8d565b90600052602060002090600302016101008481548110611f2657611f26614e8d565b60009182526020909120825460039092020190815560018083015490820155600291820154910155610100805480611f6057611f60614e77565b60008281526020812060036000199093019283020181815560018101829055600201559055505050565b6000611f968133613271565b5061010780546001600160a01b0319166001600160a01b0392909216919091179055565b6060610101548210611fde5760405162461bcd60e51b8152600401610c5390614cd1565b600082815260fb602052604081208054611ff790614de1565b80601f016020809104026020016040519081016040528092919081815260200182805461202390614de1565b80156120705780601f1061204557610100808354040283529160200191612070565b820191906000526020600020905b81548152906001019060200180831161205357829003601f168201915b5050505050905080516000141561211557610105805461208f90614de1565b80601f01602080910402602001604051908101604052809291908181526020018280546120bb90614de1565b80156121085780601f106120dd57610100808354040283529160200191612108565b820191906000526020600020905b8154815290600101906020018083116120eb57829003601f168201915b5050505050915050919050565b600083815260fb60205260409020805461208f90614de1565b60006001600160a01b0382166121995760405162461bcd60e51b815260206004820152602a60248201527f4552433732313a2062616c616e636520717565727920666f7220746865207a65604482015269726f206164647265737360b01b6064820152608401610c53565b506001600160a01b031660009081526068602052604090205490565b6121e06040518060800160405280600081526020016000815260200160608152602001600081525090565b60ff5461222f5760405162461bcd60e51b815260206004820152601b60248201527f67657442617463684279546f6b656e3a206e6f206261746368657300000000006044820152606401610c53565b60005b60ff548110156123915760ff818154811061224f5761224f614e8d565b906000526020600020906004020160010154831180612291575060ff818154811061227c5761227c614e8d565b90600052602060002090600402016000015483105b1561229b5761237f565b60ff81815481106122ae576122ae614e8d565b906000526020600020906004020160405180608001604052908160008201548152602001600182015481526020016002820180546122eb90614de1565b80601f016020809104026020016040519081016040528092919081815260200182805461231790614de1565b80156123645780601f1061233957610100808354040283529160200191612364565b820191906000526020600020905b81548152906001019060200180831161234757829003601f168201915b50505050508152602001600382015481525050915050919050565b8061238981614e1c565b915050612232565b5060405162461bcd60e51b815260206004820152601360248201527218985d18da08191bd95cdb89dd08195e1a5cdd606a1b6044820152606401610c53565b60fe5460ff166124175760405162461bcd60e51b815260206004820152601260248201527153616c65206973206e6f742061637469766560701b6044820152606401610c53565b6101025482111561246a5760405162461bcd60e51b815260206004820152601d60248201527f43616e206e6f7420627579203e206d6178507572636861736553697a650000006044820152606401610c53565b34612474836127c5565b146124c15760405162461bcd60e51b815260206004820152601f60248201527f45746865722076616c75652073656e74206973206e6f7420636f7272656374006044820152606401610c53565b604080518381526001600160a01b038316602082015233917f3319bb4966eaaeb523ecad57fa1daeb3bf6e5a6e559ac95bc4ed8d2042fcaf2c910160405180910390a2610107546040516001600160a01b03909116903480156108fc02916000818181858888f1935050505015801561253e573d6000803e3d6000fd5b5061178933836136ec565b60006125558133613271565b5061010655565b600054610100900460ff1680612575575060005460ff16155b6125915760405162461bcd60e51b8152600401610c5390614bfb565b600054610100900460ff161580156125b3576000805461ffff19166101011790555b6125fa60405180604001604052806009815260200168437962657250756e6b60b81b815250604051806040016040528060048152602001632096989960e11b815250613815565b61260261389c565b61260a61389c565b61261560003361391f565b61263f7fadb1f90fb043c84ed13cea91e76d7bc7af0bfa59ad8c7e6c623c30a52b8f20a63361391f565b6126697fde99de62ff13877bfb32892f85138aa338f091ce421c1d80a3ed7cbd389e80903361391f565b6126937fbdd75cc4e6664d035b2def63bc7a5db6c1bc3e1193b04939f57fdebfb3477fa33361391f565b6126ab600080516020614ee58339815191523361391f565b60146101025580156126c3576000805461ff00191690555b50565b600091825260c9602090815260408084206001600160a01b0393909316845291905290205460ff1690565b606060668054610cbd90614de1565b6001600160a01b0382163314156127595760405162461bcd60e51b815260206004820152601960248201527f4552433732313a20617070726f766520746f2063616c6c6572000000000000006044820152606401610c53565b336000818152606a602090815260408083206001600160a01b03871680855290835292819020805460ff191686151590811790915590519081529192917f17307eab39ab6107e8899845ad3d59bd9653f200f220920489ca2b5937696c31910160405180910390a35050565b60008082116128165760405162461bcd60e51b815260206004820152601a60248201527f746f6b656e73206d757374206265206d6f7265207468656e20300000000000006044820152606401610c53565b61010054600061282560995490565b905060008061284e60405180606001604052806000815260200160008152602001600081525090565b60005b87811015612966576000935060005b868110156128ed57610100818154811061287c5761287c614e8d565b6000918252602091829020604080516060810182526003909302909101805483526001810154938301849052600201549082015293508611806128bf5750825186105b156128c9576128db565b60408301516128d89086614d3c565b94505b806128e581614e1c565b915050612860565b508361293b5760405162461bcd60e51b815260206004820152601760248201527f73616c65537461676520646f65736e27742065786973740000000000000000006044820152606401610c53565b6129458484614d3c565b9250612952600186614d3c565b94508061295e81614e1c565b915050612851565b50909695505050505050565b600080516020614ee583398151915261298b8133613271565b610eff83836136ec565b7fde99de62ff13877bfb32892f85138aa338f091ce421c1d80a3ed7cbd389e80906129c08133613271565b6101015483106129e25760405162461bcd60e51b8152600401610c5390614cd1565b600083815260fc6020526040908190208390555183907fbc118caef5b83a02ad5f988c3550437e355b0c3e999d65e0652177448b97c88690610ca19085815260200190565b612a313383613343565b612a4d5760405162461bcd60e51b8152600401610c5390614c80565b612a5984848484613929565b50505050565b6000610101548210612a835760405162461bcd60e51b8152600401610c5390614cd1565b600082815260fc6020526040902054612a9f5750506101065490565b50600090815260fc602052604090205490565b6000612abe8133613271565b60006101038054612ace90614de1565b905011612b1d5760405162461bcd60e51b815260206004820152601860248201527f5f64656661756c7455726920697320756e646566696e656400000000000000006044820152606401610c53565b610107546001600160a01b0316612b6b5760405162461bcd60e51b815260206004820152601260248201527115985d5b1d081a5cc81d5b9919599a5b995960721b6044820152606401610c53565b5060fe805460ff19166001179055565b60ff54606090612bc45760405162461bcd60e51b8152602060048201526014602482015273746f6b656e5552493a206e6f206261746368657360601b6044820152606401610c53565b60005b60ff54811015612c975760ff8181548110612be457612be4614e8d565b906000526020600020906004020160010154831180612c26575060ff8181548110612c1157612c11614e8d565b90600052602060002090600402016000015483105b15612c3057612c85565b60ff8181548110612c4357612c43614e8d565b9060005260206000209060040201600201612c5d8461395c565b604051602001612c6e929190614961565b604051602081830303815290604052915050919050565b80612c8f81614e1c565b915050612bc7565b506101038054612ca690614de1565b80601f0160208091040260200160405190810160405280929190818152602001828054612cd290614de1565b8015612d1f5780601f10612cf457610100808354040283529160200191612d1f565b820191906000526020600020905b815481529060010190602001808311612d0257829003601f168201915b50505050509050919050565b6060610100805480602002602001604051908101604052809291908181526020016000905b828210156119285783829060005260206000209060030201604051806060016040529081600082015481526020016001820154815260200160028201548152505081526020019060010190612d50565b6000612dac8133613271565b60ff548210612dfd5760405162461bcd60e51b815260206004820152601b60248201527f696e646578206f7574206f662062617463686573206c656e67746800000000006044820152606401610c53565b60ff8054612e0d90600190614d87565b81548110612e1d57612e1d614e8d565b906000526020600020906004020160ff8381548110612e3e57612e3e614e8d565b906000526020600020906004020160008201548160000155600182015481600101556002820181600201908054612e7490614de1565b612e7f9291906143dc565b5060039182015491015560ff805480612e9a57612e9a614e77565b6000828152602081206004600019909301928302018181556001810182905590612ec76002830182614457565b6003820160009055505090555050565b600082815260c96020526040902060010154612ef38133613271565b610eff838361366b565b6000612f098133613271565b6101005480612f4d5760405162461bcd60e51b815260206004820152601060248201526f6261746368657320697320656d70747960801b6044820152606401610c53565b83851115612f6d5760405162461bcd60e51b8152600401610c5390614c49565b60005b818110156130535786811415612f8557613041565b6101008181548110612f9957612f99614e8d565b90600052602060002090600302016000015486108015612fdd57506101008181548110612fc857612fc8614e8d565b90600052602060002090600302016000015485105b8061303b57506101008181548110612ff757612ff7614e8d565b9060005260206000209060030201600101548611801561303b5750610100818154811061302657613026614e8d565b90600052602060002090600302016001015485115b156115dc575b8061304b81614e1c565b915050612f70565b506000610100878154811061306a5761306a614e8d565b90600052602060002090600302016040518060600160405290816000820154815260200160018201548152602001600282015481525050905085856130af9190614d87565b6130ba906001614d3c565b815160208301516130cb9190614d87565b6130d6906001614d3c565b610101546130e49190614d87565b6130ee9190614d3c565b6101018190555085610100888154811061310a5761310a614e8d565b90600052602060002090600302016000018190555084610100888154811061313457613134614e8d565b90600052602060002090600302016001018190555083610100888154811061315e5761315e614e8d565b90600052602060002090600302016002018190555050505050505050565b60006131888133613271565b5061010455565b600061319b8133613271565b8151610eff90610105906020850190614358565b7fadb1f90fb043c84ed13cea91e76d7bc7af0bfa59ad8c7e6c623c30a52b8f20a66131da8133613271565b6101015483106131fc5760405162461bcd60e51b8152600401610c5390614cd1565b600083815260fb60209081526040909120835161321b92850190614358565b50827f7e632a301794d8d4a81ea7e20f37d1947158d36e66403af04ba85dd194b66f1b83604051610ca19190614b96565b60006001600160e01b03198216637965db0b60e01b1480610c005750610c0082613a5a565b61327b82826126c6565b61178957613293816001600160a01b03166014613a7f565b61329e836020613a7f565b6040516020016132af929190614a2c565b60408051601f198184030181529082905262461bcd60e51b8252610c5391600401614b96565b600081815260696020526040902080546001600160a01b0319166001600160a01b038416908117909155819061330a82611d89565b6001600160a01b03167f8c5be1e5ebec7d5bd14f71427d1e84f3dd0314c0f7b2291e5b200ac8c7c3b92560405160405180910390a45050565b6000818152606760205260408120546001600160a01b03166133bc5760405162461bcd60e51b815260206004820152602c60248201527f4552433732313a206f70657261746f7220717565727920666f72206e6f6e657860448201526b34b9ba32b73a103a37b5b2b760a11b6064820152608401610c53565b60006133c783611d89565b9050806001600160a01b0316846001600160a01b031614806134025750836001600160a01b03166133f784610d59565b6001600160a01b0316145b8061343257506001600160a01b038082166000908152606a602090815260408083209388168352929052205460ff165b949350505050565b826001600160a01b031661344d82611d89565b6001600160a01b0316146134b55760405162461bcd60e51b815260206004820152602960248201527f4552433732313a207472616e73666572206f6620746f6b656e2074686174206960448201526839903737ba1037bbb760b91b6064820152608401610c53565b6001600160a01b0382166135175760405162461bcd60e51b8152602060048201526024808201527f4552433732313a207472616e7366657220746f20746865207a65726f206164646044820152637265737360e01b6064820152608401610c53565b613522838383613c22565b61352d6000826132d5565b6001600160a01b0383166000908152606860205260408120805460019290613556908490614d87565b90915550506001600160a01b0382166000908152606860205260408120805460019290613584908490614d3c565b909155505060008181526067602052604080822080546001600160a01b0319166001600160a01b0386811691821790925591518493918716917fddf252ad1be2c89b69c2b068fc378daa952ba7f163c4a11628f55a4df523b3ef91a4505050565b6135ef82826126c6565b61178957600082815260c9602090815260408083206001600160a01b03851684529091529020805460ff191660011790556136273390565b6001600160a01b0316816001600160a01b0316837f2f8788117e7eff1d82e926ec794901d17c78024a50270940304540a733656f0d60405160405180910390a45050565b61367582826126c6565b1561178957600082815260c9602090815260408083206001600160a01b0385168085529252808320805460ff1916905551339285917ff6391f5c32d9c69d2a47ea670b442974b53935d1edc7fd64eb21e047a839171b9190a45050565b611789828260405180602001604052806000815250613c90565b61010154609954106137395760405162461bcd60e51b815260206004820152601660248201527514d85b19481a185cc8185b1c9958591e48195b99195960521b6044820152606401610c53565b6000811161377c5760405162461bcd60e51b815260206004820152601060248201526f06e6674732063616e6e6f7420626520360841b6044820152606401610c53565b610101546137938261378d60995490565b90613cc3565b11156137e15760405162461bcd60e51b815260206004820152601760248201527f45786365656473205f6d6178546f74616c537570706c790000000000000000006044820152606401610c53565b60005b81811015610eff5760006137f6613ccf565b905061380284826136d2565b508061380d81614e1c565b9150506137e4565b600054610100900460ff168061382e575060005460ff16155b61384a5760405162461bcd60e51b8152600401610c5390614bfb565b600054610100900460ff1615801561386c576000805461ffff19166101011790555b613874613d66565b61387c613d66565b6138868383613dd0565b8015610eff576000805461ff0019169055505050565b600054610100900460ff16806138b5575060005460ff16155b6138d15760405162461bcd60e51b8152600401610c5390614bfb565b600054610100900460ff161580156138f3576000805461ffff19166101011790555b6138fb613d66565b613903613d66565b61390b613d66565b80156126c3576000805461ff001916905550565b61178982826135e5565b61393484848461343a565b61394084848484613e65565b612a595760405162461bcd60e51b8152600401610c5390614ba9565b6060816139805750506040805180820190915260018152600360fc1b602082015290565b8160005b81156139aa578061399481614e1c565b91506139a39050600a83614d54565b9150613984565b60008167ffffffffffffffff8111156139c5576139c5614ea3565b6040519080825280601f01601f1916602001820160405280156139ef576020820181803683370190505b5090505b841561343257613a04600183614d87565b9150613a11600a86614e37565b613a1c906030614d3c565b60f81b818381518110613a3157613a31614e8d565b60200101906001600160f81b031916908160001a905350613a53600a86614d54565b94506139f3565b60006001600160e01b0319821663780e9d6360e01b1480610c005750610c0082613f72565b60606000613a8e836002614d68565b613a99906002614d3c565b67ffffffffffffffff811115613ab157613ab1614ea3565b6040519080825280601f01601f191660200182016040528015613adb576020820181803683370190505b509050600360fc1b81600081518110613af657613af6614e8d565b60200101906001600160f81b031916908160001a905350600f60fb1b81600181518110613b2557613b25614e8d565b60200101906001600160f81b031916908160001a9053506000613b49846002614d68565b613b54906001614d3c565b90505b6001811115613bcc576f181899199a1a9b1b9c1cb0b131b232b360811b85600f1660108110613b8857613b88614e8d565b1a60f81b828281518110613b9e57613b9e614e8d565b60200101906001600160f81b031916908160001a90535060049490941c93613bc581614dca565b9050613b57565b508315613c1b5760405162461bcd60e51b815260206004820181905260248201527f537472696e67733a20686578206c656e67746820696e73756666696369656e746044820152606401610c53565b9392505050565b613c2d838383613fc2565b6001600160a01b038316610eff57610101546099541115610eff5760405162461bcd60e51b815260206004820152601e60248201527f436f6c6c656374696f6e3a206d6178537570706c7920616368696576656400006044820152606401610c53565b613c9a838361407a565b613ca76000848484613e65565b610eff5760405162461bcd60e51b8152600401610c5390614ba9565b6000613c1b8284614d3c565b60008061010154425a613ce3600143614d87565b6040805160208101949094528301919091524060608201526080016040516020818303038152906040528051906020012060001c613d219190614e37565b90505b6000818152606760205260409020546001600160a01b031615613d6157613d4c600182614d3c565b9050610101548110613d5c575060005b613d24565b919050565b600054610100900460ff1680613d7f575060005460ff16155b613d9b5760405162461bcd60e51b8152600401610c5390614bfb565b600054610100900460ff1615801561390b576000805461ffff191661010117905580156126c3576000805461ff001916905550565b600054610100900460ff1680613de9575060005460ff16155b613e055760405162461bcd60e51b8152600401610c5390614bfb565b600054610100900460ff16158015613e27576000805461ffff19166101011790555b8251613e3a906065906020860190614358565b508151613e4e906066906020850190614358565b508015610eff576000805461ff0019169055505050565b60006001600160a01b0384163b15613f6757604051630a85bd0160e11b81526001600160a01b0385169063150b7a0290613ea9903390899088908890600401614aa1565b602060405180830381600087803b158015613ec357600080fd5b505af1925050508015613ef3575060408051601f3d908101601f19168201909252613ef091810190614709565b60015b613f4d573d808015613f21576040519150601f19603f3d011682016040523d82523d6000602084013e613f26565b606091505b508051613f455760405162461bcd60e51b8152600401610c5390614ba9565b805181602001fd5b6001600160e01b031916630a85bd0160e11b149050613432565b506001949350505050565b60006001600160e01b031982166380ac58cd60e01b1480613fa357506001600160e01b03198216635b5e139f60e01b145b80610c0057506301ffc9a760e01b6001600160e01b0319831614610c00565b6001600160a01b03831661401d5761401881609980546000838152609a60205260408120829055600182018355919091527f72a152ddfb8e864297c917af52ea6c1c68aead0fee1a62673fcc7e0c94979d000155565b614040565b816001600160a01b0316836001600160a01b0316146140405761404083826141c8565b6001600160a01b03821661405757610eff81614265565b826001600160a01b0316826001600160a01b031614610eff57610eff8282614314565b6001600160a01b0382166140d05760405162461bcd60e51b815260206004820181905260248201527f4552433732313a206d696e7420746f20746865207a65726f20616464726573736044820152606401610c53565b6000818152606760205260409020546001600160a01b0316156141355760405162461bcd60e51b815260206004820152601c60248201527f4552433732313a20746f6b656e20616c7265616479206d696e746564000000006044820152606401610c53565b61414160008383613c22565b6001600160a01b038216600090815260686020526040812080546001929061416a908490614d3c565b909155505060008181526067602052604080822080546001600160a01b0319166001600160a01b03861690811790915590518392907fddf252ad1be2c89b69c2b068fc378daa952ba7f163c4a11628f55a4df523b3ef908290a45050565b600060016141d58461212e565b6141df9190614d87565b600083815260986020526040902054909150808214614232576001600160a01b03841660009081526097602090815260408083208584528252808320548484528184208190558352609890915290208190555b5060009182526098602090815260408084208490556001600160a01b039094168352609781528383209183525290812055565b60995460009061427790600190614d87565b6000838152609a60205260408120546099805493945090928490811061429f5761429f614e8d565b9060005260206000200154905080609983815481106142c0576142c0614e8d565b6000918252602080832090910192909255828152609a909152604080822084905585825281205560998054806142f8576142f8614e77565b6001900381819060005260206000200160009055905550505050565b600061431f8361212e565b6001600160a01b039093166000908152609760209081526040808320868452825280832085905593825260989052919091209190915550565b82805461436490614de1565b90600052602060002090601f01602090048101928261438657600085556143cc565b82601f1061439f57805160ff19168380011785556143cc565b828001600101855582156143cc579182015b828111156143cc5782518255916020019190600101906143b1565b506143d892915061448d565b5090565b8280546143e890614de1565b90600052602060002090601f01602090048101928261440a57600085556143cc565b82601f1061441b57805485556143cc565b828001600101855582156143cc57600052602060002091601f016020900482015b828111156143cc57825482559160010191906001019061443c565b50805461446390614de1565b6000825580601f10614473575050565b601f0160209004906000526020600020908101906126c391905b5b808211156143d8576000815560010161448e565b600067ffffffffffffffff808411156144bd576144bd614ea3565b604051601f8501601f19908116603f011681019082821181831017156144e5576144e5614ea3565b816040528093508581528686860111156144fe57600080fd5b858560208301376000602087830101525050509392505050565b600082601f83011261452957600080fd5b613c1b838335602085016144a2565b60006020828403121561454a57600080fd5b8135613c1b81614eb9565b6000806040838503121561456857600080fd5b823561457381614eb9565b9150602083013561458381614eb9565b809150509250929050565b6000806000606084860312156145a357600080fd5b83356145ae81614eb9565b925060208401356145be81614eb9565b929592945050506040919091013590565b600080600080608085870312156145e557600080fd5b84356145f081614eb9565b9350602085013561460081614eb9565b925060408501359150606085013567ffffffffffffffff81111561462357600080fd5b8501601f8101871361463457600080fd5b614643878235602084016144a2565b91505092959194509250565b6000806040838503121561466257600080fd5b823561466d81614eb9565b91506020830135801515811461458357600080fd5b6000806040838503121561469557600080fd5b82356146a081614eb9565b946020939093013593505050565b6000602082840312156146c057600080fd5b5035919050565b600080604083850312156146da57600080fd5b82359150602083013561458381614eb9565b6000602082840312156146fe57600080fd5b8135613c1b81614ece565b60006020828403121561471b57600080fd5b8151613c1b81614ece565b60006020828403121561473857600080fd5b813567ffffffffffffffff81111561474f57600080fd5b61343284828501614518565b6000806040838503121561476e57600080fd5b82359150602083013567ffffffffffffffff81111561478c57600080fd5b61479885828601614518565b9150509250929050565b600080604083850312156147b557600080fd5b50508035926020909101359150565b600080600080608085870312156147da57600080fd5b8435935060208501359250604085013567ffffffffffffffff8111156147ff57600080fd5b61480b87828801614518565b949793965093946060013593505050565b60008060006060848603121561483157600080fd5b505081359360208301359350604090920135919050565b600080600080600060a0868803121561486057600080fd5b853594506020860135935060408601359250606086013567ffffffffffffffff81111561488c57600080fd5b61489888828901614518565b95989497509295608001359392505050565b600080600080608085870312156148c057600080fd5b5050823594602084013594506040840135936060013592509050565b600081518084526148f4816020860160208601614d9e565b601f01601f19169290920160200192915050565b6000815161491a818560208601614d9e565b9290920192915050565b8051825260208101516020830152600060408201516080604085015261494d60808501826148dc565b606093840151949093019390935250919050565b600080845481600182811c91508083168061497d57607f831692505b602080841082141561499d57634e487b7160e01b86526022600452602486fd5b8180156149b157600181146149c2576149ef565b60ff198616895284890196506149ef565b60008b81526020902060005b868110156149e75781548b8201529085019083016149ce565b505084890196505b505050505050614a23614a12614a0c83602f60f81b815260010190565b86614908565b64173539b7b760d91b815260050190565b95945050505050565b7f416363657373436f6e74726f6c3a206163636f756e7420000000000000000000815260008351614a64816017850160208801614d9e565b7001034b99036b4b9b9b4b733903937b6329607d1b6017918401918201528351614a95816028840160208801614d9e565b01602801949350505050565b6001600160a01b0385811682528416602082015260408101839052608060608201819052600090614ad4908301846148dc565b9695505050505050565b6000602080830181845280855180835260408601915060408160051b870101925083870160005b82811015614b3357603f19888603018452614b21858351614924565b94509285019290850190600101614b05565b5092979650505050505050565b6020808252825182820181905260009190848201906040850190845b8181101561296657614b838385518051825260208082015190830152604090810151910152565b9284019260609290920191600101614b5c565b602081526000613c1b60208301846148dc565b60208082526032908201527f4552433732313a207472616e7366657220746f206e6f6e20455243373231526560408201527131b2b4bb32b91034b6b83632b6b2b73a32b960711b606082015260800190565b6020808252602e908201527f496e697469616c697a61626c653a20636f6e747261637420697320616c72656160408201526d191e481a5b9a5d1a585b1a5e995960921b606082015260800190565b6020808252601d908201527f73746172744964206d757374206265203c3d207468616e20456e644964000000604082015260600190565b60208082526031908201527f4552433732313a207472616e736665722063616c6c6572206973206e6f74206f6040820152701ddb995c881b9bdc88185c1c1c9bdd9959607a1b606082015260800190565b60208082526017908201527f696e646578203c205f6d6178546f74616c537570706c79000000000000000000604082015260600190565b602081526000613c1b6020830184614924565b81518152602080830151908201526040808301519082015260608101610c00565b60008219821115614d4f57614d4f614e4b565b500190565b600082614d6357614d63614e61565b500490565b6000816000190483118215151615614d8257614d82614e4b565b500290565b600082821015614d9957614d99614e4b565b500390565b60005b83811015614db9578181015183820152602001614da1565b83811115612a595750506000910152565b600081614dd957614dd9614e4b565b506000190190565b600181811c90821680614df557607f821691505b60208210811415614e1657634e487b7160e01b600052602260045260246000fd5b50919050565b6000600019821415614e3057614e30614e4b565b5060010190565b600082614e4657614e46614e61565b500690565b634e487b7160e01b600052601160045260246000fd5b634e487b7160e01b600052601260045260246000fd5b634e487b7160e01b600052603160045260246000fd5b634e487b7160e01b600052603260045260246000fd5b634e487b7160e01b600052604160045260246000fd5b6001600160a01b03811681146126c357600080fd5b6001600160e01b0319811681146126c357600080fdfe9f2df0fed2c77648de5860a4cc508cd0818c85b8b8a1ab4ceeef8d981c8956a6a264697066735822122052e1034f7456ec302f6c06a7965749e05fea9142c9fa2175f470e2e24201179c64736f6c63430008070033",
  "devdoc": {
    "author": "NFT Legends team*",
    "kind": "dev",
    "methods": {
      "addBatch(uint256,uint256,string,uint256)": {
        "params": {
          "baseURI": "ipfs batch URI",
          "endTokenId": "index of the last batch token",
          "rarity": "batch rarity Note: batch ids can change over time and reorder as the result of batch removal",
          "startTokenId": "index of the first batch token"
        }
      },
      "addSaleStage(uint256,uint256,uint256)": {
        "params": {
          "endTokensBought": "index of the last batch token",
          "startTokensBought": "index of the first batch token",
          "weiPerToken": "price for token"
        }
      },
      "approve(address,uint256)": {
        "details": "See {IERC721-approve}."
      },
      "balanceOf(address)": {
        "details": "See {IERC721-balanceOf}."
      },
      "batchesLength()": {
        "details": "Returns the length of configured batches",
        "returns": {
          "_0": "current `_batches` array length."
        }
      },
      "buy(uint256,address)": {
        "details": "Method to purchase and random available NFTs.",
        "params": {
          "nfts": "the number of tokens to buy",
          "referral": "the address of referral who invited the user to the platform"
        }
      },
      "deleteBatch(uint256)": {
        "params": {
          "batchIndex": "the index of the batch to be deteted"
        }
      },
      "deleteSaleStage(uint256)": {
        "details": "Delete sale stage by the given given index",
        "params": {
          "saleStageIndex": "index of the batch to be deleted"
        }
      },
      "getApproved(uint256)": {
        "details": "See {IERC721-getApproved}."
      },
      "getBatch(uint256)": {
        "details": "Returns the batch by its index in the array",
        "params": {
          "batchIndex": "batch index"
        },
        "returns": {
          "_0": "Batch info Note: batch ids can change over time and reorder as the result of batch removal"
        }
      },
      "getBatchByToken(uint256)": {
        "details": "Return batch by given tokenId",
        "params": {
          "tokenId": "token id"
        },
        "returns": {
          "_0": "batch structure"
        }
      },
      "getBatches()": {
        "details": "Returns all the batches",
        "returns": {
          "_0": "`_batches`."
        }
      },
      "getDna(uint256)": {
        "details": "Returns individual DNA of the NFT at index",
        "params": {
          "index": "token id"
        },
        "returns": {
          "_0": "NFT DNA"
        }
      },
      "getName(uint256)": {
        "details": "Returns name of the NFT at index",
        "params": {
          "index": "token id"
        },
        "returns": {
          "_0": "NFT name"
        }
      },
      "getRarity(uint256)": {
        "details": "Returns rarity of the NFT by token Id",
        "params": {
          "tokenId": "id of the token"
        },
        "returns": {
          "_0": "rarity"
        }
      },
      "getRoleAdmin(bytes32)": {
        "details": "Returns the admin role that controls `role`. See {grantRole} and {revokeRole}. To change a role's admin, use {_setRoleAdmin}."
      },
      "getSaleStage(uint256)": {
        "details": "Returns the saleStage by its index",
        "params": {
          "saleStageIndex": "salestage index in the array"
        },
        "returns": {
          "_0": "info about sale stage"
        }
      },
      "getSaleStages()": {
        "details": "Returns all sale stages",
        "returns": {
          "_0": "`_saleStages`."
        }
      },
      "getSkill(uint256)": {
        "details": "Returns skill of the NFT at index",
        "params": {
          "index": "token id"
        },
        "returns": {
          "_0": "NFT skill"
        }
      },
      "getTotalPriceFor(uint256)": {
        "details": "Calculates the total price for the given number of tokens",
        "params": {
          "tokens": "number of tokens to be purchased"
        },
        "returns": {
          "_0": "summary price"
        }
      },
      "grantRole(bytes32,address)": {
        "details": "Grants `role` to `account`. If `account` had not been already granted `role`, emits a {RoleGranted} event. Requirements: - the caller must have ``role``'s admin role."
      },
      "hasRole(bytes32,address)": {
        "details": "Returns `true` if `account` has been granted `role`."
      },
      "isApprovedForAll(address,address)": {
        "details": "See {IERC721-isApprovedForAll}."
      },
      "maxTotalSupply()": {
        "details": "Returns current `_maxTotalSupply` value."
      },
      "mint(address,uint256)": {
        "details": "Mints a specific token (with known id) to the given address",
        "params": {
          "mintIndex": "the tokenId to mint",
          "to": "the receiver"
        }
      },
      "mintMultiple(address,uint256)": {
        "details": "Public method to randomly mint desired number of NFTs",
        "params": {
          "nfts": "the number of tokens to be minted",
          "to": "the receiver"
        }
      },
      "name()": {
        "details": "See {IERC721Metadata-name}."
      },
      "ownerOf(uint256)": {
        "details": "See {IERC721-ownerOf}."
      },
      "renounceRole(bytes32,address)": {
        "details": "Revokes `role` from the calling account. Roles are often managed via {grantRole} and {revokeRole}: this function's purpose is to provide a mechanism for accounts to lose their privileges if they are compromised (such as when a trusted device is misplaced). If the calling account had been granted `role`, emits a {RoleRevoked} event. Requirements: - the caller must be `account`."
      },
      "revokeRole(bytes32,address)": {
        "details": "Revokes `role` from `account`. If `account` had been granted `role`, emits a {RoleRevoked} event. Requirements: - the caller must have ``role``'s admin role."
      },
      "safeTransferFrom(address,address,uint256)": {
        "details": "See {IERC721-safeTransferFrom}."
      },
      "safeTransferFrom(address,address,uint256,bytes)": {
        "details": "See {IERC721-safeTransferFrom}."
      },
      "saleStagesLength()": {
        "details": "Returns the number of configured saleStages (tokensale schedule)",
        "returns": {
          "_0": "current `_saleStages` array length"
        }
      },
      "setApprovalForAll(address,bool)": {
        "details": "See {IERC721-setApprovalForAll}."
      },
      "setBatch(uint256,uint256,uint256,string,uint256)": {
        "params": {
          "baseURI": "ipfs batch URI",
          "batchEndId": "index of the last batch token",
          "batchIndex": "the index of the batch to be changed",
          "batchStartId": "index of the first batch token",
          "rarity": "batch rarity Note: batch ids can change over time and reorder as the result of batch removal"
        }
      },
      "setDefaultName(string)": {
        "details": "Set default name.",
        "params": {
          "name": "new default name"
        }
      },
      "setDefaultRarity(uint256)": {
        "details": "Set defaultRarity",
        "params": {
          "rarity": "new default rarity"
        }
      },
      "setDefaultSkill(uint256)": {
        "details": "Set default skill.",
        "params": {
          "skill": "new default name"
        }
      },
      "setDefaultUri(string)": {
        "details": "Set defaultUri"
      },
      "setDna(uint256,uint256)": {
        "details": "Set or change individual token DNA"
      },
      "setMaxPurchaseSize(uint256)": {
        "details": "Set max purchase size (to avoid gas overspending)"
      },
      "setName(uint256,string)": {
        "details": "Set or change individual token name"
      },
      "setSaleStage(uint256,uint256,uint256,uint256)": {
        "params": {
          "endTokensBought": "index of the last batch token",
          "saleStageId": "index of the first sale stage token",
          "startTokensBought": "index of the first batch token",
          "weiPerToken": "price for token"
        }
      },
      "setSkill(uint256,uint256)": {
        "details": "Set or change individual token skill"
      },
      "setVault(address)": {
        "details": "Set vault",
        "params": {
          "newVault": "address to receive ethers"
        }
      },
      "start()": {
        "details": "Start tokensale process"
      },
      "stop()": {
        "details": "Stop tokensale"
      },
      "supportsInterface(bytes4)": {
        "details": "See {IERC165-supportsInterface}."
      },
      "symbol()": {
        "details": "See {IERC721Metadata-symbol}."
      },
      "tokenByIndex(uint256)": {
        "details": "See {IERC721Enumerable-tokenByIndex}."
      },
      "tokenOfOwnerByIndex(address,uint256)": {
        "details": "See {IERC721Enumerable-tokenOfOwnerByIndex}."
      },
      "tokenURI(uint256)": {
        "details": "IPFS address that stores JSON with token attributes Tries to find it by batch first. If token has no batch, returns defaultUri.",
        "params": {
          "tokenId": "id of the token"
        },
        "returns": {
          "_0": "string with ipfs address to json with token attribute or URI for default token if token doesn`t exist"
        }
      },
      "totalSupply()": {
        "details": "See {IERC721Enumerable-totalSupply}."
      },
      "transferFrom(address,address,uint256)": {
        "details": "See {IERC721-transferFrom}."
      }
    },
    "title": "Digital art collectible metaverse",
    "version": 1
  },
  "userdoc": {
    "kind": "user",
    "methods": {
      "addBatch(uint256,uint256,string,uint256)": {
        "notice": "Creates the new batch for given token range"
      },
      "addSaleStage(uint256,uint256,uint256)": {
        "notice": "Add sale stage (i.e. tokensale schedule) It takes place at the end of `saleStages array`"
      },
      "deleteBatch(uint256)": {
        "notice": "Deletes batch by its id. This reorders the index of the token that was last."
      },
      "setBatch(uint256,uint256,uint256,string,uint256)": {
        "notice": "Update existing batch by its index"
      },
      "setSaleStage(uint256,uint256,uint256,uint256)": {
        "notice": "Update (rewrite) saleStage properties by index"
      }
    },
    "version": 1
  },
  "storageLayout": {
    "storage": [
      {
        "astId": 413,
        "contract": "contracts/Collection.sol:Collection",
        "label": "_initialized",
        "offset": 0,
        "slot": "0",
        "type": "t_bool"
      },
      {
        "astId": 416,
        "contract": "contracts/Collection.sol:Collection",
        "label": "_initializing",
        "offset": 1,
        "slot": "0",
        "type": "t_bool"
      },
      {
        "astId": 2145,
        "contract": "contracts/Collection.sol:Collection",
        "label": "__gap",
        "offset": 0,
        "slot": "1",
        "type": "t_array(t_uint256)50_storage"
      },
      {
        "astId": 2394,
        "contract": "contracts/Collection.sol:Collection",
        "label": "__gap",
        "offset": 0,
        "slot": "51",
        "type": "t_array(t_uint256)50_storage"
      },
      {
        "astId": 482,
        "contract": "contracts/Collection.sol:Collection",
        "label": "_name",
        "offset": 0,
        "slot": "101",
        "type": "t_string_storage"
      },
      {
        "astId": 484,
        "contract": "contracts/Collection.sol:Collection",
        "label": "_symbol",
        "offset": 0,
        "slot": "102",
        "type": "t_string_storage"
      },
      {
        "astId": 488,
        "contract": "contracts/Collection.sol:Collection",
        "label": "_owners",
        "offset": 0,
        "slot": "103",
        "type": "t_mapping(t_uint256,t_address)"
      },
      {
        "astId": 492,
        "contract": "contracts/Collection.sol:Collection",
        "label": "_balances",
        "offset": 0,
        "slot": "104",
        "type": "t_mapping(t_address,t_uint256)"
      },
      {
        "astId": 496,
        "contract": "contracts/Collection.sol:Collection",
        "label": "_tokenApprovals",
        "offset": 0,
        "slot": "105",
        "type": "t_mapping(t_uint256,t_address)"
      },
      {
        "astId": 502,
        "contract": "contracts/Collection.sol:Collection",
        "label": "_operatorApprovals",
        "offset": 0,
        "slot": "106",
        "type": "t_mapping(t_address,t_mapping(t_address,t_bool))"
      },
      {
        "astId": 1298,
        "contract": "contracts/Collection.sol:Collection",
        "label": "__gap",
        "offset": 0,
        "slot": "107",
        "type": "t_array(t_uint256)44_storage"
      },
      {
        "astId": 1472,
        "contract": "contracts/Collection.sol:Collection",
        "label": "_ownedTokens",
        "offset": 0,
        "slot": "151",
        "type": "t_mapping(t_address,t_mapping(t_uint256,t_uint256))"
      },
      {
        "astId": 1476,
        "contract": "contracts/Collection.sol:Collection",
        "label": "_ownedTokensIndex",
        "offset": 0,
        "slot": "152",
        "type": "t_mapping(t_uint256,t_uint256)"
      },
      {
        "astId": 1479,
        "contract": "contracts/Collection.sol:Collection",
        "label": "_allTokens",
        "offset": 0,
        "slot": "153",
        "type": "t_array(t_uint256)dyn_storage"
      },
      {
        "astId": 1483,
        "contract": "contracts/Collection.sol:Collection",
        "label": "_allTokensIndex",
        "offset": 0,
        "slot": "154",
        "type": "t_mapping(t_uint256,t_uint256)"
      },
      {
        "astId": 1798,
        "contract": "contracts/Collection.sol:Collection",
        "label": "__gap",
        "offset": 0,
        "slot": "155",
        "type": "t_array(t_uint256)46_storage"
      },
      {
        "astId": 48,
        "contract": "contracts/Collection.sol:Collection",
        "label": "_roles",
        "offset": 0,
        "slot": "201",
        "type": "t_mapping(t_bytes32,t_struct(RoleData)43_storage)"
      },
      {
        "astId": 333,
        "contract": "contracts/Collection.sol:Collection",
        "label": "__gap",
        "offset": 0,
        "slot": "202",
        "type": "t_array(t_uint256)49_storage"
      },
      {
        "astId": 2965,
        "contract": "contracts/Collection.sol:Collection",
        "label": "_tokenName",
        "offset": 0,
        "slot": "251",
        "type": "t_mapping(t_uint256,t_string_storage)"
      },
      {
        "astId": 2969,
        "contract": "contracts/Collection.sol:Collection",
        "label": "_tokenSkill",
        "offset": 0,
        "slot": "252",
        "type": "t_mapping(t_uint256,t_uint256)"
      },
      {
        "astId": 2973,
        "contract": "contracts/Collection.sol:Collection",
        "label": "_tokenDna",
        "offset": 0,
        "slot": "253",
        "type": "t_mapping(t_uint256,t_uint256)"
      },
      {
        "astId": 2975,
        "contract": "contracts/Collection.sol:Collection",
        "label": "saleActive",
        "offset": 0,
        "slot": "254",
        "type": "t_bool"
      },
      {
        "astId": 3001,
        "contract": "contracts/Collection.sol:Collection",
        "label": "_batches",
        "offset": 0,
        "slot": "255",
        "type": "t_array(t_struct(Batch)2997_storage)dyn_storage"
      },
      {
        "astId": 3005,
        "contract": "contracts/Collection.sol:Collection",
        "label": "_saleStages",
        "offset": 0,
        "slot": "256",
        "type": "t_array(t_struct(SaleStage)2988_storage)dyn_storage"
      },
      {
        "astId": 3007,
        "contract": "contracts/Collection.sol:Collection",
        "label": "_maxTotalSupply",
        "offset": 0,
        "slot": "257",
        "type": "t_uint256"
      },
      {
        "astId": 3009,
        "contract": "contracts/Collection.sol:Collection",
        "label": "maxPurchaseSize",
        "offset": 0,
        "slot": "258",
        "type": "t_uint256"
      },
      {
        "astId": 3011,
        "contract": "contracts/Collection.sol:Collection",
        "label": "_defaultUri",
        "offset": 0,
        "slot": "259",
        "type": "t_string_storage"
      },
      {
        "astId": 3013,
        "contract": "contracts/Collection.sol:Collection",
        "label": "_defaultRarity",
        "offset": 0,
        "slot": "260",
        "type": "t_uint256"
      },
      {
        "astId": 3015,
        "contract": "contracts/Collection.sol:Collection",
        "label": "_defaultName",
        "offset": 0,
        "slot": "261",
        "type": "t_string_storage"
      },
      {
        "astId": 3017,
        "contract": "contracts/Collection.sol:Collection",
        "label": "_defaultSkill",
        "offset": 0,
        "slot": "262",
        "type": "t_uint256"
      },
      {
        "astId": 3039,
        "contract": "contracts/Collection.sol:Collection",
        "label": "vault",
        "offset": 0,
        "slot": "263",
        "type": "t_address_payable"
      }
    ],
    "types": {
      "t_address": {
        "encoding": "inplace",
        "label": "address",
        "numberOfBytes": "20"
      },
      "t_address_payable": {
        "encoding": "inplace",
        "label": "address payable",
        "numberOfBytes": "20"
      },
      "t_array(t_struct(Batch)2997_storage)dyn_storage": {
        "base": "t_struct(Batch)2997_storage",
        "encoding": "dynamic_array",
        "label": "struct Collection.Batch[]",
        "numberOfBytes": "32"
      },
      "t_array(t_struct(SaleStage)2988_storage)dyn_storage": {
        "base": "t_struct(SaleStage)2988_storage",
        "encoding": "dynamic_array",
        "label": "struct Collection.SaleStage[]",
        "numberOfBytes": "32"
      },
      "t_array(t_uint256)44_storage": {
        "base": "t_uint256",
        "encoding": "inplace",
        "label": "uint256[44]",
        "numberOfBytes": "1408"
      },
      "t_array(t_uint256)46_storage": {
        "base": "t_uint256",
        "encoding": "inplace",
        "label": "uint256[46]",
        "numberOfBytes": "1472"
      },
      "t_array(t_uint256)49_storage": {
        "base": "t_uint256",
        "encoding": "inplace",
        "label": "uint256[49]",
        "numberOfBytes": "1568"
      },
      "t_array(t_uint256)50_storage": {
        "base": "t_uint256",
        "encoding": "inplace",
        "label": "uint256[50]",
        "numberOfBytes": "1600"
      },
      "t_array(t_uint256)dyn_storage": {
        "base": "t_uint256",
        "encoding": "dynamic_array",
        "label": "uint256[]",
        "numberOfBytes": "32"
      },
      "t_bool": {
        "encoding": "inplace",
        "label": "bool",
        "numberOfBytes": "1"
      },
      "t_bytes32": {
        "encoding": "inplace",
        "label": "bytes32",
        "numberOfBytes": "32"
      },
      "t_mapping(t_address,t_bool)": {
        "encoding": "mapping",
        "key": "t_address",
        "label": "mapping(address => bool)",
        "numberOfBytes": "32",
        "value": "t_bool"
      },
      "t_mapping(t_address,t_mapping(t_address,t_bool))": {
        "encoding": "mapping",
        "key": "t_address",
        "label": "mapping(address => mapping(address => bool))",
        "numberOfBytes": "32",
        "value": "t_mapping(t_address,t_bool)"
      },
      "t_mapping(t_address,t_mapping(t_uint256,t_uint256))": {
        "encoding": "mapping",
        "key": "t_address",
        "label": "mapping(address => mapping(uint256 => uint256))",
        "numberOfBytes": "32",
        "value": "t_mapping(t_uint256,t_uint256)"
      },
      "t_mapping(t_address,t_uint256)": {
        "encoding": "mapping",
        "key": "t_address",
        "label": "mapping(address => uint256)",
        "numberOfBytes": "32",
        "value": "t_uint256"
      },
      "t_mapping(t_bytes32,t_struct(RoleData)43_storage)": {
        "encoding": "mapping",
        "key": "t_bytes32",
        "label": "mapping(bytes32 => struct AccessControlUpgradeable.RoleData)",
        "numberOfBytes": "32",
        "value": "t_struct(RoleData)43_storage"
      },
      "t_mapping(t_uint256,t_address)": {
        "encoding": "mapping",
        "key": "t_uint256",
        "label": "mapping(uint256 => address)",
        "numberOfBytes": "32",
        "value": "t_address"
      },
      "t_mapping(t_uint256,t_string_storage)": {
        "encoding": "mapping",
        "key": "t_uint256",
        "label": "mapping(uint256 => string)",
        "numberOfBytes": "32",
        "value": "t_string_storage"
      },
      "t_mapping(t_uint256,t_uint256)": {
        "encoding": "mapping",
        "key": "t_uint256",
        "label": "mapping(uint256 => uint256)",
        "numberOfBytes": "32",
        "value": "t_uint256"
      },
      "t_string_storage": {
        "encoding": "bytes",
        "label": "string",
        "numberOfBytes": "32"
      },
      "t_struct(Batch)2997_storage": {
        "encoding": "inplace",
        "label": "struct Collection.Batch",
        "members": [
          {
            "astId": 2990,
            "contract": "contracts/Collection.sol:Collection",
            "label": "startBatchTokenId",
            "offset": 0,
            "slot": "0",
            "type": "t_uint256"
          },
          {
            "astId": 2992,
            "contract": "contracts/Collection.sol:Collection",
            "label": "endBatchTokenId",
            "offset": 0,
            "slot": "1",
            "type": "t_uint256"
          },
          {
            "astId": 2994,
            "contract": "contracts/Collection.sol:Collection",
            "label": "baseURI",
            "offset": 0,
            "slot": "2",
            "type": "t_string_storage"
          },
          {
            "astId": 2996,
            "contract": "contracts/Collection.sol:Collection",
            "label": "rarity",
            "offset": 0,
            "slot": "3",
            "type": "t_uint256"
          }
        ],
        "numberOfBytes": "128"
      },
      "t_struct(RoleData)43_storage": {
        "encoding": "inplace",
        "label": "struct AccessControlUpgradeable.RoleData",
        "members": [
          {
            "astId": 40,
            "contract": "contracts/Collection.sol:Collection",
            "label": "members",
            "offset": 0,
            "slot": "0",
            "type": "t_mapping(t_address,t_bool)"
          },
          {
            "astId": 42,
            "contract": "contracts/Collection.sol:Collection",
            "label": "adminRole",
            "offset": 0,
            "slot": "1",
            "type": "t_bytes32"
          }
        ],
        "numberOfBytes": "64"
      },
      "t_struct(SaleStage)2988_storage": {
        "encoding": "inplace",
        "label": "struct Collection.SaleStage",
        "members": [
          {
            "astId": 2983,
            "contract": "contracts/Collection.sol:Collection",
            "label": "startTokensBought",
            "offset": 0,
            "slot": "0",
            "type": "t_uint256"
          },
          {
            "astId": 2985,
            "contract": "contracts/Collection.sol:Collection",
            "label": "endTokensBought",
            "offset": 0,
            "slot": "1",
            "type": "t_uint256"
          },
          {
            "astId": 2987,
            "contract": "contracts/Collection.sol:Collection",
            "label": "weiPerToken",
            "offset": 0,
            "slot": "2",
            "type": "t_uint256"
          }
        ],
        "numberOfBytes": "96"
      },
      "t_uint256": {
        "encoding": "inplace",
        "label": "uint256",
        "numberOfBytes": "32"
      }
    }
  }
}